{
	"contracts/6_ExampleWrapAround.sol": {
		"ExampleWrapAround": {
			"abi": [
				{
					"inputs": [],
					"name": "decrementUint",
					"outputs": [],
					"stateMutability": "nonpayable",
					"type": "function"
				},
				{
					"inputs": [],
					"name": "incrementUint8",
					"outputs": [],
					"stateMutability": "nonpayable",
					"type": "function"
				},
				{
					"inputs": [],
					"name": "myUint",
					"outputs": [
						{
							"internalType": "uint256",
							"name": "",
							"type": "uint256"
						}
					],
					"stateMutability": "view",
					"type": "function"
				},
				{
					"inputs": [],
					"name": "myUint8",
					"outputs": [
						{
							"internalType": "uint8",
							"name": "",
							"type": "uint8"
						}
					],
					"stateMutability": "view",
					"type": "function"
				},
				{
					"inputs": [
						{
							"internalType": "uint256",
							"name": "_myUint",
							"type": "uint256"
						}
					],
					"name": "setMyUint",
					"outputs": [],
					"stateMutability": "nonpayable",
					"type": "function"
				}
			],
			"devdoc": {
				"kind": "dev",
				"methods": {},
				"version": 1
			},
			"evm": {
				"assembly": "    /* \"contracts/6_ExampleWrapAround.sol\":58:373  contract ExampleWrapAround {... */\n  mstore(0x40, 0x80)\n    /* \"contracts/6_ExampleWrapAround.sol\":157:160  250 */\n  0xfa\n    /* \"contracts/6_ExampleWrapAround.sol\":134:160  uint8 public myUint8 = 250 */\n  0x01\n  exp(0x0100, 0x00)\n  dup2\n  sload\n  dup2\n  0xff\n  mul\n  not\n  and\n  swap1\n  dup4\n  0xff\n  and\n  mul\n  or\n  swap1\n  sstore\n  pop\n    /* \"contracts/6_ExampleWrapAround.sol\":58:373  contract ExampleWrapAround {... */\n  callvalue\n  dup1\n  iszero\n  tag_1\n  jumpi\n  0x00\n  dup1\n  revert\ntag_1:\n  pop\n  dataSize(sub_0)\n  dup1\n  dataOffset(sub_0)\n  0x00\n  codecopy\n  0x00\n  return\nstop\n\nsub_0: assembly {\n        /* \"contracts/6_ExampleWrapAround.sol\":58:373  contract ExampleWrapAround {... */\n      mstore(0x40, 0x80)\n      callvalue\n      dup1\n      iszero\n      tag_1\n      jumpi\n      0x00\n      dup1\n      revert\n    tag_1:\n      pop\n      jumpi(tag_2, lt(calldatasize, 0x04))\n      shr(0xe0, calldataload(0x00))\n      dup1\n      0x06540f7e\n      eq\n      tag_3\n      jumpi\n      dup1\n      0x84ea3606\n      eq\n      tag_4\n      jumpi\n      dup1\n      0xda50eaee\n      eq\n      tag_5\n      jumpi\n      dup1\n      0xe2a4b2af\n      eq\n      tag_6\n      jumpi\n      dup1\n      0xe492fd84\n      eq\n      tag_7\n      jumpi\n    tag_2:\n      0x00\n      dup1\n      revert\n        /* \"contracts/6_ExampleWrapAround.sol\":91:112  uint256 public myUint */\n    tag_3:\n      tag_8\n      tag_9\n      jump\t// in\n    tag_8:\n      mload(0x40)\n      tag_10\n      swap2\n      swap1\n      tag_11\n      jump\t// in\n    tag_10:\n      mload(0x40)\n      dup1\n      swap2\n      sub\n      swap1\n      return\n        /* \"contracts/6_ExampleWrapAround.sol\":312:371  function incrementUint8() public {... */\n    tag_4:\n      tag_12\n      tag_13\n      jump\t// in\n    tag_12:\n      stop\n        /* \"contracts/6_ExampleWrapAround.sol\":249:306  function decrementUint() public {... */\n    tag_5:\n      tag_14\n      tag_15\n      jump\t// in\n    tag_14:\n      stop\n        /* \"contracts/6_ExampleWrapAround.sol\":134:160  uint8 public myUint8 = 250 */\n    tag_6:\n      tag_16\n      tag_17\n      jump\t// in\n    tag_16:\n      mload(0x40)\n      tag_18\n      swap2\n      swap1\n      tag_19\n      jump\t// in\n    tag_18:\n      mload(0x40)\n      dup1\n      swap2\n      sub\n      swap1\n      return\n        /* \"contracts/6_ExampleWrapAround.sol\":167:243  function setMyUint(uint256 _myUint) public {... */\n    tag_7:\n      tag_20\n      0x04\n      dup1\n      calldatasize\n      sub\n      dup2\n      add\n      swap1\n      tag_21\n      swap2\n      swap1\n      tag_22\n      jump\t// in\n    tag_21:\n      tag_23\n      jump\t// in\n    tag_20:\n      stop\n        /* \"contracts/6_ExampleWrapAround.sol\":91:112  uint256 public myUint */\n    tag_9:\n      sload(0x00)\n      dup2\n      jump\t// out\n        /* \"contracts/6_ExampleWrapAround.sol\":312:371  function incrementUint8() public {... */\n    tag_13:\n        /* \"contracts/6_ExampleWrapAround.sol\":355:362  myUint8 */\n      0x01\n      0x00\n        /* \"contracts/6_ExampleWrapAround.sol\":355:364  myUint8++ */\n      dup2\n      dup2\n      swap1\n      sload\n      swap1\n      0x0100\n      exp\n      swap1\n      div\n      0xff\n      and\n      dup1\n      swap3\n      swap2\n      swap1\n      tag_25\n      swap1\n      tag_26\n      jump\t// in\n    tag_25:\n      swap2\n      swap1\n      0x0100\n      exp\n      dup2\n      sload\n      dup2\n      0xff\n      mul\n      not\n      and\n      swap1\n      dup4\n      0xff\n      and\n      mul\n      or\n      swap1\n      sstore\n      pop\n      pop\n        /* \"contracts/6_ExampleWrapAround.sol\":312:371  function incrementUint8() public {... */\n      jump\t// out\n        /* \"contracts/6_ExampleWrapAround.sol\":249:306  function decrementUint() public {... */\n    tag_15:\n        /* \"contracts/6_ExampleWrapAround.sol\":291:297  myUint */\n      0x00\n      dup1\n        /* \"contracts/6_ExampleWrapAround.sol\":291:299  myUint-- */\n      dup2\n      sload\n      dup1\n      swap3\n      swap2\n      swap1\n      tag_28\n      swap1\n      tag_29\n      jump\t// in\n    tag_28:\n      swap2\n      swap1\n      pop\n      sstore\n      pop\n        /* \"contracts/6_ExampleWrapAround.sol\":249:306  function decrementUint() public {... */\n      jump\t// out\n        /* \"contracts/6_ExampleWrapAround.sol\":134:160  uint8 public myUint8 = 250 */\n    tag_17:\n      0x01\n      0x00\n      swap1\n      sload\n      swap1\n      0x0100\n      exp\n      swap1\n      div\n      0xff\n      and\n      dup2\n      jump\t// out\n        /* \"contracts/6_ExampleWrapAround.sol\":167:243  function setMyUint(uint256 _myUint) public {... */\n    tag_23:\n        /* \"contracts/6_ExampleWrapAround.sol\":229:236  _myUint */\n      dup1\n        /* \"contracts/6_ExampleWrapAround.sol\":220:226  myUint */\n      0x00\n        /* \"contracts/6_ExampleWrapAround.sol\":220:236  myUint = _myUint */\n      dup2\n      swap1\n      sstore\n      pop\n        /* \"contracts/6_ExampleWrapAround.sol\":167:243  function setMyUint(uint256 _myUint) public {... */\n      pop\n      jump\t// out\n        /* \"#utility.yul\":7:84   */\n    tag_31:\n        /* \"#utility.yul\":44:51   */\n      0x00\n        /* \"#utility.yul\":73:78   */\n      dup2\n        /* \"#utility.yul\":62:78   */\n      swap1\n      pop\n        /* \"#utility.yul\":7:84   */\n      swap2\n      swap1\n      pop\n      jump\t// out\n        /* \"#utility.yul\":90:208   */\n    tag_32:\n        /* \"#utility.yul\":177:201   */\n      tag_44\n        /* \"#utility.yul\":195:200   */\n      dup2\n        /* \"#utility.yul\":177:201   */\n      tag_31\n      jump\t// in\n    tag_44:\n        /* \"#utility.yul\":172:175   */\n      dup3\n        /* \"#utility.yul\":165:202   */\n      mstore\n        /* \"#utility.yul\":90:208   */\n      pop\n      pop\n      jump\t// out\n        /* \"#utility.yul\":214:436   */\n    tag_11:\n        /* \"#utility.yul\":307:311   */\n      0x00\n        /* \"#utility.yul\":345:347   */\n      0x20\n        /* \"#utility.yul\":334:343   */\n      dup3\n        /* \"#utility.yul\":330:348   */\n      add\n        /* \"#utility.yul\":322:348   */\n      swap1\n      pop\n        /* \"#utility.yul\":358:429   */\n      tag_46\n        /* \"#utility.yul\":426:427   */\n      0x00\n        /* \"#utility.yul\":415:424   */\n      dup4\n        /* \"#utility.yul\":411:428   */\n      add\n        /* \"#utility.yul\":402:408   */\n      dup5\n        /* \"#utility.yul\":358:429   */\n      tag_32\n      jump\t// in\n    tag_46:\n        /* \"#utility.yul\":214:436   */\n      swap3\n      swap2\n      pop\n      pop\n      jump\t// out\n        /* \"#utility.yul\":442:528   */\n    tag_33:\n        /* \"#utility.yul\":477:484   */\n      0x00\n        /* \"#utility.yul\":517:521   */\n      0xff\n        /* \"#utility.yul\":510:515   */\n      dup3\n        /* \"#utility.yul\":506:522   */\n      and\n        /* \"#utility.yul\":495:522   */\n      swap1\n      pop\n        /* \"#utility.yul\":442:528   */\n      swap2\n      swap1\n      pop\n      jump\t// out\n        /* \"#utility.yul\":534:646   */\n    tag_34:\n        /* \"#utility.yul\":617:639   */\n      tag_49\n        /* \"#utility.yul\":633:638   */\n      dup2\n        /* \"#utility.yul\":617:639   */\n      tag_33\n      jump\t// in\n    tag_49:\n        /* \"#utility.yul\":612:615   */\n      dup3\n        /* \"#utility.yul\":605:640   */\n      mstore\n        /* \"#utility.yul\":534:646   */\n      pop\n      pop\n      jump\t// out\n        /* \"#utility.yul\":652:866   */\n    tag_19:\n        /* \"#utility.yul\":741:745   */\n      0x00\n        /* \"#utility.yul\":779:781   */\n      0x20\n        /* \"#utility.yul\":768:777   */\n      dup3\n        /* \"#utility.yul\":764:782   */\n      add\n        /* \"#utility.yul\":756:782   */\n      swap1\n      pop\n        /* \"#utility.yul\":792:859   */\n      tag_51\n        /* \"#utility.yul\":856:857   */\n      0x00\n        /* \"#utility.yul\":845:854   */\n      dup4\n        /* \"#utility.yul\":841:858   */\n      add\n        /* \"#utility.yul\":832:838   */\n      dup5\n        /* \"#utility.yul\":792:859   */\n      tag_34\n      jump\t// in\n    tag_51:\n        /* \"#utility.yul\":652:866   */\n      swap3\n      swap2\n      pop\n      pop\n      jump\t// out\n        /* \"#utility.yul\":953:1070   */\n    tag_36:\n        /* \"#utility.yul\":1062:1063   */\n      0x00\n        /* \"#utility.yul\":1059:1060   */\n      dup1\n        /* \"#utility.yul\":1052:1064   */\n      revert\n        /* \"#utility.yul\":1199:1321   */\n    tag_38:\n        /* \"#utility.yul\":1272:1296   */\n      tag_56\n        /* \"#utility.yul\":1290:1295   */\n      dup2\n        /* \"#utility.yul\":1272:1296   */\n      tag_31\n      jump\t// in\n    tag_56:\n        /* \"#utility.yul\":1265:1270   */\n      dup2\n        /* \"#utility.yul\":1262:1297   */\n      eq\n        /* \"#utility.yul\":1252:1315   */\n      tag_57\n      jumpi\n        /* \"#utility.yul\":1311:1312   */\n      0x00\n        /* \"#utility.yul\":1308:1309   */\n      dup1\n        /* \"#utility.yul\":1301:1313   */\n      revert\n        /* \"#utility.yul\":1252:1315   */\n    tag_57:\n        /* \"#utility.yul\":1199:1321   */\n      pop\n      jump\t// out\n        /* \"#utility.yul\":1327:1466   */\n    tag_39:\n        /* \"#utility.yul\":1373:1378   */\n      0x00\n        /* \"#utility.yul\":1411:1417   */\n      dup2\n        /* \"#utility.yul\":1398:1418   */\n      calldataload\n        /* \"#utility.yul\":1389:1418   */\n      swap1\n      pop\n        /* \"#utility.yul\":1427:1460   */\n      tag_59\n        /* \"#utility.yul\":1454:1459   */\n      dup2\n        /* \"#utility.yul\":1427:1460   */\n      tag_38\n      jump\t// in\n    tag_59:\n        /* \"#utility.yul\":1327:1466   */\n      swap3\n      swap2\n      pop\n      pop\n      jump\t// out\n        /* \"#utility.yul\":1472:1801   */\n    tag_22:\n        /* \"#utility.yul\":1531:1537   */\n      0x00\n        /* \"#utility.yul\":1580:1582   */\n      0x20\n        /* \"#utility.yul\":1568:1577   */\n      dup3\n        /* \"#utility.yul\":1559:1566   */\n      dup5\n        /* \"#utility.yul\":1555:1578   */\n      sub\n        /* \"#utility.yul\":1551:1583   */\n      slt\n        /* \"#utility.yul\":1548:1667   */\n      iszero\n      tag_61\n      jumpi\n        /* \"#utility.yul\":1586:1665   */\n      tag_62\n      tag_36\n      jump\t// in\n    tag_62:\n        /* \"#utility.yul\":1548:1667   */\n    tag_61:\n        /* \"#utility.yul\":1706:1707   */\n      0x00\n        /* \"#utility.yul\":1731:1784   */\n      tag_63\n        /* \"#utility.yul\":1776:1783   */\n      dup5\n        /* \"#utility.yul\":1767:1773   */\n      dup3\n        /* \"#utility.yul\":1756:1765   */\n      dup6\n        /* \"#utility.yul\":1752:1774   */\n      add\n        /* \"#utility.yul\":1731:1784   */\n      tag_39\n      jump\t// in\n    tag_63:\n        /* \"#utility.yul\":1721:1784   */\n      swap2\n      pop\n        /* \"#utility.yul\":1677:1794   */\n      pop\n        /* \"#utility.yul\":1472:1801   */\n      swap3\n      swap2\n      pop\n      pop\n      jump\t// out\n        /* \"#utility.yul\":1807:1987   */\n    tag_40:\n        /* \"#utility.yul\":1855:1932   */\n      0x4e487b7100000000000000000000000000000000000000000000000000000000\n        /* \"#utility.yul\":1852:1853   */\n      0x00\n        /* \"#utility.yul\":1845:1933   */\n      mstore\n        /* \"#utility.yul\":1952:1956   */\n      0x11\n        /* \"#utility.yul\":1949:1950   */\n      0x04\n        /* \"#utility.yul\":1942:1957   */\n      mstore\n        /* \"#utility.yul\":1976:1980   */\n      0x24\n        /* \"#utility.yul\":1973:1974   */\n      0x00\n        /* \"#utility.yul\":1966:1981   */\n      revert\n        /* \"#utility.yul\":1993:2160   */\n    tag_26:\n        /* \"#utility.yul\":2030:2033   */\n      0x00\n        /* \"#utility.yul\":2053:2075   */\n      tag_66\n        /* \"#utility.yul\":2069:2074   */\n      dup3\n        /* \"#utility.yul\":2053:2075   */\n      tag_33\n      jump\t// in\n    tag_66:\n        /* \"#utility.yul\":2044:2075   */\n      swap2\n      pop\n        /* \"#utility.yul\":2097:2101   */\n      0xff\n        /* \"#utility.yul\":2090:2095   */\n      dup3\n        /* \"#utility.yul\":2087:2102   */\n      sub\n        /* \"#utility.yul\":2084:2125   */\n      tag_67\n      jumpi\n        /* \"#utility.yul\":2105:2123   */\n      tag_68\n      tag_40\n      jump\t// in\n    tag_68:\n        /* \"#utility.yul\":2084:2125   */\n    tag_67:\n        /* \"#utility.yul\":2152:2153   */\n      0x01\n        /* \"#utility.yul\":2145:2150   */\n      dup3\n        /* \"#utility.yul\":2141:2154   */\n      add\n        /* \"#utility.yul\":2134:2154   */\n      swap1\n      pop\n        /* \"#utility.yul\":1993:2160   */\n      swap2\n      swap1\n      pop\n      jump\t// out\n        /* \"#utility.yul\":2166:2337   */\n    tag_29:\n        /* \"#utility.yul\":2205:2208   */\n      0x00\n        /* \"#utility.yul\":2228:2252   */\n      tag_70\n        /* \"#utility.yul\":2246:2251   */\n      dup3\n        /* \"#utility.yul\":2228:2252   */\n      tag_31\n      jump\t// in\n    tag_70:\n        /* \"#utility.yul\":2219:2252   */\n      swap2\n      pop\n        /* \"#utility.yul\":2274:2278   */\n      0x00\n        /* \"#utility.yul\":2267:2272   */\n      dup3\n        /* \"#utility.yul\":2264:2279   */\n      sub\n        /* \"#utility.yul\":2261:2302   */\n      tag_71\n      jumpi\n        /* \"#utility.yul\":2282:2300   */\n      tag_72\n      tag_40\n      jump\t// in\n    tag_72:\n        /* \"#utility.yul\":2261:2302   */\n    tag_71:\n        /* \"#utility.yul\":2329:2330   */\n      0x01\n        /* \"#utility.yul\":2322:2327   */\n      dup3\n        /* \"#utility.yul\":2318:2331   */\n      sub\n        /* \"#utility.yul\":2311:2331   */\n      swap1\n      pop\n        /* \"#utility.yul\":2166:2337   */\n      swap2\n      swap1\n      pop\n      jump\t// out\n\n    auxdata: 0xa2646970667358221220f321df634b0920f62ee9e9b1c394509c733fe11e95fe87ff97d0ae466a08817764736f6c634300081a0033\n}\n",
				"bytecode": {
					"linkReferences": {},
					"object": "608060405260fa60015f6101000a81548160ff021916908360ff1602179055503480156029575f80fd5b506102a6806100375f395ff3fe608060405234801561000f575f80fd5b5060043610610055575f3560e01c806306540f7e1461005957806384ea360614610077578063da50eaee14610081578063e2a4b2af1461008b578063e492fd84146100a9575b5f80fd5b6100616100c5565b60405161006e919061014e565b60405180910390f35b61007f6100ca565b005b610089610103565b005b61009361011b565b6040516100a09190610182565b60405180910390f35b6100c360048036038101906100be91906101c9565b61012d565b005b5f5481565b60015f81819054906101000a900460ff16809291906100e890610221565b91906101000a81548160ff021916908360ff16021790555050565b5f8081548092919061011490610249565b9190505550565b60015f9054906101000a900460ff1681565b805f8190555050565b5f819050919050565b61014881610136565b82525050565b5f6020820190506101615f83018461013f565b92915050565b5f60ff82169050919050565b61017c81610167565b82525050565b5f6020820190506101955f830184610173565b92915050565b5f80fd5b6101a881610136565b81146101b2575f80fd5b50565b5f813590506101c38161019f565b92915050565b5f602082840312156101de576101dd61019b565b5b5f6101eb848285016101b5565b91505092915050565b7f4e487b71000000000000000000000000000000000000000000000000000000005f52601160045260245ffd5b5f61022b82610167565b915060ff820361023e5761023d6101f4565b5b600182019050919050565b5f61025382610136565b91505f8203610265576102646101f4565b5b60018203905091905056fea2646970667358221220f321df634b0920f62ee9e9b1c394509c733fe11e95fe87ff97d0ae466a08817764736f6c634300081a0033",
					"opcodes": "PUSH1 0x80 PUSH1 0x40 MSTORE PUSH1 0xFA PUSH1 0x1 PUSH0 PUSH2 0x100 EXP DUP2 SLOAD DUP2 PUSH1 0xFF MUL NOT AND SWAP1 DUP4 PUSH1 0xFF AND MUL OR SWAP1 SSTORE POP CALLVALUE DUP1 ISZERO PUSH1 0x29 JUMPI PUSH0 DUP1 REVERT JUMPDEST POP PUSH2 0x2A6 DUP1 PUSH2 0x37 PUSH0 CODECOPY PUSH0 RETURN INVALID PUSH1 0x80 PUSH1 0x40 MSTORE CALLVALUE DUP1 ISZERO PUSH2 0xF JUMPI PUSH0 DUP1 REVERT JUMPDEST POP PUSH1 0x4 CALLDATASIZE LT PUSH2 0x55 JUMPI PUSH0 CALLDATALOAD PUSH1 0xE0 SHR DUP1 PUSH4 0x6540F7E EQ PUSH2 0x59 JUMPI DUP1 PUSH4 0x84EA3606 EQ PUSH2 0x77 JUMPI DUP1 PUSH4 0xDA50EAEE EQ PUSH2 0x81 JUMPI DUP1 PUSH4 0xE2A4B2AF EQ PUSH2 0x8B JUMPI DUP1 PUSH4 0xE492FD84 EQ PUSH2 0xA9 JUMPI JUMPDEST PUSH0 DUP1 REVERT JUMPDEST PUSH2 0x61 PUSH2 0xC5 JUMP JUMPDEST PUSH1 0x40 MLOAD PUSH2 0x6E SWAP2 SWAP1 PUSH2 0x14E JUMP JUMPDEST PUSH1 0x40 MLOAD DUP1 SWAP2 SUB SWAP1 RETURN JUMPDEST PUSH2 0x7F PUSH2 0xCA JUMP JUMPDEST STOP JUMPDEST PUSH2 0x89 PUSH2 0x103 JUMP JUMPDEST STOP JUMPDEST PUSH2 0x93 PUSH2 0x11B JUMP JUMPDEST PUSH1 0x40 MLOAD PUSH2 0xA0 SWAP2 SWAP1 PUSH2 0x182 JUMP JUMPDEST PUSH1 0x40 MLOAD DUP1 SWAP2 SUB SWAP1 RETURN JUMPDEST PUSH2 0xC3 PUSH1 0x4 DUP1 CALLDATASIZE SUB DUP2 ADD SWAP1 PUSH2 0xBE SWAP2 SWAP1 PUSH2 0x1C9 JUMP JUMPDEST PUSH2 0x12D JUMP JUMPDEST STOP JUMPDEST PUSH0 SLOAD DUP2 JUMP JUMPDEST PUSH1 0x1 PUSH0 DUP2 DUP2 SWAP1 SLOAD SWAP1 PUSH2 0x100 EXP SWAP1 DIV PUSH1 0xFF AND DUP1 SWAP3 SWAP2 SWAP1 PUSH2 0xE8 SWAP1 PUSH2 0x221 JUMP JUMPDEST SWAP2 SWAP1 PUSH2 0x100 EXP DUP2 SLOAD DUP2 PUSH1 0xFF MUL NOT AND SWAP1 DUP4 PUSH1 0xFF AND MUL OR SWAP1 SSTORE POP POP JUMP JUMPDEST PUSH0 DUP1 DUP2 SLOAD DUP1 SWAP3 SWAP2 SWAP1 PUSH2 0x114 SWAP1 PUSH2 0x249 JUMP JUMPDEST SWAP2 SWAP1 POP SSTORE POP JUMP JUMPDEST PUSH1 0x1 PUSH0 SWAP1 SLOAD SWAP1 PUSH2 0x100 EXP SWAP1 DIV PUSH1 0xFF AND DUP2 JUMP JUMPDEST DUP1 PUSH0 DUP2 SWAP1 SSTORE POP POP JUMP JUMPDEST PUSH0 DUP2 SWAP1 POP SWAP2 SWAP1 POP JUMP JUMPDEST PUSH2 0x148 DUP2 PUSH2 0x136 JUMP JUMPDEST DUP3 MSTORE POP POP JUMP JUMPDEST PUSH0 PUSH1 0x20 DUP3 ADD SWAP1 POP PUSH2 0x161 PUSH0 DUP4 ADD DUP5 PUSH2 0x13F JUMP JUMPDEST SWAP3 SWAP2 POP POP JUMP JUMPDEST PUSH0 PUSH1 0xFF DUP3 AND SWAP1 POP SWAP2 SWAP1 POP JUMP JUMPDEST PUSH2 0x17C DUP2 PUSH2 0x167 JUMP JUMPDEST DUP3 MSTORE POP POP JUMP JUMPDEST PUSH0 PUSH1 0x20 DUP3 ADD SWAP1 POP PUSH2 0x195 PUSH0 DUP4 ADD DUP5 PUSH2 0x173 JUMP JUMPDEST SWAP3 SWAP2 POP POP JUMP JUMPDEST PUSH0 DUP1 REVERT JUMPDEST PUSH2 0x1A8 DUP2 PUSH2 0x136 JUMP JUMPDEST DUP2 EQ PUSH2 0x1B2 JUMPI PUSH0 DUP1 REVERT JUMPDEST POP JUMP JUMPDEST PUSH0 DUP2 CALLDATALOAD SWAP1 POP PUSH2 0x1C3 DUP2 PUSH2 0x19F JUMP JUMPDEST SWAP3 SWAP2 POP POP JUMP JUMPDEST PUSH0 PUSH1 0x20 DUP3 DUP5 SUB SLT ISZERO PUSH2 0x1DE JUMPI PUSH2 0x1DD PUSH2 0x19B JUMP JUMPDEST JUMPDEST PUSH0 PUSH2 0x1EB DUP5 DUP3 DUP6 ADD PUSH2 0x1B5 JUMP JUMPDEST SWAP2 POP POP SWAP3 SWAP2 POP POP JUMP JUMPDEST PUSH32 0x4E487B7100000000000000000000000000000000000000000000000000000000 PUSH0 MSTORE PUSH1 0x11 PUSH1 0x4 MSTORE PUSH1 0x24 PUSH0 REVERT JUMPDEST PUSH0 PUSH2 0x22B DUP3 PUSH2 0x167 JUMP JUMPDEST SWAP2 POP PUSH1 0xFF DUP3 SUB PUSH2 0x23E JUMPI PUSH2 0x23D PUSH2 0x1F4 JUMP JUMPDEST JUMPDEST PUSH1 0x1 DUP3 ADD SWAP1 POP SWAP2 SWAP1 POP JUMP JUMPDEST PUSH0 PUSH2 0x253 DUP3 PUSH2 0x136 JUMP JUMPDEST SWAP2 POP PUSH0 DUP3 SUB PUSH2 0x265 JUMPI PUSH2 0x264 PUSH2 0x1F4 JUMP JUMPDEST JUMPDEST PUSH1 0x1 DUP3 SUB SWAP1 POP SWAP2 SWAP1 POP JUMP INVALID LOG2 PUSH5 0x6970667358 0x22 SLT KECCAK256 RETURN 0x21 0xDF PUSH4 0x4B0920F6 0x2E 0xE9 0xE9 0xB1 0xC3 SWAP5 POP SWAP13 PUSH20 0x3FE11E95FE87FF97D0AE466A08817764736F6C63 NUMBER STOP ADDMOD BYTE STOP CALLER "
				},
				"gasEstimates": {
					"creation": {
						"codeDepositCost": "135600",
						"executionCost": "24447",
						"totalCost": "160047"
					},
					"external": {
						"decrementUint()": "24518",
						"incrementUint8()": "26695",
						"myUint()": "2402",
						"myUint8()": "2510",
						"setMyUint(uint256)": "22580"
					}
				},
				"methodIdentifiers": {
					"decrementUint()": "da50eaee",
					"incrementUint8()": "84ea3606",
					"myUint()": "06540f7e",
					"myUint8()": "e2a4b2af",
					"setMyUint(uint256)": "e492fd84"
				}
			},
			"storageLayout": {
				"storage": [
					{
						"astId": 3,
						"contract": "contracts/6_ExampleWrapAround.sol:ExampleWrapAround",
						"label": "myUint",
						"offset": 0,
						"slot": "0",
						"type": "t_uint256"
					},
					{
						"astId": 6,
						"contract": "contracts/6_ExampleWrapAround.sol:ExampleWrapAround",
						"label": "myUint8",
						"offset": 0,
						"slot": "1",
						"type": "t_uint8"
					}
				],
				"types": {
					"t_uint256": {
						"encoding": "inplace",
						"label": "uint256",
						"numberOfBytes": "32"
					},
					"t_uint8": {
						"encoding": "inplace",
						"label": "uint8",
						"numberOfBytes": "1"
					}
				}
			},
			"userdoc": {
				"kind": "user",
				"methods": {},
				"version": 1
			}
		}
	}
}