{
	"contracts/026_SmartContractWallet.sol": {
		"SmartContractWallet": {
			"abi": [
				{
					"inputs": [],
					"stateMutability": "nonpayable",
					"type": "constructor"
				},
				{
					"inputs": [
						{
							"internalType": "address",
							"name": "",
							"type": "address"
						}
					],
					"name": "allowance",
					"outputs": [
						{
							"internalType": "uint256",
							"name": "",
							"type": "uint256"
						}
					],
					"stateMutability": "view",
					"type": "function"
				},
				{
					"inputs": [],
					"name": "confirmationFromGuardiansForReset",
					"outputs": [
						{
							"internalType": "uint256",
							"name": "",
							"type": "uint256"
						}
					],
					"stateMutability": "view",
					"type": "function"
				},
				{
					"inputs": [
						{
							"internalType": "address",
							"name": "",
							"type": "address"
						}
					],
					"name": "guardians",
					"outputs": [
						{
							"internalType": "bool",
							"name": "",
							"type": "bool"
						}
					],
					"stateMutability": "view",
					"type": "function"
				},
				{
					"inputs": [
						{
							"internalType": "address",
							"name": "",
							"type": "address"
						}
					],
					"name": "isAllowedToSend",
					"outputs": [
						{
							"internalType": "bool",
							"name": "",
							"type": "bool"
						}
					],
					"stateMutability": "view",
					"type": "function"
				},
				{
					"inputs": [],
					"name": "owner",
					"outputs": [
						{
							"internalType": "address payable",
							"name": "",
							"type": "address"
						}
					],
					"stateMutability": "view",
					"type": "function"
				},
				{
					"inputs": [
						{
							"internalType": "address payable",
							"name": "_newOwner",
							"type": "address"
						}
					],
					"name": "proposeNewOwner",
					"outputs": [],
					"stateMutability": "nonpayable",
					"type": "function"
				},
				{
					"inputs": [
						{
							"internalType": "address",
							"name": "_for",
							"type": "address"
						},
						{
							"internalType": "uint256",
							"name": "_amount",
							"type": "uint256"
						}
					],
					"name": "setAllowance",
					"outputs": [],
					"stateMutability": "nonpayable",
					"type": "function"
				},
				{
					"inputs": [
						{
							"internalType": "address",
							"name": "_guardian",
							"type": "address"
						},
						{
							"internalType": "bool",
							"name": "_isGuardian",
							"type": "bool"
						}
					],
					"name": "setGuardian",
					"outputs": [],
					"stateMutability": "nonpayable",
					"type": "function"
				},
				{
					"inputs": [
						{
							"internalType": "address payable",
							"name": "_to",
							"type": "address"
						},
						{
							"internalType": "uint256",
							"name": "_amount",
							"type": "uint256"
						},
						{
							"internalType": "bytes",
							"name": "_payload",
							"type": "bytes"
						}
					],
					"name": "transfer",
					"outputs": [
						{
							"internalType": "bytes",
							"name": "",
							"type": "bytes"
						}
					],
					"stateMutability": "nonpayable",
					"type": "function"
				},
				{
					"stateMutability": "payable",
					"type": "receive"
				}
			],
			"devdoc": {
				"kind": "dev",
				"methods": {},
				"version": 1
			},
			"evm": {
				"assembly": "    /* \"contracts/026_SmartContractWallet.sol\":567:4782  contract SmartContractWallet {... */\n  mstore(0x40, 0x80)\n    /* \"contracts/026_SmartContractWallet.sol\":1427:1543  constructor() {... */\n  callvalue\n  dup1\n  iszero\n  tag_1\n  jumpi\n  0x00\n  dup1\n  revert\ntag_1:\n  pop\n    /* \"contracts/026_SmartContractWallet.sol\":1467:1477  msg.sender */\n  caller\n    /* \"contracts/026_SmartContractWallet.sol\":1451:1456  owner */\n  0x00\n  dup1\n    /* \"contracts/026_SmartContractWallet.sol\":1451:1478  owner = payable(msg.sender) */\n  0x0100\n  exp\n  dup2\n  sload\n  dup2\n  0xffffffffffffffffffffffffffffffffffffffff\n  mul\n  not\n  and\n  swap1\n  dup4\n  0xffffffffffffffffffffffffffffffffffffffff\n  and\n  mul\n  or\n  swap1\n  sstore\n  pop\n    /* \"contracts/026_SmartContractWallet.sol\":567:4782  contract SmartContractWallet {... */\n  dataSize(sub_0)\n  dup1\n  dataOffset(sub_0)\n  0x00\n  codecopy\n  0x00\n  return\nstop\n\nsub_0: assembly {\n        /* \"contracts/026_SmartContractWallet.sol\":567:4782  contract SmartContractWallet {... */\n      mstore(0x40, 0x80)\n      jumpi(tag_1, lt(calldatasize, 0x04))\n      shr(0xe0, calldataload(0x00))\n      dup1\n      0x3e5beab9\n      gt\n      tag_12\n      jumpi\n      dup1\n      0x3e5beab9\n      eq\n      tag_7\n      jumpi\n      dup1\n      0x58e404b1\n      eq\n      tag_8\n      jumpi\n      dup1\n      0x8da5cb5b\n      eq\n      tag_9\n      jumpi\n      dup1\n      0xb1f8100d\n      eq\n      tag_10\n      jumpi\n      dup1\n      0xbe45fd62\n      eq\n      tag_11\n      jumpi\n      jump(tag_2)\n    tag_12:\n      dup1\n      0x0633b14a\n      eq\n      tag_3\n      jumpi\n      dup1\n      0x0bc605ad\n      eq\n      tag_4\n      jumpi\n      dup1\n      0x2b8a1c5a\n      eq\n      tag_5\n      jumpi\n      dup1\n      0x310ec4a7\n      eq\n      tag_6\n      jumpi\n      jump(tag_2)\n    tag_1:\n      jumpi(tag_2, calldatasize)\n      stop\n    tag_2:\n      0x00\n      dup1\n      revert\n        /* \"contracts/026_SmartContractWallet.sol\":914:955  mapping(address => bool) public guardians */\n    tag_3:\n      callvalue\n      dup1\n      iszero\n      tag_15\n      jumpi\n      0x00\n      dup1\n      revert\n    tag_15:\n      pop\n      tag_16\n      0x04\n      dup1\n      calldatasize\n      sub\n      dup2\n      add\n      swap1\n      tag_17\n      swap2\n      swap1\n      tag_18\n      jump\t// in\n    tag_17:\n      tag_19\n      jump\t// in\n    tag_16:\n      mload(0x40)\n      tag_20\n      swap2\n      swap1\n      tag_21\n      jump\t// in\n    tag_20:\n      mload(0x40)\n      dup1\n      swap2\n      sub\n      swap1\n      return\n        /* \"contracts/026_SmartContractWallet.sol\":799:846  mapping(address => bool) public isAllowedToSend */\n    tag_4:\n      callvalue\n      dup1\n      iszero\n      tag_22\n      jumpi\n      0x00\n      dup1\n      revert\n    tag_22:\n      pop\n      tag_23\n      0x04\n      dup1\n      calldatasize\n      sub\n      dup2\n      add\n      swap1\n      tag_24\n      swap2\n      swap1\n      tag_18\n      jump\t// in\n    tag_24:\n      tag_25\n      jump\t// in\n    tag_23:\n      mload(0x40)\n      tag_26\n      swap2\n      swap1\n      tag_21\n      jump\t// in\n    tag_26:\n      mload(0x40)\n      dup1\n      swap2\n      sub\n      swap1\n      return\n        /* \"contracts/026_SmartContractWallet.sol\":1549:1878  function setGuardian(address _guardian, bool _isGuardian) public {... */\n    tag_5:\n      callvalue\n      dup1\n      iszero\n      tag_27\n      jumpi\n      0x00\n      dup1\n      revert\n    tag_27:\n      pop\n      tag_28\n      0x04\n      dup1\n      calldatasize\n      sub\n      dup2\n      add\n      swap1\n      tag_29\n      swap2\n      swap1\n      tag_30\n      jump\t// in\n    tag_29:\n      tag_31\n      jump\t// in\n    tag_28:\n      stop\n        /* \"contracts/026_SmartContractWallet.sol\":2980:3453  function setAllowance(address _for, uint256 _amount) public {... */\n    tag_6:\n      callvalue\n      dup1\n      iszero\n      tag_32\n      jumpi\n      0x00\n      dup1\n      revert\n    tag_32:\n      pop\n      tag_33\n      0x04\n      dup1\n      calldatasize\n      sub\n      dup2\n      add\n      swap1\n      tag_34\n      swap2\n      swap1\n      tag_35\n      jump\t// in\n    tag_34:\n      tag_36\n      jump\t// in\n    tag_33:\n      stop\n        /* \"contracts/026_SmartContractWallet.sol\":696:740  mapping(address => uint256) public allowance */\n    tag_7:\n      callvalue\n      dup1\n      iszero\n      tag_37\n      jumpi\n      0x00\n      dup1\n      revert\n    tag_37:\n      pop\n      tag_38\n      0x04\n      dup1\n      calldatasize\n      sub\n      dup2\n      add\n      swap1\n      tag_39\n      swap2\n      swap1\n      tag_18\n      jump\t// in\n    tag_39:\n      tag_40\n      jump\t// in\n    tag_38:\n      mload(0x40)\n      tag_41\n      swap2\n      swap1\n      tag_42\n      jump\t// in\n    tag_41:\n      mload(0x40)\n      dup1\n      swap2\n      sub\n      swap1\n      return\n        /* \"contracts/026_SmartContractWallet.sol\":1292:1353  uint256 public constant confirmationFromGuardiansForReset = 3 */\n    tag_8:\n      callvalue\n      dup1\n      iszero\n      tag_43\n      jumpi\n      0x00\n      dup1\n      revert\n    tag_43:\n      pop\n      tag_44\n      tag_45\n      jump\t// in\n    tag_44:\n      mload(0x40)\n      tag_46\n      swap2\n      swap1\n      tag_42\n      jump\t// in\n    tag_46:\n      mload(0x40)\n      dup1\n      swap2\n      sub\n      swap1\n      return\n        /* \"contracts/026_SmartContractWallet.sol\":602:630  address payable public owner */\n    tag_9:\n      callvalue\n      dup1\n      iszero\n      tag_47\n      jumpi\n      0x00\n      dup1\n      revert\n    tag_47:\n      pop\n      tag_48\n      tag_49\n      jump\t// in\n    tag_48:\n      mload(0x40)\n      tag_50\n      swap2\n      swap1\n      tag_51\n      jump\t// in\n    tag_50:\n      mload(0x40)\n      dup1\n      swap2\n      sub\n      swap1\n      return\n        /* \"contracts/026_SmartContractWallet.sol\":1884:2919  function proposeNewOwner(address payable _newOwner) public {... */\n    tag_10:\n      callvalue\n      dup1\n      iszero\n      tag_52\n      jumpi\n      0x00\n      dup1\n      revert\n    tag_52:\n      pop\n      tag_53\n      0x04\n      dup1\n      calldatasize\n      sub\n      dup2\n      add\n      swap1\n      tag_54\n      swap2\n      swap1\n      tag_55\n      jump\t// in\n    tag_54:\n      tag_56\n      jump\t// in\n    tag_53:\n      stop\n        /* \"contracts/026_SmartContractWallet.sol\":3493:4681  function transfer(... */\n    tag_11:\n      callvalue\n      dup1\n      iszero\n      tag_57\n      jumpi\n      0x00\n      dup1\n      revert\n    tag_57:\n      pop\n      tag_58\n      0x04\n      dup1\n      calldatasize\n      sub\n      dup2\n      add\n      swap1\n      tag_59\n      swap2\n      swap1\n      tag_60\n      jump\t// in\n    tag_59:\n      tag_61\n      jump\t// in\n    tag_58:\n      mload(0x40)\n      tag_62\n      swap2\n      swap1\n      tag_63\n      jump\t// in\n    tag_62:\n      mload(0x40)\n      dup1\n      swap2\n      sub\n      swap1\n      return\n        /* \"contracts/026_SmartContractWallet.sol\":914:955  mapping(address => bool) public guardians */\n    tag_19:\n      mstore(0x20, 0x03)\n      dup1\n      0x00\n      mstore\n      keccak256(0x00, 0x40)\n      0x00\n      swap2\n      pop\n      sload\n      swap1\n      0x0100\n      exp\n      swap1\n      div\n      0xff\n      and\n      dup2\n      jump\t// out\n        /* \"contracts/026_SmartContractWallet.sol\":799:846  mapping(address => bool) public isAllowedToSend */\n    tag_25:\n      mstore(0x20, 0x02)\n      dup1\n      0x00\n      mstore\n      keccak256(0x00, 0x40)\n      0x00\n      swap2\n      pop\n      sload\n      swap1\n      0x0100\n      exp\n      swap1\n      div\n      0xff\n      and\n      dup2\n      jump\t// out\n        /* \"contracts/026_SmartContractWallet.sol\":1549:1878  function setGuardian(address _guardian, bool _isGuardian) public {... */\n    tag_31:\n        /* \"contracts/026_SmartContractWallet.sol\":1697:1702  owner */\n      0x00\n      dup1\n      sload\n      swap1\n      0x0100\n      exp\n      swap1\n      div\n      0xffffffffffffffffffffffffffffffffffffffff\n      and\n        /* \"contracts/026_SmartContractWallet.sol\":1683:1702  msg.sender == owner */\n      0xffffffffffffffffffffffffffffffffffffffff\n      and\n        /* \"contracts/026_SmartContractWallet.sol\":1683:1693  msg.sender */\n      caller\n        /* \"contracts/026_SmartContractWallet.sol\":1683:1702  msg.sender == owner */\n      0xffffffffffffffffffffffffffffffffffffffff\n      and\n      eq\n        /* \"contracts/026_SmartContractWallet.sol\":1675:1729  require(msg.sender == owner, \"You are not the owner!\") */\n      tag_65\n      jumpi\n      mload(0x40)\n      0x08c379a000000000000000000000000000000000000000000000000000000000\n      dup2\n      mstore\n      0x04\n      add\n      tag_66\n      swap1\n      tag_67\n      jump\t// in\n    tag_66:\n      mload(0x40)\n      dup1\n      swap2\n      sub\n      swap1\n      revert\n    tag_65:\n        /* \"contracts/026_SmartContractWallet.sol\":1814:1825  _isGuardian */\n      dup1\n        /* \"contracts/026_SmartContractWallet.sol\":1791:1800  guardians */\n      0x03\n        /* \"contracts/026_SmartContractWallet.sol\":1791:1811  guardians[_guardian] */\n      0x00\n        /* \"contracts/026_SmartContractWallet.sol\":1801:1810  _guardian */\n      dup5\n        /* \"contracts/026_SmartContractWallet.sol\":1791:1811  guardians[_guardian] */\n      0xffffffffffffffffffffffffffffffffffffffff\n      and\n      0xffffffffffffffffffffffffffffffffffffffff\n      and\n      dup2\n      mstore\n      0x20\n      add\n      swap1\n      dup2\n      mstore\n      0x20\n      add\n      0x00\n      keccak256\n      0x00\n        /* \"contracts/026_SmartContractWallet.sol\":1791:1825  guardians[_guardian] = _isGuardian */\n      0x0100\n      exp\n      dup2\n      sload\n      dup2\n      0xff\n      mul\n      not\n      and\n      swap1\n      dup4\n      iszero\n      iszero\n      mul\n      or\n      swap1\n      sstore\n      pop\n        /* \"contracts/026_SmartContractWallet.sol\":1549:1878  function setGuardian(address _guardian, bool _isGuardian) public {... */\n      pop\n      pop\n      jump\t// out\n        /* \"contracts/026_SmartContractWallet.sol\":2980:3453  function setAllowance(address _for, uint256 _amount) public {... */\n    tag_36:\n        /* \"contracts/026_SmartContractWallet.sol\":3072:3077  owner */\n      0x00\n      dup1\n      sload\n      swap1\n      0x0100\n      exp\n      swap1\n      div\n      0xffffffffffffffffffffffffffffffffffffffff\n      and\n        /* \"contracts/026_SmartContractWallet.sol\":3058:3077  msg.sender == owner */\n      0xffffffffffffffffffffffffffffffffffffffff\n      and\n        /* \"contracts/026_SmartContractWallet.sol\":3058:3068  msg.sender */\n      caller\n        /* \"contracts/026_SmartContractWallet.sol\":3058:3077  msg.sender == owner */\n      0xffffffffffffffffffffffffffffffffffffffff\n      and\n      eq\n        /* \"contracts/026_SmartContractWallet.sol\":3050:3104  require(msg.sender == owner, \"You are not the owner!\") */\n      tag_69\n      jumpi\n      mload(0x40)\n      0x08c379a000000000000000000000000000000000000000000000000000000000\n      dup2\n      mstore\n      0x04\n      add\n      tag_70\n      swap1\n      tag_67\n      jump\t// in\n    tag_70:\n      mload(0x40)\n      dup1\n      swap2\n      sub\n      swap1\n      revert\n    tag_69:\n        /* \"contracts/026_SmartContractWallet.sol\":3169:3176  _amount */\n      dup1\n        /* \"contracts/026_SmartContractWallet.sol\":3151:3160  allowance */\n      0x01\n        /* \"contracts/026_SmartContractWallet.sol\":3151:3166  allowance[_for] */\n      0x00\n        /* \"contracts/026_SmartContractWallet.sol\":3161:3165  _for */\n      dup5\n        /* \"contracts/026_SmartContractWallet.sol\":3151:3166  allowance[_for] */\n      0xffffffffffffffffffffffffffffffffffffffff\n      and\n      0xffffffffffffffffffffffffffffffffffffffff\n      and\n      dup2\n      mstore\n      0x20\n      add\n      swap1\n      dup2\n      mstore\n      0x20\n      add\n      0x00\n      keccak256\n        /* \"contracts/026_SmartContractWallet.sol\":3151:3176  allowance[_for] = _amount */\n      dup2\n      swap1\n      sstore\n      pop\n        /* \"contracts/026_SmartContractWallet.sol\":3239:3240  0 */\n      0x00\n        /* \"contracts/026_SmartContractWallet.sol\":3229:3236  _amount */\n      dup2\n        /* \"contracts/026_SmartContractWallet.sol\":3229:3240  _amount > 0 */\n      gt\n        /* \"contracts/026_SmartContractWallet.sol\":3225:3447  if (_amount > 0) {... */\n      iszero\n      tag_71\n      jumpi\n        /* \"contracts/026_SmartContractWallet.sol\":3280:3284  true */\n      0x01\n        /* \"contracts/026_SmartContractWallet.sol\":3256:3271  isAllowedToSend */\n      0x02\n        /* \"contracts/026_SmartContractWallet.sol\":3256:3277  isAllowedToSend[_for] */\n      0x00\n        /* \"contracts/026_SmartContractWallet.sol\":3272:3276  _for */\n      dup5\n        /* \"contracts/026_SmartContractWallet.sol\":3256:3277  isAllowedToSend[_for] */\n      0xffffffffffffffffffffffffffffffffffffffff\n      and\n      0xffffffffffffffffffffffffffffffffffffffff\n      and\n      dup2\n      mstore\n      0x20\n      add\n      swap1\n      dup2\n      mstore\n      0x20\n      add\n      0x00\n      keccak256\n      0x00\n        /* \"contracts/026_SmartContractWallet.sol\":3256:3284  isAllowedToSend[_for] = true */\n      0x0100\n      exp\n      dup2\n      sload\n      dup2\n      0xff\n      mul\n      not\n      and\n      swap1\n      dup4\n      iszero\n      iszero\n      mul\n      or\n      swap1\n      sstore\n      pop\n        /* \"contracts/026_SmartContractWallet.sol\":3225:3447  if (_amount > 0) {... */\n      jump(tag_72)\n    tag_71:\n        /* \"contracts/026_SmartContractWallet.sol\":3391:3396  false */\n      0x00\n        /* \"contracts/026_SmartContractWallet.sol\":3367:3382  isAllowedToSend */\n      0x02\n        /* \"contracts/026_SmartContractWallet.sol\":3367:3388  isAllowedToSend[_for] */\n      0x00\n        /* \"contracts/026_SmartContractWallet.sol\":3383:3387  _for */\n      dup5\n        /* \"contracts/026_SmartContractWallet.sol\":3367:3388  isAllowedToSend[_for] */\n      0xffffffffffffffffffffffffffffffffffffffff\n      and\n      0xffffffffffffffffffffffffffffffffffffffff\n      and\n      dup2\n      mstore\n      0x20\n      add\n      swap1\n      dup2\n      mstore\n      0x20\n      add\n      0x00\n      keccak256\n      0x00\n        /* \"contracts/026_SmartContractWallet.sol\":3367:3396  isAllowedToSend[_for] = false */\n      0x0100\n      exp\n      dup2\n      sload\n      dup2\n      0xff\n      mul\n      not\n      and\n      swap1\n      dup4\n      iszero\n      iszero\n      mul\n      or\n      swap1\n      sstore\n      pop\n        /* \"contracts/026_SmartContractWallet.sol\":3225:3447  if (_amount > 0) {... */\n    tag_72:\n        /* \"contracts/026_SmartContractWallet.sol\":2980:3453  function setAllowance(address _for, uint256 _amount) public {... */\n      pop\n      pop\n      jump\t// out\n        /* \"contracts/026_SmartContractWallet.sol\":696:740  mapping(address => uint256) public allowance */\n    tag_40:\n      mstore(0x20, 0x01)\n      dup1\n      0x00\n      mstore\n      keccak256(0x00, 0x40)\n      0x00\n      swap2\n      pop\n      swap1\n      pop\n      sload\n      dup2\n      jump\t// out\n        /* \"contracts/026_SmartContractWallet.sol\":1292:1353  uint256 public constant confirmationFromGuardiansForReset = 3 */\n    tag_45:\n        /* \"contracts/026_SmartContractWallet.sol\":1352:1353  3 */\n      0x03\n        /* \"contracts/026_SmartContractWallet.sol\":1292:1353  uint256 public constant confirmationFromGuardiansForReset = 3 */\n      dup2\n      jump\t// out\n        /* \"contracts/026_SmartContractWallet.sol\":602:630  address payable public owner */\n    tag_49:\n      0x00\n      dup1\n      sload\n      swap1\n      0x0100\n      exp\n      swap1\n      div\n      0xffffffffffffffffffffffffffffffffffffffff\n      and\n      dup2\n      jump\t// out\n        /* \"contracts/026_SmartContractWallet.sol\":1884:2919  function proposeNewOwner(address payable _newOwner) public {... */\n    tag_56:\n        /* \"contracts/026_SmartContractWallet.sol\":2017:2026  guardians */\n      0x03\n        /* \"contracts/026_SmartContractWallet.sol\":2017:2038  guardians[msg.sender] */\n      0x00\n        /* \"contracts/026_SmartContractWallet.sol\":2027:2037  msg.sender */\n      caller\n        /* \"contracts/026_SmartContractWallet.sol\":2017:2038  guardians[msg.sender] */\n      0xffffffffffffffffffffffffffffffffffffffff\n      and\n      0xffffffffffffffffffffffffffffffffffffffff\n      and\n      dup2\n      mstore\n      0x20\n      add\n      swap1\n      dup2\n      mstore\n      0x20\n      add\n      0x00\n      keccak256\n      0x00\n      swap1\n      sload\n      swap1\n      0x0100\n      exp\n      swap1\n      div\n      0xff\n      and\n        /* \"contracts/026_SmartContractWallet.sol\":1996:2102  require(... */\n      tag_74\n      jumpi\n      mload(0x40)\n      0x08c379a000000000000000000000000000000000000000000000000000000000\n      dup2\n      mstore\n      0x04\n      add\n      tag_75\n      swap1\n      tag_76\n      jump\t// in\n    tag_75:\n      mload(0x40)\n      dup1\n      swap2\n      sub\n      swap1\n      revert\n    tag_74:\n        /* \"contracts/026_SmartContractWallet.sol\":2231:2236  false */\n      0x00\n        /* \"contracts/026_SmartContractWallet.sol\":2175:2236  nextOwnerGuardianAssignedBool[_newOwner][msg.sender] == false */\n      iszero\n      iszero\n        /* \"contracts/026_SmartContractWallet.sol\":2175:2204  nextOwnerGuardianAssignedBool */\n      0x05\n        /* \"contracts/026_SmartContractWallet.sol\":2175:2215  nextOwnerGuardianAssignedBool[_newOwner] */\n      0x00\n        /* \"contracts/026_SmartContractWallet.sol\":2205:2214  _newOwner */\n      dup4\n        /* \"contracts/026_SmartContractWallet.sol\":2175:2215  nextOwnerGuardianAssignedBool[_newOwner] */\n      0xffffffffffffffffffffffffffffffffffffffff\n      and\n      0xffffffffffffffffffffffffffffffffffffffff\n      and\n      dup2\n      mstore\n      0x20\n      add\n      swap1\n      dup2\n      mstore\n      0x20\n      add\n      0x00\n      keccak256\n        /* \"contracts/026_SmartContractWallet.sol\":2175:2227  nextOwnerGuardianAssignedBool[_newOwner][msg.sender] */\n      0x00\n        /* \"contracts/026_SmartContractWallet.sol\":2216:2226  msg.sender */\n      caller\n        /* \"contracts/026_SmartContractWallet.sol\":2175:2227  nextOwnerGuardianAssignedBool[_newOwner][msg.sender] */\n      0xffffffffffffffffffffffffffffffffffffffff\n      and\n      0xffffffffffffffffffffffffffffffffffffffff\n      and\n      dup2\n      mstore\n      0x20\n      add\n      swap1\n      dup2\n      mstore\n      0x20\n      add\n      0x00\n      keccak256\n      0x00\n      swap1\n      sload\n      swap1\n      0x0100\n      exp\n      swap1\n      div\n      0xff\n      and\n        /* \"contracts/026_SmartContractWallet.sol\":2175:2236  nextOwnerGuardianAssignedBool[_newOwner][msg.sender] == false */\n      iszero\n      iszero\n      eq\n        /* \"contracts/026_SmartContractWallet.sol\":2154:2287  require(... */\n      tag_77\n      jumpi\n      mload(0x40)\n      0x08c379a000000000000000000000000000000000000000000000000000000000\n      dup2\n      mstore\n      0x04\n      add\n      tag_78\n      swap1\n      tag_79\n      jump\t// in\n    tag_78:\n      mload(0x40)\n      dup1\n      swap2\n      sub\n      swap1\n      revert\n    tag_77:\n        /* \"contracts/026_SmartContractWallet.sol\":2354:2363  nextowner */\n      0x04\n      0x00\n      swap1\n      sload\n      swap1\n      0x0100\n      exp\n      swap1\n      div\n      0xffffffffffffffffffffffffffffffffffffffff\n      and\n        /* \"contracts/026_SmartContractWallet.sol\":2341:2363  _newOwner != nextowner */\n      0xffffffffffffffffffffffffffffffffffffffff\n      and\n        /* \"contracts/026_SmartContractWallet.sol\":2341:2350  _newOwner */\n      dup2\n        /* \"contracts/026_SmartContractWallet.sol\":2341:2363  _newOwner != nextowner */\n      0xffffffffffffffffffffffffffffffffffffffff\n      and\n      eq\n        /* \"contracts/026_SmartContractWallet.sol\":2337:2508  if (_newOwner != nextowner) {... */\n      tag_80\n      jumpi\n        /* \"contracts/026_SmartContractWallet.sol\":2391:2400  _newOwner */\n      dup1\n        /* \"contracts/026_SmartContractWallet.sol\":2379:2388  nextowner */\n      0x04\n      0x00\n        /* \"contracts/026_SmartContractWallet.sol\":2379:2400  nextowner = _newOwner */\n      0x0100\n      exp\n      dup2\n      sload\n      dup2\n      0xffffffffffffffffffffffffffffffffffffffff\n      mul\n      not\n      and\n      swap1\n      dup4\n      0xffffffffffffffffffffffffffffffffffffffff\n      and\n      mul\n      or\n      swap1\n      sstore\n      pop\n        /* \"contracts/026_SmartContractWallet.sol\":2467:2468  0 */\n      0x00\n        /* \"contracts/026_SmartContractWallet.sol\":2445:2464  quardiansResetCount */\n      0x06\n        /* \"contracts/026_SmartContractWallet.sol\":2445:2468  quardiansResetCount = 0 */\n      dup2\n      swap1\n      sstore\n      pop\n        /* \"contracts/026_SmartContractWallet.sol\":2337:2508  if (_newOwner != nextowner) {... */\n    tag_80:\n        /* \"contracts/026_SmartContractWallet.sol\":2572:2576  true */\n      0x01\n        /* \"contracts/026_SmartContractWallet.sol\":2517:2546  nextOwnerGuardianAssignedBool */\n      0x05\n        /* \"contracts/026_SmartContractWallet.sol\":2517:2557  nextOwnerGuardianAssignedBool[_newOwner] */\n      0x00\n        /* \"contracts/026_SmartContractWallet.sol\":2547:2556  _newOwner */\n      dup4\n        /* \"contracts/026_SmartContractWallet.sol\":2517:2557  nextOwnerGuardianAssignedBool[_newOwner] */\n      0xffffffffffffffffffffffffffffffffffffffff\n      and\n      0xffffffffffffffffffffffffffffffffffffffff\n      and\n      dup2\n      mstore\n      0x20\n      add\n      swap1\n      dup2\n      mstore\n      0x20\n      add\n      0x00\n      keccak256\n        /* \"contracts/026_SmartContractWallet.sol\":2517:2569  nextOwnerGuardianAssignedBool[_newOwner][msg.sender] */\n      0x00\n        /* \"contracts/026_SmartContractWallet.sol\":2558:2568  msg.sender */\n      caller\n        /* \"contracts/026_SmartContractWallet.sol\":2517:2569  nextOwnerGuardianAssignedBool[_newOwner][msg.sender] */\n      0xffffffffffffffffffffffffffffffffffffffff\n      and\n      0xffffffffffffffffffffffffffffffffffffffff\n      and\n      dup2\n      mstore\n      0x20\n      add\n      swap1\n      dup2\n      mstore\n      0x20\n      add\n      0x00\n      keccak256\n      0x00\n        /* \"contracts/026_SmartContractWallet.sol\":2517:2576  nextOwnerGuardianAssignedBool[_newOwner][msg.sender] = true */\n      0x0100\n      exp\n      dup2\n      sload\n      dup2\n      0xff\n      mul\n      not\n      and\n      swap1\n      dup4\n      iszero\n      iszero\n      mul\n      or\n      swap1\n      sstore\n      pop\n        /* \"contracts/026_SmartContractWallet.sol\":2619:2638  quardiansResetCount */\n      0x06\n      0x00\n        /* \"contracts/026_SmartContractWallet.sol\":2619:2640  quardiansResetCount++ */\n      dup2\n      sload\n      dup1\n      swap3\n      swap2\n      swap1\n      tag_81\n      swap1\n      tag_82\n      jump\t// in\n    tag_81:\n      swap2\n      swap1\n      pop\n      sstore\n      pop\n        /* \"contracts/026_SmartContractWallet.sol\":1352:1353  3 */\n      0x03\n        /* \"contracts/026_SmartContractWallet.sol\":2687:2706  quardiansResetCount */\n      sload(0x06)\n        /* \"contracts/026_SmartContractWallet.sol\":2687:2743  quardiansResetCount >= confirmationFromGuardiansForReset */\n      lt\n        /* \"contracts/026_SmartContractWallet.sol\":2683:2913  if (quardiansResetCount >= confirmationFromGuardiansForReset) {... */\n      tag_83\n      jumpi\n        /* \"contracts/026_SmartContractWallet.sol\":2767:2776  nextowner */\n      0x04\n      0x00\n      swap1\n      sload\n      swap1\n      0x0100\n      exp\n      swap1\n      div\n      0xffffffffffffffffffffffffffffffffffffffff\n      and\n        /* \"contracts/026_SmartContractWallet.sol\":2759:2764  owner */\n      0x00\n      dup1\n        /* \"contracts/026_SmartContractWallet.sol\":2759:2776  owner = nextowner */\n      0x0100\n      exp\n      dup2\n      sload\n      dup2\n      0xffffffffffffffffffffffffffffffffffffffff\n      mul\n      not\n      and\n      swap1\n      dup4\n      0xffffffffffffffffffffffffffffffffffffffff\n      and\n      mul\n      or\n      swap1\n      sstore\n      pop\n        /* \"contracts/026_SmartContractWallet.sol\":2869:2870  0 */\n      0x00\n        /* \"contracts/026_SmartContractWallet.sol\":2849:2858  nextowner */\n      0x04\n      0x00\n        /* \"contracts/026_SmartContractWallet.sol\":2849:2871  nextowner = payable(0) */\n      0x0100\n      exp\n      dup2\n      sload\n      dup2\n      0xffffffffffffffffffffffffffffffffffffffff\n      mul\n      not\n      and\n      swap1\n      dup4\n      0xffffffffffffffffffffffffffffffffffffffff\n      and\n      mul\n      or\n      swap1\n      sstore\n      pop\n        /* \"contracts/026_SmartContractWallet.sol\":2683:2913  if (quardiansResetCount >= confirmationFromGuardiansForReset) {... */\n    tag_83:\n        /* \"contracts/026_SmartContractWallet.sol\":1884:2919  function proposeNewOwner(address payable _newOwner) public {... */\n      pop\n      jump\t// out\n        /* \"contracts/026_SmartContractWallet.sol\":3493:4681  function transfer(... */\n    tag_61:\n        /* \"contracts/026_SmartContractWallet.sol\":3722:3734  bytes memory */\n      0x60\n        /* \"contracts/026_SmartContractWallet.sol\":3764:3769  owner */\n      0x00\n      dup1\n      sload\n      swap1\n      0x0100\n      exp\n      swap1\n      div\n      0xffffffffffffffffffffffffffffffffffffffff\n      and\n        /* \"contracts/026_SmartContractWallet.sol\":3750:3769  msg.sender != owner */\n      0xffffffffffffffffffffffffffffffffffffffff\n      and\n        /* \"contracts/026_SmartContractWallet.sol\":3750:3760  msg.sender */\n      caller\n        /* \"contracts/026_SmartContractWallet.sol\":3750:3769  msg.sender != owner */\n      0xffffffffffffffffffffffffffffffffffffffff\n      and\n      eq\n        /* \"contracts/026_SmartContractWallet.sol\":3746:4359  if (msg.sender != owner) {... */\n      tag_85\n      jumpi\n        /* \"contracts/026_SmartContractWallet.sol\":3881:3896  isAllowedToSend */\n      0x02\n        /* \"contracts/026_SmartContractWallet.sol\":3881:3908  isAllowedToSend[msg.sender] */\n      0x00\n        /* \"contracts/026_SmartContractWallet.sol\":3897:3907  msg.sender */\n      caller\n        /* \"contracts/026_SmartContractWallet.sol\":3881:3908  isAllowedToSend[msg.sender] */\n      0xffffffffffffffffffffffffffffffffffffffff\n      and\n      0xffffffffffffffffffffffffffffffffffffffff\n      and\n      dup2\n      mstore\n      0x20\n      add\n      swap1\n      dup2\n      mstore\n      0x20\n      add\n      0x00\n      keccak256\n      0x00\n      swap1\n      sload\n      swap1\n      0x0100\n      exp\n      swap1\n      div\n      0xff\n      and\n        /* \"contracts/026_SmartContractWallet.sol\":3856:4004  require(... */\n      tag_86\n      jumpi\n      mload(0x40)\n      0x08c379a000000000000000000000000000000000000000000000000000000000\n      dup2\n      mstore\n      0x04\n      add\n      tag_87\n      swap1\n      tag_88\n      jump\t// in\n    tag_87:\n      mload(0x40)\n      dup1\n      swap2\n      sub\n      swap1\n      revert\n    tag_86:\n        /* \"contracts/026_SmartContractWallet.sol\":4105:4112  _amount */\n      dup3\n        /* \"contracts/026_SmartContractWallet.sol\":4080:4089  allowance */\n      0x01\n        /* \"contracts/026_SmartContractWallet.sol\":4080:4101  allowance[msg.sender] */\n      0x00\n        /* \"contracts/026_SmartContractWallet.sol\":4090:4100  msg.sender */\n      caller\n        /* \"contracts/026_SmartContractWallet.sol\":4080:4101  allowance[msg.sender] */\n      0xffffffffffffffffffffffffffffffffffffffff\n      and\n      0xffffffffffffffffffffffffffffffffffffffff\n      and\n      dup2\n      mstore\n      0x20\n      add\n      swap1\n      dup2\n      mstore\n      0x20\n      add\n      0x00\n      keccak256\n      sload\n        /* \"contracts/026_SmartContractWallet.sol\":4080:4112  allowance[msg.sender] >= _amount */\n      lt\n      iszero\n        /* \"contracts/026_SmartContractWallet.sol\":4055:4201  require(... */\n      tag_89\n      jumpi\n      mload(0x40)\n      0x08c379a000000000000000000000000000000000000000000000000000000000\n      dup2\n      mstore\n      0x04\n      add\n      tag_90\n      swap1\n      tag_91\n      jump\t// in\n    tag_90:\n      mload(0x40)\n      dup1\n      swap2\n      sub\n      swap1\n      revert\n    tag_89:\n        /* \"contracts/026_SmartContractWallet.sol\":4291:4298  _amount */\n      dup3\n        /* \"contracts/026_SmartContractWallet.sol\":4266:4275  allowance */\n      0x01\n        /* \"contracts/026_SmartContractWallet.sol\":4266:4287  allowance[msg.sender] */\n      0x00\n        /* \"contracts/026_SmartContractWallet.sol\":4276:4286  msg.sender */\n      caller\n        /* \"contracts/026_SmartContractWallet.sol\":4266:4287  allowance[msg.sender] */\n      0xffffffffffffffffffffffffffffffffffffffff\n      and\n      0xffffffffffffffffffffffffffffffffffffffff\n      and\n      dup2\n      mstore\n      0x20\n      add\n      swap1\n      dup2\n      mstore\n      0x20\n      add\n      0x00\n      keccak256\n      0x00\n        /* \"contracts/026_SmartContractWallet.sol\":4266:4298  allowance[msg.sender] -= _amount */\n      dup3\n      dup3\n      sload\n      tag_92\n      swap2\n      swap1\n      tag_93\n      jump\t// in\n    tag_92:\n      swap3\n      pop\n      pop\n      dup2\n      swap1\n      sstore\n      pop\n        /* \"contracts/026_SmartContractWallet.sol\":3746:4359  if (msg.sender != owner) {... */\n    tag_85:\n        /* \"contracts/026_SmartContractWallet.sol\":4370:4382  bool success */\n      0x00\n        /* \"contracts/026_SmartContractWallet.sol\":4384:4407  bytes memory returnData */\n      dup1\n        /* \"contracts/026_SmartContractWallet.sol\":4411:4414  _to */\n      dup6\n        /* \"contracts/026_SmartContractWallet.sol\":4411:4419  _to.call */\n      0xffffffffffffffffffffffffffffffffffffffff\n      and\n        /* \"contracts/026_SmartContractWallet.sol\":4427:4434  _amount */\n      dup6\n        /* \"contracts/026_SmartContractWallet.sol\":4449:4457  _payload */\n      dup6\n        /* \"contracts/026_SmartContractWallet.sol\":4411:4467  _to.call{value: _amount}(... */\n      mload(0x40)\n      tag_94\n      swap2\n      swap1\n      tag_95\n      jump\t// in\n    tag_94:\n      0x00\n      mload(0x40)\n      dup1\n      dup4\n      sub\n      dup2\n      dup6\n      dup8\n      gas\n      call\n      swap3\n      pop\n      pop\n      pop\n      returndatasize\n      dup1\n      0x00\n      dup2\n      eq\n      tag_98\n      jumpi\n      mload(0x40)\n      swap2\n      pop\n      and(add(returndatasize, 0x3f), not(0x1f))\n      dup3\n      add\n      0x40\n      mstore\n      returndatasize\n      dup3\n      mstore\n      returndatasize\n      0x00\n      0x20\n      dup5\n      add\n      returndatacopy\n      jump(tag_97)\n    tag_98:\n      0x60\n      swap2\n      pop\n    tag_97:\n      pop\n        /* \"contracts/026_SmartContractWallet.sol\":4369:4467  (bool success, bytes memory returnData) = _to.call{value: _amount}(... */\n      swap2\n      pop\n      swap2\n      pop\n        /* \"contracts/026_SmartContractWallet.sol\":4515:4522  success */\n      dup2\n        /* \"contracts/026_SmartContractWallet.sol\":4507:4561  require(success, \"Aborting, call was not successful!\") */\n      tag_99\n      jumpi\n      mload(0x40)\n      0x08c379a000000000000000000000000000000000000000000000000000000000\n      dup2\n      mstore\n      0x04\n      add\n      tag_100\n      swap1\n      tag_101\n      jump\t// in\n    tag_100:\n      mload(0x40)\n      dup1\n      swap2\n      sub\n      swap1\n      revert\n    tag_99:\n        /* \"contracts/026_SmartContractWallet.sol\":4614:4624  returnData */\n      dup1\n        /* \"contracts/026_SmartContractWallet.sol\":4607:4624  return returnData */\n      swap3\n      pop\n      pop\n      pop\n        /* \"contracts/026_SmartContractWallet.sol\":3493:4681  function transfer(... */\n      swap4\n      swap3\n      pop\n      pop\n      pop\n      jump\t// out\n        /* \"#utility.yul\":7:82   */\n    tag_102:\n        /* \"#utility.yul\":40:46   */\n      0x00\n        /* \"#utility.yul\":73:75   */\n      0x40\n        /* \"#utility.yul\":67:76   */\n      mload\n        /* \"#utility.yul\":57:76   */\n      swap1\n      pop\n        /* \"#utility.yul\":7:82   */\n      swap1\n      jump\t// out\n        /* \"#utility.yul\":88:205   */\n    tag_103:\n        /* \"#utility.yul\":197:198   */\n      0x00\n        /* \"#utility.yul\":194:195   */\n      dup1\n        /* \"#utility.yul\":187:199   */\n      revert\n        /* \"#utility.yul\":211:328   */\n    tag_104:\n        /* \"#utility.yul\":320:321   */\n      0x00\n        /* \"#utility.yul\":317:318   */\n      dup1\n        /* \"#utility.yul\":310:322   */\n      revert\n        /* \"#utility.yul\":334:460   */\n    tag_105:\n        /* \"#utility.yul\":371:378   */\n      0x00\n        /* \"#utility.yul\":411:453   */\n      0xffffffffffffffffffffffffffffffffffffffff\n        /* \"#utility.yul\":404:409   */\n      dup3\n        /* \"#utility.yul\":400:454   */\n      and\n        /* \"#utility.yul\":389:454   */\n      swap1\n      pop\n        /* \"#utility.yul\":334:460   */\n      swap2\n      swap1\n      pop\n      jump\t// out\n        /* \"#utility.yul\":466:562   */\n    tag_106:\n        /* \"#utility.yul\":503:510   */\n      0x00\n        /* \"#utility.yul\":532:556   */\n      tag_157\n        /* \"#utility.yul\":550:555   */\n      dup3\n        /* \"#utility.yul\":532:556   */\n      tag_105\n      jump\t// in\n    tag_157:\n        /* \"#utility.yul\":521:556   */\n      swap1\n      pop\n        /* \"#utility.yul\":466:562   */\n      swap2\n      swap1\n      pop\n      jump\t// out\n        /* \"#utility.yul\":568:690   */\n    tag_107:\n        /* \"#utility.yul\":641:665   */\n      tag_159\n        /* \"#utility.yul\":659:664   */\n      dup2\n        /* \"#utility.yul\":641:665   */\n      tag_106\n      jump\t// in\n    tag_159:\n        /* \"#utility.yul\":634:639   */\n      dup2\n        /* \"#utility.yul\":631:666   */\n      eq\n        /* \"#utility.yul\":621:684   */\n      tag_160\n      jumpi\n        /* \"#utility.yul\":680:681   */\n      0x00\n        /* \"#utility.yul\":677:678   */\n      dup1\n        /* \"#utility.yul\":670:682   */\n      revert\n        /* \"#utility.yul\":621:684   */\n    tag_160:\n        /* \"#utility.yul\":568:690   */\n      pop\n      jump\t// out\n        /* \"#utility.yul\":696:835   */\n    tag_108:\n        /* \"#utility.yul\":742:747   */\n      0x00\n        /* \"#utility.yul\":780:786   */\n      dup2\n        /* \"#utility.yul\":767:787   */\n      calldataload\n        /* \"#utility.yul\":758:787   */\n      swap1\n      pop\n        /* \"#utility.yul\":796:829   */\n      tag_162\n        /* \"#utility.yul\":823:828   */\n      dup2\n        /* \"#utility.yul\":796:829   */\n      tag_107\n      jump\t// in\n    tag_162:\n        /* \"#utility.yul\":696:835   */\n      swap3\n      swap2\n      pop\n      pop\n      jump\t// out\n        /* \"#utility.yul\":841:1170   */\n    tag_18:\n        /* \"#utility.yul\":900:906   */\n      0x00\n        /* \"#utility.yul\":949:951   */\n      0x20\n        /* \"#utility.yul\":937:946   */\n      dup3\n        /* \"#utility.yul\":928:935   */\n      dup5\n        /* \"#utility.yul\":924:947   */\n      sub\n        /* \"#utility.yul\":920:952   */\n      slt\n        /* \"#utility.yul\":917:1036   */\n      iszero\n      tag_164\n      jumpi\n        /* \"#utility.yul\":955:1034   */\n      tag_165\n      tag_103\n      jump\t// in\n    tag_165:\n        /* \"#utility.yul\":917:1036   */\n    tag_164:\n        /* \"#utility.yul\":1075:1076   */\n      0x00\n        /* \"#utility.yul\":1100:1153   */\n      tag_166\n        /* \"#utility.yul\":1145:1152   */\n      dup5\n        /* \"#utility.yul\":1136:1142   */\n      dup3\n        /* \"#utility.yul\":1125:1134   */\n      dup6\n        /* \"#utility.yul\":1121:1143   */\n      add\n        /* \"#utility.yul\":1100:1153   */\n      tag_108\n      jump\t// in\n    tag_166:\n        /* \"#utility.yul\":1090:1153   */\n      swap2\n      pop\n        /* \"#utility.yul\":1046:1163   */\n      pop\n        /* \"#utility.yul\":841:1170   */\n      swap3\n      swap2\n      pop\n      pop\n      jump\t// out\n        /* \"#utility.yul\":1176:1266   */\n    tag_109:\n        /* \"#utility.yul\":1210:1217   */\n      0x00\n        /* \"#utility.yul\":1253:1258   */\n      dup2\n        /* \"#utility.yul\":1246:1259   */\n      iszero\n        /* \"#utility.yul\":1239:1260   */\n      iszero\n        /* \"#utility.yul\":1228:1260   */\n      swap1\n      pop\n        /* \"#utility.yul\":1176:1266   */\n      swap2\n      swap1\n      pop\n      jump\t// out\n        /* \"#utility.yul\":1272:1381   */\n    tag_110:\n        /* \"#utility.yul\":1353:1374   */\n      tag_169\n        /* \"#utility.yul\":1368:1373   */\n      dup2\n        /* \"#utility.yul\":1353:1374   */\n      tag_109\n      jump\t// in\n    tag_169:\n        /* \"#utility.yul\":1348:1351   */\n      dup3\n        /* \"#utility.yul\":1341:1375   */\n      mstore\n        /* \"#utility.yul\":1272:1381   */\n      pop\n      pop\n      jump\t// out\n        /* \"#utility.yul\":1387:1597   */\n    tag_21:\n        /* \"#utility.yul\":1474:1478   */\n      0x00\n        /* \"#utility.yul\":1512:1514   */\n      0x20\n        /* \"#utility.yul\":1501:1510   */\n      dup3\n        /* \"#utility.yul\":1497:1515   */\n      add\n        /* \"#utility.yul\":1489:1515   */\n      swap1\n      pop\n        /* \"#utility.yul\":1525:1590   */\n      tag_171\n        /* \"#utility.yul\":1587:1588   */\n      0x00\n        /* \"#utility.yul\":1576:1585   */\n      dup4\n        /* \"#utility.yul\":1572:1589   */\n      add\n        /* \"#utility.yul\":1563:1569   */\n      dup5\n        /* \"#utility.yul\":1525:1590   */\n      tag_110\n      jump\t// in\n    tag_171:\n        /* \"#utility.yul\":1387:1597   */\n      swap3\n      swap2\n      pop\n      pop\n      jump\t// out\n        /* \"#utility.yul\":1603:1719   */\n    tag_111:\n        /* \"#utility.yul\":1673:1694   */\n      tag_173\n        /* \"#utility.yul\":1688:1693   */\n      dup2\n        /* \"#utility.yul\":1673:1694   */\n      tag_109\n      jump\t// in\n    tag_173:\n        /* \"#utility.yul\":1666:1671   */\n      dup2\n        /* \"#utility.yul\":1663:1695   */\n      eq\n        /* \"#utility.yul\":1653:1713   */\n      tag_174\n      jumpi\n        /* \"#utility.yul\":1709:1710   */\n      0x00\n        /* \"#utility.yul\":1706:1707   */\n      dup1\n        /* \"#utility.yul\":1699:1711   */\n      revert\n        /* \"#utility.yul\":1653:1713   */\n    tag_174:\n        /* \"#utility.yul\":1603:1719   */\n      pop\n      jump\t// out\n        /* \"#utility.yul\":1725:1858   */\n    tag_112:\n        /* \"#utility.yul\":1768:1773   */\n      0x00\n        /* \"#utility.yul\":1806:1812   */\n      dup2\n        /* \"#utility.yul\":1793:1813   */\n      calldataload\n        /* \"#utility.yul\":1784:1813   */\n      swap1\n      pop\n        /* \"#utility.yul\":1822:1852   */\n      tag_176\n        /* \"#utility.yul\":1846:1851   */\n      dup2\n        /* \"#utility.yul\":1822:1852   */\n      tag_111\n      jump\t// in\n    tag_176:\n        /* \"#utility.yul\":1725:1858   */\n      swap3\n      swap2\n      pop\n      pop\n      jump\t// out\n        /* \"#utility.yul\":1864:2332   */\n    tag_30:\n        /* \"#utility.yul\":1929:1935   */\n      0x00\n        /* \"#utility.yul\":1937:1943   */\n      dup1\n        /* \"#utility.yul\":1986:1988   */\n      0x40\n        /* \"#utility.yul\":1974:1983   */\n      dup4\n        /* \"#utility.yul\":1965:1972   */\n      dup6\n        /* \"#utility.yul\":1961:1984   */\n      sub\n        /* \"#utility.yul\":1957:1989   */\n      slt\n        /* \"#utility.yul\":1954:2073   */\n      iszero\n      tag_178\n      jumpi\n        /* \"#utility.yul\":1992:2071   */\n      tag_179\n      tag_103\n      jump\t// in\n    tag_179:\n        /* \"#utility.yul\":1954:2073   */\n    tag_178:\n        /* \"#utility.yul\":2112:2113   */\n      0x00\n        /* \"#utility.yul\":2137:2190   */\n      tag_180\n        /* \"#utility.yul\":2182:2189   */\n      dup6\n        /* \"#utility.yul\":2173:2179   */\n      dup3\n        /* \"#utility.yul\":2162:2171   */\n      dup7\n        /* \"#utility.yul\":2158:2180   */\n      add\n        /* \"#utility.yul\":2137:2190   */\n      tag_108\n      jump\t// in\n    tag_180:\n        /* \"#utility.yul\":2127:2190   */\n      swap3\n      pop\n        /* \"#utility.yul\":2083:2200   */\n      pop\n        /* \"#utility.yul\":2239:2241   */\n      0x20\n        /* \"#utility.yul\":2265:2315   */\n      tag_181\n        /* \"#utility.yul\":2307:2314   */\n      dup6\n        /* \"#utility.yul\":2298:2304   */\n      dup3\n        /* \"#utility.yul\":2287:2296   */\n      dup7\n        /* \"#utility.yul\":2283:2305   */\n      add\n        /* \"#utility.yul\":2265:2315   */\n      tag_112\n      jump\t// in\n    tag_181:\n        /* \"#utility.yul\":2255:2315   */\n      swap2\n      pop\n        /* \"#utility.yul\":2210:2325   */\n      pop\n        /* \"#utility.yul\":1864:2332   */\n      swap3\n      pop\n      swap3\n      swap1\n      pop\n      jump\t// out\n        /* \"#utility.yul\":2338:2415   */\n    tag_113:\n        /* \"#utility.yul\":2375:2382   */\n      0x00\n        /* \"#utility.yul\":2404:2409   */\n      dup2\n        /* \"#utility.yul\":2393:2409   */\n      swap1\n      pop\n        /* \"#utility.yul\":2338:2415   */\n      swap2\n      swap1\n      pop\n      jump\t// out\n        /* \"#utility.yul\":2421:2543   */\n    tag_114:\n        /* \"#utility.yul\":2494:2518   */\n      tag_184\n        /* \"#utility.yul\":2512:2517   */\n      dup2\n        /* \"#utility.yul\":2494:2518   */\n      tag_113\n      jump\t// in\n    tag_184:\n        /* \"#utility.yul\":2487:2492   */\n      dup2\n        /* \"#utility.yul\":2484:2519   */\n      eq\n        /* \"#utility.yul\":2474:2537   */\n      tag_185\n      jumpi\n        /* \"#utility.yul\":2533:2534   */\n      0x00\n        /* \"#utility.yul\":2530:2531   */\n      dup1\n        /* \"#utility.yul\":2523:2535   */\n      revert\n        /* \"#utility.yul\":2474:2537   */\n    tag_185:\n        /* \"#utility.yul\":2421:2543   */\n      pop\n      jump\t// out\n        /* \"#utility.yul\":2549:2688   */\n    tag_115:\n        /* \"#utility.yul\":2595:2600   */\n      0x00\n        /* \"#utility.yul\":2633:2639   */\n      dup2\n        /* \"#utility.yul\":2620:2640   */\n      calldataload\n        /* \"#utility.yul\":2611:2640   */\n      swap1\n      pop\n        /* \"#utility.yul\":2649:2682   */\n      tag_187\n        /* \"#utility.yul\":2676:2681   */\n      dup2\n        /* \"#utility.yul\":2649:2682   */\n      tag_114\n      jump\t// in\n    tag_187:\n        /* \"#utility.yul\":2549:2688   */\n      swap3\n      swap2\n      pop\n      pop\n      jump\t// out\n        /* \"#utility.yul\":2694:3168   */\n    tag_35:\n        /* \"#utility.yul\":2762:2768   */\n      0x00\n        /* \"#utility.yul\":2770:2776   */\n      dup1\n        /* \"#utility.yul\":2819:2821   */\n      0x40\n        /* \"#utility.yul\":2807:2816   */\n      dup4\n        /* \"#utility.yul\":2798:2805   */\n      dup6\n        /* \"#utility.yul\":2794:2817   */\n      sub\n        /* \"#utility.yul\":2790:2822   */\n      slt\n        /* \"#utility.yul\":2787:2906   */\n      iszero\n      tag_189\n      jumpi\n        /* \"#utility.yul\":2825:2904   */\n      tag_190\n      tag_103\n      jump\t// in\n    tag_190:\n        /* \"#utility.yul\":2787:2906   */\n    tag_189:\n        /* \"#utility.yul\":2945:2946   */\n      0x00\n        /* \"#utility.yul\":2970:3023   */\n      tag_191\n        /* \"#utility.yul\":3015:3022   */\n      dup6\n        /* \"#utility.yul\":3006:3012   */\n      dup3\n        /* \"#utility.yul\":2995:3004   */\n      dup7\n        /* \"#utility.yul\":2991:3013   */\n      add\n        /* \"#utility.yul\":2970:3023   */\n      tag_108\n      jump\t// in\n    tag_191:\n        /* \"#utility.yul\":2960:3023   */\n      swap3\n      pop\n        /* \"#utility.yul\":2916:3033   */\n      pop\n        /* \"#utility.yul\":3072:3074   */\n      0x20\n        /* \"#utility.yul\":3098:3151   */\n      tag_192\n        /* \"#utility.yul\":3143:3150   */\n      dup6\n        /* \"#utility.yul\":3134:3140   */\n      dup3\n        /* \"#utility.yul\":3123:3132   */\n      dup7\n        /* \"#utility.yul\":3119:3141   */\n      add\n        /* \"#utility.yul\":3098:3151   */\n      tag_115\n      jump\t// in\n    tag_192:\n        /* \"#utility.yul\":3088:3151   */\n      swap2\n      pop\n        /* \"#utility.yul\":3043:3161   */\n      pop\n        /* \"#utility.yul\":2694:3168   */\n      swap3\n      pop\n      swap3\n      swap1\n      pop\n      jump\t// out\n        /* \"#utility.yul\":3174:3292   */\n    tag_116:\n        /* \"#utility.yul\":3261:3285   */\n      tag_194\n        /* \"#utility.yul\":3279:3284   */\n      dup2\n        /* \"#utility.yul\":3261:3285   */\n      tag_113\n      jump\t// in\n    tag_194:\n        /* \"#utility.yul\":3256:3259   */\n      dup3\n        /* \"#utility.yul\":3249:3286   */\n      mstore\n        /* \"#utility.yul\":3174:3292   */\n      pop\n      pop\n      jump\t// out\n        /* \"#utility.yul\":3298:3520   */\n    tag_42:\n        /* \"#utility.yul\":3391:3395   */\n      0x00\n        /* \"#utility.yul\":3429:3431   */\n      0x20\n        /* \"#utility.yul\":3418:3427   */\n      dup3\n        /* \"#utility.yul\":3414:3432   */\n      add\n        /* \"#utility.yul\":3406:3432   */\n      swap1\n      pop\n        /* \"#utility.yul\":3442:3513   */\n      tag_196\n        /* \"#utility.yul\":3510:3511   */\n      0x00\n        /* \"#utility.yul\":3499:3508   */\n      dup4\n        /* \"#utility.yul\":3495:3512   */\n      add\n        /* \"#utility.yul\":3486:3492   */\n      dup5\n        /* \"#utility.yul\":3442:3513   */\n      tag_116\n      jump\t// in\n    tag_196:\n        /* \"#utility.yul\":3298:3520   */\n      swap3\n      swap2\n      pop\n      pop\n      jump\t// out\n        /* \"#utility.yul\":3526:3630   */\n    tag_117:\n        /* \"#utility.yul\":3571:3578   */\n      0x00\n        /* \"#utility.yul\":3600:3624   */\n      tag_198\n        /* \"#utility.yul\":3618:3623   */\n      dup3\n        /* \"#utility.yul\":3600:3624   */\n      tag_105\n      jump\t// in\n    tag_198:\n        /* \"#utility.yul\":3589:3624   */\n      swap1\n      pop\n        /* \"#utility.yul\":3526:3630   */\n      swap2\n      swap1\n      pop\n      jump\t// out\n        /* \"#utility.yul\":3636:3778   */\n    tag_118:\n        /* \"#utility.yul\":3739:3771   */\n      tag_200\n        /* \"#utility.yul\":3765:3770   */\n      dup2\n        /* \"#utility.yul\":3739:3771   */\n      tag_117\n      jump\t// in\n    tag_200:\n        /* \"#utility.yul\":3734:3737   */\n      dup3\n        /* \"#utility.yul\":3727:3772   */\n      mstore\n        /* \"#utility.yul\":3636:3778   */\n      pop\n      pop\n      jump\t// out\n        /* \"#utility.yul\":3784:4038   */\n    tag_51:\n        /* \"#utility.yul\":3893:3897   */\n      0x00\n        /* \"#utility.yul\":3931:3933   */\n      0x20\n        /* \"#utility.yul\":3920:3929   */\n      dup3\n        /* \"#utility.yul\":3916:3934   */\n      add\n        /* \"#utility.yul\":3908:3934   */\n      swap1\n      pop\n        /* \"#utility.yul\":3944:4031   */\n      tag_202\n        /* \"#utility.yul\":4028:4029   */\n      0x00\n        /* \"#utility.yul\":4017:4026   */\n      dup4\n        /* \"#utility.yul\":4013:4030   */\n      add\n        /* \"#utility.yul\":4004:4010   */\n      dup5\n        /* \"#utility.yul\":3944:4031   */\n      tag_118\n      jump\t// in\n    tag_202:\n        /* \"#utility.yul\":3784:4038   */\n      swap3\n      swap2\n      pop\n      pop\n      jump\t// out\n        /* \"#utility.yul\":4044:4182   */\n    tag_119:\n        /* \"#utility.yul\":4125:4157   */\n      tag_204\n        /* \"#utility.yul\":4151:4156   */\n      dup2\n        /* \"#utility.yul\":4125:4157   */\n      tag_117\n      jump\t// in\n    tag_204:\n        /* \"#utility.yul\":4118:4123   */\n      dup2\n        /* \"#utility.yul\":4115:4158   */\n      eq\n        /* \"#utility.yul\":4105:4176   */\n      tag_205\n      jumpi\n        /* \"#utility.yul\":4172:4173   */\n      0x00\n        /* \"#utility.yul\":4169:4170   */\n      dup1\n        /* \"#utility.yul\":4162:4174   */\n      revert\n        /* \"#utility.yul\":4105:4176   */\n    tag_205:\n        /* \"#utility.yul\":4044:4182   */\n      pop\n      jump\t// out\n        /* \"#utility.yul\":4188:4343   */\n    tag_120:\n        /* \"#utility.yul\":4242:4247   */\n      0x00\n        /* \"#utility.yul\":4280:4286   */\n      dup2\n        /* \"#utility.yul\":4267:4287   */\n      calldataload\n        /* \"#utility.yul\":4258:4287   */\n      swap1\n      pop\n        /* \"#utility.yul\":4296:4337   */\n      tag_207\n        /* \"#utility.yul\":4331:4336   */\n      dup2\n        /* \"#utility.yul\":4296:4337   */\n      tag_119\n      jump\t// in\n    tag_207:\n        /* \"#utility.yul\":4188:4343   */\n      swap3\n      swap2\n      pop\n      pop\n      jump\t// out\n        /* \"#utility.yul\":4349:4694   */\n    tag_55:\n        /* \"#utility.yul\":4416:4422   */\n      0x00\n        /* \"#utility.yul\":4465:4467   */\n      0x20\n        /* \"#utility.yul\":4453:4462   */\n      dup3\n        /* \"#utility.yul\":4444:4451   */\n      dup5\n        /* \"#utility.yul\":4440:4463   */\n      sub\n        /* \"#utility.yul\":4436:4468   */\n      slt\n        /* \"#utility.yul\":4433:4552   */\n      iszero\n      tag_209\n      jumpi\n        /* \"#utility.yul\":4471:4550   */\n      tag_210\n      tag_103\n      jump\t// in\n    tag_210:\n        /* \"#utility.yul\":4433:4552   */\n    tag_209:\n        /* \"#utility.yul\":4591:4592   */\n      0x00\n        /* \"#utility.yul\":4616:4677   */\n      tag_211\n        /* \"#utility.yul\":4669:4676   */\n      dup5\n        /* \"#utility.yul\":4660:4666   */\n      dup3\n        /* \"#utility.yul\":4649:4658   */\n      dup6\n        /* \"#utility.yul\":4645:4667   */\n      add\n        /* \"#utility.yul\":4616:4677   */\n      tag_120\n      jump\t// in\n    tag_211:\n        /* \"#utility.yul\":4606:4677   */\n      swap2\n      pop\n        /* \"#utility.yul\":4562:4687   */\n      pop\n        /* \"#utility.yul\":4349:4694   */\n      swap3\n      swap2\n      pop\n      pop\n      jump\t// out\n        /* \"#utility.yul\":4700:4817   */\n    tag_121:\n        /* \"#utility.yul\":4809:4810   */\n      0x00\n        /* \"#utility.yul\":4806:4807   */\n      dup1\n        /* \"#utility.yul\":4799:4811   */\n      revert\n        /* \"#utility.yul\":4823:4940   */\n    tag_122:\n        /* \"#utility.yul\":4932:4933   */\n      0x00\n        /* \"#utility.yul\":4929:4930   */\n      dup1\n        /* \"#utility.yul\":4922:4934   */\n      revert\n        /* \"#utility.yul\":4946:5048   */\n    tag_123:\n        /* \"#utility.yul\":4987:4993   */\n      0x00\n        /* \"#utility.yul\":5038:5040   */\n      0x1f\n        /* \"#utility.yul\":5034:5041   */\n      not\n        /* \"#utility.yul\":5029:5031   */\n      0x1f\n        /* \"#utility.yul\":5022:5027   */\n      dup4\n        /* \"#utility.yul\":5018:5032   */\n      add\n        /* \"#utility.yul\":5014:5042   */\n      and\n        /* \"#utility.yul\":5004:5042   */\n      swap1\n      pop\n        /* \"#utility.yul\":4946:5048   */\n      swap2\n      swap1\n      pop\n      jump\t// out\n        /* \"#utility.yul\":5054:5234   */\n    tag_124:\n        /* \"#utility.yul\":5102:5179   */\n      0x4e487b7100000000000000000000000000000000000000000000000000000000\n        /* \"#utility.yul\":5099:5100   */\n      0x00\n        /* \"#utility.yul\":5092:5180   */\n      mstore\n        /* \"#utility.yul\":5199:5203   */\n      0x41\n        /* \"#utility.yul\":5196:5197   */\n      0x04\n        /* \"#utility.yul\":5189:5204   */\n      mstore\n        /* \"#utility.yul\":5223:5227   */\n      0x24\n        /* \"#utility.yul\":5220:5221   */\n      0x00\n        /* \"#utility.yul\":5213:5228   */\n      revert\n        /* \"#utility.yul\":5240:5521   */\n    tag_125:\n        /* \"#utility.yul\":5323:5350   */\n      tag_217\n        /* \"#utility.yul\":5345:5349   */\n      dup3\n        /* \"#utility.yul\":5323:5350   */\n      tag_123\n      jump\t// in\n    tag_217:\n        /* \"#utility.yul\":5315:5321   */\n      dup2\n        /* \"#utility.yul\":5311:5351   */\n      add\n        /* \"#utility.yul\":5453:5459   */\n      dup2\n        /* \"#utility.yul\":5441:5451   */\n      dup2\n        /* \"#utility.yul\":5438:5460   */\n      lt\n        /* \"#utility.yul\":5417:5435   */\n      0xffffffffffffffff\n        /* \"#utility.yul\":5405:5415   */\n      dup3\n        /* \"#utility.yul\":5402:5436   */\n      gt\n        /* \"#utility.yul\":5399:5461   */\n      or\n        /* \"#utility.yul\":5396:5484   */\n      iszero\n      tag_218\n      jumpi\n        /* \"#utility.yul\":5464:5482   */\n      tag_219\n      tag_124\n      jump\t// in\n    tag_219:\n        /* \"#utility.yul\":5396:5484   */\n    tag_218:\n        /* \"#utility.yul\":5504:5514   */\n      dup1\n        /* \"#utility.yul\":5500:5502   */\n      0x40\n        /* \"#utility.yul\":5493:5515   */\n      mstore\n        /* \"#utility.yul\":5283:5521   */\n      pop\n        /* \"#utility.yul\":5240:5521   */\n      pop\n      pop\n      jump\t// out\n        /* \"#utility.yul\":5527:5656   */\n    tag_126:\n        /* \"#utility.yul\":5561:5567   */\n      0x00\n        /* \"#utility.yul\":5588:5608   */\n      tag_221\n      tag_102\n      jump\t// in\n    tag_221:\n        /* \"#utility.yul\":5578:5608   */\n      swap1\n      pop\n        /* \"#utility.yul\":5617:5650   */\n      tag_222\n        /* \"#utility.yul\":5645:5649   */\n      dup3\n        /* \"#utility.yul\":5637:5643   */\n      dup3\n        /* \"#utility.yul\":5617:5650   */\n      tag_125\n      jump\t// in\n    tag_222:\n        /* \"#utility.yul\":5527:5656   */\n      swap2\n      swap1\n      pop\n      jump\t// out\n        /* \"#utility.yul\":5662:5969   */\n    tag_127:\n        /* \"#utility.yul\":5723:5727   */\n      0x00\n        /* \"#utility.yul\":5813:5831   */\n      0xffffffffffffffff\n        /* \"#utility.yul\":5805:5811   */\n      dup3\n        /* \"#utility.yul\":5802:5832   */\n      gt\n        /* \"#utility.yul\":5799:5855   */\n      iszero\n      tag_224\n      jumpi\n        /* \"#utility.yul\":5835:5853   */\n      tag_225\n      tag_124\n      jump\t// in\n    tag_225:\n        /* \"#utility.yul\":5799:5855   */\n    tag_224:\n        /* \"#utility.yul\":5873:5902   */\n      tag_226\n        /* \"#utility.yul\":5895:5901   */\n      dup3\n        /* \"#utility.yul\":5873:5902   */\n      tag_123\n      jump\t// in\n    tag_226:\n        /* \"#utility.yul\":5865:5902   */\n      swap1\n      pop\n        /* \"#utility.yul\":5957:5961   */\n      0x20\n        /* \"#utility.yul\":5951:5955   */\n      dup2\n        /* \"#utility.yul\":5947:5962   */\n      add\n        /* \"#utility.yul\":5939:5962   */\n      swap1\n      pop\n        /* \"#utility.yul\":5662:5969   */\n      swap2\n      swap1\n      pop\n      jump\t// out\n        /* \"#utility.yul\":5975:6123   */\n    tag_128:\n        /* \"#utility.yul\":6073:6079   */\n      dup3\n        /* \"#utility.yul\":6068:6071   */\n      dup2\n        /* \"#utility.yul\":6063:6066   */\n      dup4\n        /* \"#utility.yul\":6050:6080   */\n      calldatacopy\n        /* \"#utility.yul\":6114:6115   */\n      0x00\n        /* \"#utility.yul\":6105:6111   */\n      dup4\n        /* \"#utility.yul\":6100:6103   */\n      dup4\n        /* \"#utility.yul\":6096:6112   */\n      add\n        /* \"#utility.yul\":6089:6116   */\n      mstore\n        /* \"#utility.yul\":5975:6123   */\n      pop\n      pop\n      pop\n      jump\t// out\n        /* \"#utility.yul\":6129:6552   */\n    tag_129:\n        /* \"#utility.yul\":6206:6211   */\n      0x00\n        /* \"#utility.yul\":6231:6296   */\n      tag_229\n        /* \"#utility.yul\":6247:6295   */\n      tag_230\n        /* \"#utility.yul\":6288:6294   */\n      dup5\n        /* \"#utility.yul\":6247:6295   */\n      tag_127\n      jump\t// in\n    tag_230:\n        /* \"#utility.yul\":6231:6296   */\n      tag_126\n      jump\t// in\n    tag_229:\n        /* \"#utility.yul\":6222:6296   */\n      swap1\n      pop\n        /* \"#utility.yul\":6319:6325   */\n      dup3\n        /* \"#utility.yul\":6312:6317   */\n      dup2\n        /* \"#utility.yul\":6305:6326   */\n      mstore\n        /* \"#utility.yul\":6357:6361   */\n      0x20\n        /* \"#utility.yul\":6350:6355   */\n      dup2\n        /* \"#utility.yul\":6346:6362   */\n      add\n        /* \"#utility.yul\":6395:6398   */\n      dup5\n        /* \"#utility.yul\":6386:6392   */\n      dup5\n        /* \"#utility.yul\":6381:6384   */\n      dup5\n        /* \"#utility.yul\":6377:6393   */\n      add\n        /* \"#utility.yul\":6374:6399   */\n      gt\n        /* \"#utility.yul\":6371:6483   */\n      iszero\n      tag_231\n      jumpi\n        /* \"#utility.yul\":6402:6481   */\n      tag_232\n      tag_122\n      jump\t// in\n    tag_232:\n        /* \"#utility.yul\":6371:6483   */\n    tag_231:\n        /* \"#utility.yul\":6492:6546   */\n      tag_233\n        /* \"#utility.yul\":6539:6545   */\n      dup5\n        /* \"#utility.yul\":6534:6537   */\n      dup3\n        /* \"#utility.yul\":6529:6532   */\n      dup6\n        /* \"#utility.yul\":6492:6546   */\n      tag_128\n      jump\t// in\n    tag_233:\n        /* \"#utility.yul\":6212:6552   */\n      pop\n        /* \"#utility.yul\":6129:6552   */\n      swap4\n      swap3\n      pop\n      pop\n      pop\n      jump\t// out\n        /* \"#utility.yul\":6571:6909   */\n    tag_130:\n        /* \"#utility.yul\":6626:6631   */\n      0x00\n        /* \"#utility.yul\":6675:6678   */\n      dup3\n        /* \"#utility.yul\":6668:6672   */\n      0x1f\n        /* \"#utility.yul\":6660:6666   */\n      dup4\n        /* \"#utility.yul\":6656:6673   */\n      add\n        /* \"#utility.yul\":6652:6679   */\n      slt\n        /* \"#utility.yul\":6642:6764   */\n      tag_235\n      jumpi\n        /* \"#utility.yul\":6683:6762   */\n      tag_236\n      tag_121\n      jump\t// in\n    tag_236:\n        /* \"#utility.yul\":6642:6764   */\n    tag_235:\n        /* \"#utility.yul\":6800:6806   */\n      dup2\n        /* \"#utility.yul\":6787:6807   */\n      calldataload\n        /* \"#utility.yul\":6825:6903   */\n      tag_237\n        /* \"#utility.yul\":6899:6902   */\n      dup5\n        /* \"#utility.yul\":6891:6897   */\n      dup3\n        /* \"#utility.yul\":6884:6888   */\n      0x20\n        /* \"#utility.yul\":6876:6882   */\n      dup7\n        /* \"#utility.yul\":6872:6889   */\n      add\n        /* \"#utility.yul\":6825:6903   */\n      tag_129\n      jump\t// in\n    tag_237:\n        /* \"#utility.yul\":6816:6903   */\n      swap2\n      pop\n        /* \"#utility.yul\":6632:6909   */\n      pop\n        /* \"#utility.yul\":6571:6909   */\n      swap3\n      swap2\n      pop\n      pop\n      jump\t// out\n        /* \"#utility.yul\":6915:7728   */\n    tag_60:\n        /* \"#utility.yul\":7009:7015   */\n      0x00\n        /* \"#utility.yul\":7017:7023   */\n      dup1\n        /* \"#utility.yul\":7025:7031   */\n      0x00\n        /* \"#utility.yul\":7074:7076   */\n      0x60\n        /* \"#utility.yul\":7062:7071   */\n      dup5\n        /* \"#utility.yul\":7053:7060   */\n      dup7\n        /* \"#utility.yul\":7049:7072   */\n      sub\n        /* \"#utility.yul\":7045:7077   */\n      slt\n        /* \"#utility.yul\":7042:7161   */\n      iszero\n      tag_239\n      jumpi\n        /* \"#utility.yul\":7080:7159   */\n      tag_240\n      tag_103\n      jump\t// in\n    tag_240:\n        /* \"#utility.yul\":7042:7161   */\n    tag_239:\n        /* \"#utility.yul\":7200:7201   */\n      0x00\n        /* \"#utility.yul\":7225:7286   */\n      tag_241\n        /* \"#utility.yul\":7278:7285   */\n      dup7\n        /* \"#utility.yul\":7269:7275   */\n      dup3\n        /* \"#utility.yul\":7258:7267   */\n      dup8\n        /* \"#utility.yul\":7254:7276   */\n      add\n        /* \"#utility.yul\":7225:7286   */\n      tag_120\n      jump\t// in\n    tag_241:\n        /* \"#utility.yul\":7215:7286   */\n      swap4\n      pop\n        /* \"#utility.yul\":7171:7296   */\n      pop\n        /* \"#utility.yul\":7335:7337   */\n      0x20\n        /* \"#utility.yul\":7361:7414   */\n      tag_242\n        /* \"#utility.yul\":7406:7413   */\n      dup7\n        /* \"#utility.yul\":7397:7403   */\n      dup3\n        /* \"#utility.yul\":7386:7395   */\n      dup8\n        /* \"#utility.yul\":7382:7404   */\n      add\n        /* \"#utility.yul\":7361:7414   */\n      tag_115\n      jump\t// in\n    tag_242:\n        /* \"#utility.yul\":7351:7414   */\n      swap3\n      pop\n        /* \"#utility.yul\":7306:7424   */\n      pop\n        /* \"#utility.yul\":7491:7493   */\n      0x40\n        /* \"#utility.yul\":7480:7489   */\n      dup5\n        /* \"#utility.yul\":7476:7494   */\n      add\n        /* \"#utility.yul\":7463:7495   */\n      calldataload\n        /* \"#utility.yul\":7522:7540   */\n      0xffffffffffffffff\n        /* \"#utility.yul\":7514:7520   */\n      dup2\n        /* \"#utility.yul\":7511:7541   */\n      gt\n        /* \"#utility.yul\":7508:7625   */\n      iszero\n      tag_243\n      jumpi\n        /* \"#utility.yul\":7544:7623   */\n      tag_244\n      tag_104\n      jump\t// in\n    tag_244:\n        /* \"#utility.yul\":7508:7625   */\n    tag_243:\n        /* \"#utility.yul\":7649:7711   */\n      tag_245\n        /* \"#utility.yul\":7703:7710   */\n      dup7\n        /* \"#utility.yul\":7694:7700   */\n      dup3\n        /* \"#utility.yul\":7683:7692   */\n      dup8\n        /* \"#utility.yul\":7679:7701   */\n      add\n        /* \"#utility.yul\":7649:7711   */\n      tag_130\n      jump\t// in\n    tag_245:\n        /* \"#utility.yul\":7639:7711   */\n      swap2\n      pop\n        /* \"#utility.yul\":7434:7721   */\n      pop\n        /* \"#utility.yul\":6915:7728   */\n      swap3\n      pop\n      swap3\n      pop\n      swap3\n      jump\t// out\n        /* \"#utility.yul\":7734:7832   */\n    tag_131:\n        /* \"#utility.yul\":7785:7791   */\n      0x00\n        /* \"#utility.yul\":7819:7824   */\n      dup2\n        /* \"#utility.yul\":7813:7825   */\n      mload\n        /* \"#utility.yul\":7803:7825   */\n      swap1\n      pop\n        /* \"#utility.yul\":7734:7832   */\n      swap2\n      swap1\n      pop\n      jump\t// out\n        /* \"#utility.yul\":7838:8006   */\n    tag_132:\n        /* \"#utility.yul\":7921:7932   */\n      0x00\n        /* \"#utility.yul\":7955:7961   */\n      dup3\n        /* \"#utility.yul\":7950:7953   */\n      dup3\n        /* \"#utility.yul\":7943:7962   */\n      mstore\n        /* \"#utility.yul\":7995:7999   */\n      0x20\n        /* \"#utility.yul\":7990:7993   */\n      dup3\n        /* \"#utility.yul\":7986:8000   */\n      add\n        /* \"#utility.yul\":7971:8000   */\n      swap1\n      pop\n        /* \"#utility.yul\":7838:8006   */\n      swap3\n      swap2\n      pop\n      pop\n      jump\t// out\n        /* \"#utility.yul\":8012:8151   */\n    tag_133:\n        /* \"#utility.yul\":8101:8107   */\n      dup3\n        /* \"#utility.yul\":8096:8099   */\n      dup2\n        /* \"#utility.yul\":8091:8094   */\n      dup4\n        /* \"#utility.yul\":8085:8108   */\n      mcopy\n        /* \"#utility.yul\":8142:8143   */\n      0x00\n        /* \"#utility.yul\":8133:8139   */\n      dup4\n        /* \"#utility.yul\":8128:8131   */\n      dup4\n        /* \"#utility.yul\":8124:8140   */\n      add\n        /* \"#utility.yul\":8117:8144   */\n      mstore\n        /* \"#utility.yul\":8012:8151   */\n      pop\n      pop\n      pop\n      jump\t// out\n        /* \"#utility.yul\":8157:8530   */\n    tag_134:\n        /* \"#utility.yul\":8243:8246   */\n      0x00\n        /* \"#utility.yul\":8271:8309   */\n      tag_250\n        /* \"#utility.yul\":8303:8308   */\n      dup3\n        /* \"#utility.yul\":8271:8309   */\n      tag_131\n      jump\t// in\n    tag_250:\n        /* \"#utility.yul\":8325:8395   */\n      tag_251\n        /* \"#utility.yul\":8388:8394   */\n      dup2\n        /* \"#utility.yul\":8383:8386   */\n      dup6\n        /* \"#utility.yul\":8325:8395   */\n      tag_132\n      jump\t// in\n    tag_251:\n        /* \"#utility.yul\":8318:8395   */\n      swap4\n      pop\n        /* \"#utility.yul\":8404:8469   */\n      tag_252\n        /* \"#utility.yul\":8462:8468   */\n      dup2\n        /* \"#utility.yul\":8457:8460   */\n      dup6\n        /* \"#utility.yul\":8450:8454   */\n      0x20\n        /* \"#utility.yul\":8443:8448   */\n      dup7\n        /* \"#utility.yul\":8439:8455   */\n      add\n        /* \"#utility.yul\":8404:8469   */\n      tag_133\n      jump\t// in\n    tag_252:\n        /* \"#utility.yul\":8494:8523   */\n      tag_253\n        /* \"#utility.yul\":8516:8522   */\n      dup2\n        /* \"#utility.yul\":8494:8523   */\n      tag_123\n      jump\t// in\n    tag_253:\n        /* \"#utility.yul\":8489:8492   */\n      dup5\n        /* \"#utility.yul\":8485:8524   */\n      add\n        /* \"#utility.yul\":8478:8524   */\n      swap2\n      pop\n        /* \"#utility.yul\":8247:8530   */\n      pop\n        /* \"#utility.yul\":8157:8530   */\n      swap3\n      swap2\n      pop\n      pop\n      jump\t// out\n        /* \"#utility.yul\":8536:8845   */\n    tag_63:\n        /* \"#utility.yul\":8647:8651   */\n      0x00\n        /* \"#utility.yul\":8685:8687   */\n      0x20\n        /* \"#utility.yul\":8674:8683   */\n      dup3\n        /* \"#utility.yul\":8670:8688   */\n      add\n        /* \"#utility.yul\":8662:8688   */\n      swap1\n      pop\n        /* \"#utility.yul\":8734:8743   */\n      dup2\n        /* \"#utility.yul\":8728:8732   */\n      dup2\n        /* \"#utility.yul\":8724:8744   */\n      sub\n        /* \"#utility.yul\":8720:8721   */\n      0x00\n        /* \"#utility.yul\":8709:8718   */\n      dup4\n        /* \"#utility.yul\":8705:8722   */\n      add\n        /* \"#utility.yul\":8698:8745   */\n      mstore\n        /* \"#utility.yul\":8762:8838   */\n      tag_255\n        /* \"#utility.yul\":8833:8837   */\n      dup2\n        /* \"#utility.yul\":8824:8830   */\n      dup5\n        /* \"#utility.yul\":8762:8838   */\n      tag_134\n      jump\t// in\n    tag_255:\n        /* \"#utility.yul\":8754:8838   */\n      swap1\n      pop\n        /* \"#utility.yul\":8536:8845   */\n      swap3\n      swap2\n      pop\n      pop\n      jump\t// out\n        /* \"#utility.yul\":8851:9020   */\n    tag_135:\n        /* \"#utility.yul\":8935:8946   */\n      0x00\n        /* \"#utility.yul\":8969:8975   */\n      dup3\n        /* \"#utility.yul\":8964:8967   */\n      dup3\n        /* \"#utility.yul\":8957:8976   */\n      mstore\n        /* \"#utility.yul\":9009:9013   */\n      0x20\n        /* \"#utility.yul\":9004:9007   */\n      dup3\n        /* \"#utility.yul\":9000:9014   */\n      add\n        /* \"#utility.yul\":8985:9014   */\n      swap1\n      pop\n        /* \"#utility.yul\":8851:9020   */\n      swap3\n      swap2\n      pop\n      pop\n      jump\t// out\n        /* \"#utility.yul\":9026:9198   */\n    tag_136:\n        /* \"#utility.yul\":9166:9190   */\n      0x596f7520617265206e6f7420746865206f776e65722100000000000000000000\n        /* \"#utility.yul\":9162:9163   */\n      0x00\n        /* \"#utility.yul\":9154:9160   */\n      dup3\n        /* \"#utility.yul\":9150:9164   */\n      add\n        /* \"#utility.yul\":9143:9191   */\n      mstore\n        /* \"#utility.yul\":9026:9198   */\n      pop\n      jump\t// out\n        /* \"#utility.yul\":9204:9570   */\n    tag_137:\n        /* \"#utility.yul\":9346:9349   */\n      0x00\n        /* \"#utility.yul\":9367:9434   */\n      tag_259\n        /* \"#utility.yul\":9431:9433   */\n      0x16\n        /* \"#utility.yul\":9426:9429   */\n      dup4\n        /* \"#utility.yul\":9367:9434   */\n      tag_135\n      jump\t// in\n    tag_259:\n        /* \"#utility.yul\":9360:9434   */\n      swap2\n      pop\n        /* \"#utility.yul\":9443:9536   */\n      tag_260\n        /* \"#utility.yul\":9532:9535   */\n      dup3\n        /* \"#utility.yul\":9443:9536   */\n      tag_136\n      jump\t// in\n    tag_260:\n        /* \"#utility.yul\":9561:9563   */\n      0x20\n        /* \"#utility.yul\":9556:9559   */\n      dup3\n        /* \"#utility.yul\":9552:9564   */\n      add\n        /* \"#utility.yul\":9545:9564   */\n      swap1\n      pop\n        /* \"#utility.yul\":9204:9570   */\n      swap2\n      swap1\n      pop\n      jump\t// out\n        /* \"#utility.yul\":9576:9995   */\n    tag_67:\n        /* \"#utility.yul\":9742:9746   */\n      0x00\n        /* \"#utility.yul\":9780:9782   */\n      0x20\n        /* \"#utility.yul\":9769:9778   */\n      dup3\n        /* \"#utility.yul\":9765:9783   */\n      add\n        /* \"#utility.yul\":9757:9783   */\n      swap1\n      pop\n        /* \"#utility.yul\":9829:9838   */\n      dup2\n        /* \"#utility.yul\":9823:9827   */\n      dup2\n        /* \"#utility.yul\":9819:9839   */\n      sub\n        /* \"#utility.yul\":9815:9816   */\n      0x00\n        /* \"#utility.yul\":9804:9813   */\n      dup4\n        /* \"#utility.yul\":9800:9817   */\n      add\n        /* \"#utility.yul\":9793:9840   */\n      mstore\n        /* \"#utility.yul\":9857:9988   */\n      tag_262\n        /* \"#utility.yul\":9983:9987   */\n      dup2\n        /* \"#utility.yul\":9857:9988   */\n      tag_137\n      jump\t// in\n    tag_262:\n        /* \"#utility.yul\":9849:9988   */\n      swap1\n      pop\n        /* \"#utility.yul\":9576:9995   */\n      swap2\n      swap1\n      pop\n      jump\t// out\n        /* \"#utility.yul\":10001:10226   */\n    tag_138:\n        /* \"#utility.yul\":10141:10175   */\n      0x596f7520617265206e6f74206120677561726469616e206f6620746869732077\n        /* \"#utility.yul\":10137:10138   */\n      0x00\n        /* \"#utility.yul\":10129:10135   */\n      dup3\n        /* \"#utility.yul\":10125:10139   */\n      add\n        /* \"#utility.yul\":10118:10176   */\n      mstore\n        /* \"#utility.yul\":10210:10218   */\n      0x616c6c6574210000000000000000000000000000000000000000000000000000\n        /* \"#utility.yul\":10205:10207   */\n      0x20\n        /* \"#utility.yul\":10197:10203   */\n      dup3\n        /* \"#utility.yul\":10193:10208   */\n      add\n        /* \"#utility.yul\":10186:10219   */\n      mstore\n        /* \"#utility.yul\":10001:10226   */\n      pop\n      jump\t// out\n        /* \"#utility.yul\":10232:10598   */\n    tag_139:\n        /* \"#utility.yul\":10374:10377   */\n      0x00\n        /* \"#utility.yul\":10395:10462   */\n      tag_265\n        /* \"#utility.yul\":10459:10461   */\n      0x26\n        /* \"#utility.yul\":10454:10457   */\n      dup4\n        /* \"#utility.yul\":10395:10462   */\n      tag_135\n      jump\t// in\n    tag_265:\n        /* \"#utility.yul\":10388:10462   */\n      swap2\n      pop\n        /* \"#utility.yul\":10471:10564   */\n      tag_266\n        /* \"#utility.yul\":10560:10563   */\n      dup3\n        /* \"#utility.yul\":10471:10564   */\n      tag_138\n      jump\t// in\n    tag_266:\n        /* \"#utility.yul\":10589:10591   */\n      0x40\n        /* \"#utility.yul\":10584:10587   */\n      dup3\n        /* \"#utility.yul\":10580:10592   */\n      add\n        /* \"#utility.yul\":10573:10592   */\n      swap1\n      pop\n        /* \"#utility.yul\":10232:10598   */\n      swap2\n      swap1\n      pop\n      jump\t// out\n        /* \"#utility.yul\":10604:11023   */\n    tag_76:\n        /* \"#utility.yul\":10770:10774   */\n      0x00\n        /* \"#utility.yul\":10808:10810   */\n      0x20\n        /* \"#utility.yul\":10797:10806   */\n      dup3\n        /* \"#utility.yul\":10793:10811   */\n      add\n        /* \"#utility.yul\":10785:10811   */\n      swap1\n      pop\n        /* \"#utility.yul\":10857:10866   */\n      dup2\n        /* \"#utility.yul\":10851:10855   */\n      dup2\n        /* \"#utility.yul\":10847:10867   */\n      sub\n        /* \"#utility.yul\":10843:10844   */\n      0x00\n        /* \"#utility.yul\":10832:10841   */\n      dup4\n        /* \"#utility.yul\":10828:10845   */\n      add\n        /* \"#utility.yul\":10821:10868   */\n      mstore\n        /* \"#utility.yul\":10885:11016   */\n      tag_268\n        /* \"#utility.yul\":11011:11015   */\n      dup2\n        /* \"#utility.yul\":10885:11016   */\n      tag_139\n      jump\t// in\n    tag_268:\n        /* \"#utility.yul\":10877:11016   */\n      swap1\n      pop\n        /* \"#utility.yul\":10604:11023   */\n      swap2\n      swap1\n      pop\n      jump\t// out\n        /* \"#utility.yul\":11029:11204   */\n    tag_140:\n        /* \"#utility.yul\":11169:11196   */\n      0x596f752061726520616c72656164792061737369676e65642100000000000000\n        /* \"#utility.yul\":11165:11166   */\n      0x00\n        /* \"#utility.yul\":11157:11163   */\n      dup3\n        /* \"#utility.yul\":11153:11167   */\n      add\n        /* \"#utility.yul\":11146:11197   */\n      mstore\n        /* \"#utility.yul\":11029:11204   */\n      pop\n      jump\t// out\n        /* \"#utility.yul\":11210:11576   */\n    tag_141:\n        /* \"#utility.yul\":11352:11355   */\n      0x00\n        /* \"#utility.yul\":11373:11440   */\n      tag_271\n        /* \"#utility.yul\":11437:11439   */\n      0x19\n        /* \"#utility.yul\":11432:11435   */\n      dup4\n        /* \"#utility.yul\":11373:11440   */\n      tag_135\n      jump\t// in\n    tag_271:\n        /* \"#utility.yul\":11366:11440   */\n      swap2\n      pop\n        /* \"#utility.yul\":11449:11542   */\n      tag_272\n        /* \"#utility.yul\":11538:11541   */\n      dup3\n        /* \"#utility.yul\":11449:11542   */\n      tag_140\n      jump\t// in\n    tag_272:\n        /* \"#utility.yul\":11567:11569   */\n      0x20\n        /* \"#utility.yul\":11562:11565   */\n      dup3\n        /* \"#utility.yul\":11558:11570   */\n      add\n        /* \"#utility.yul\":11551:11570   */\n      swap1\n      pop\n        /* \"#utility.yul\":11210:11576   */\n      swap2\n      swap1\n      pop\n      jump\t// out\n        /* \"#utility.yul\":11582:12001   */\n    tag_79:\n        /* \"#utility.yul\":11748:11752   */\n      0x00\n        /* \"#utility.yul\":11786:11788   */\n      0x20\n        /* \"#utility.yul\":11775:11784   */\n      dup3\n        /* \"#utility.yul\":11771:11789   */\n      add\n        /* \"#utility.yul\":11763:11789   */\n      swap1\n      pop\n        /* \"#utility.yul\":11835:11844   */\n      dup2\n        /* \"#utility.yul\":11829:11833   */\n      dup2\n        /* \"#utility.yul\":11825:11845   */\n      sub\n        /* \"#utility.yul\":11821:11822   */\n      0x00\n        /* \"#utility.yul\":11810:11819   */\n      dup4\n        /* \"#utility.yul\":11806:11823   */\n      add\n        /* \"#utility.yul\":11799:11846   */\n      mstore\n        /* \"#utility.yul\":11863:11994   */\n      tag_274\n        /* \"#utility.yul\":11989:11993   */\n      dup2\n        /* \"#utility.yul\":11863:11994   */\n      tag_141\n      jump\t// in\n    tag_274:\n        /* \"#utility.yul\":11855:11994   */\n      swap1\n      pop\n        /* \"#utility.yul\":11582:12001   */\n      swap2\n      swap1\n      pop\n      jump\t// out\n        /* \"#utility.yul\":12007:12187   */\n    tag_142:\n        /* \"#utility.yul\":12055:12132   */\n      0x4e487b7100000000000000000000000000000000000000000000000000000000\n        /* \"#utility.yul\":12052:12053   */\n      0x00\n        /* \"#utility.yul\":12045:12133   */\n      mstore\n        /* \"#utility.yul\":12152:12156   */\n      0x11\n        /* \"#utility.yul\":12149:12150   */\n      0x04\n        /* \"#utility.yul\":12142:12157   */\n      mstore\n        /* \"#utility.yul\":12176:12180   */\n      0x24\n        /* \"#utility.yul\":12173:12174   */\n      0x00\n        /* \"#utility.yul\":12166:12181   */\n      revert\n        /* \"#utility.yul\":12193:12426   */\n    tag_82:\n        /* \"#utility.yul\":12232:12235   */\n      0x00\n        /* \"#utility.yul\":12255:12279   */\n      tag_277\n        /* \"#utility.yul\":12273:12278   */\n      dup3\n        /* \"#utility.yul\":12255:12279   */\n      tag_113\n      jump\t// in\n    tag_277:\n        /* \"#utility.yul\":12246:12279   */\n      swap2\n      pop\n        /* \"#utility.yul\":12301:12367   */\n      0xffffffffffffffffffffffffffffffffffffffffffffffffffffffffffffffff\n        /* \"#utility.yul\":12294:12299   */\n      dup3\n        /* \"#utility.yul\":12291:12368   */\n      sub\n        /* \"#utility.yul\":12288:12391   */\n      tag_278\n      jumpi\n        /* \"#utility.yul\":12371:12389   */\n      tag_279\n      tag_142\n      jump\t// in\n    tag_279:\n        /* \"#utility.yul\":12288:12391   */\n    tag_278:\n        /* \"#utility.yul\":12418:12419   */\n      0x01\n        /* \"#utility.yul\":12411:12416   */\n      dup3\n        /* \"#utility.yul\":12407:12420   */\n      add\n        /* \"#utility.yul\":12400:12420   */\n      swap1\n      pop\n        /* \"#utility.yul\":12193:12426   */\n      swap2\n      swap1\n      pop\n      jump\t// out\n        /* \"#utility.yul\":12432:12681   */\n    tag_143:\n        /* \"#utility.yul\":12572:12606   */\n      0x596f7520617265206e6f7420616c6c6f77656420746f2073656e6420616e7974\n        /* \"#utility.yul\":12568:12569   */\n      0x00\n        /* \"#utility.yul\":12560:12566   */\n      dup3\n        /* \"#utility.yul\":12556:12570   */\n      add\n        /* \"#utility.yul\":12549:12607   */\n      mstore\n        /* \"#utility.yul\":12641:12673   */\n      0x68696e672066726f6d207468697320736d61727420636f6e7472616374210000\n        /* \"#utility.yul\":12636:12638   */\n      0x20\n        /* \"#utility.yul\":12628:12634   */\n      dup3\n        /* \"#utility.yul\":12624:12639   */\n      add\n        /* \"#utility.yul\":12617:12674   */\n      mstore\n        /* \"#utility.yul\":12432:12681   */\n      pop\n      jump\t// out\n        /* \"#utility.yul\":12687:13053   */\n    tag_144:\n        /* \"#utility.yul\":12829:12832   */\n      0x00\n        /* \"#utility.yul\":12850:12917   */\n      tag_282\n        /* \"#utility.yul\":12914:12916   */\n      0x3e\n        /* \"#utility.yul\":12909:12912   */\n      dup4\n        /* \"#utility.yul\":12850:12917   */\n      tag_135\n      jump\t// in\n    tag_282:\n        /* \"#utility.yul\":12843:12917   */\n      swap2\n      pop\n        /* \"#utility.yul\":12926:13019   */\n      tag_283\n        /* \"#utility.yul\":13015:13018   */\n      dup3\n        /* \"#utility.yul\":12926:13019   */\n      tag_143\n      jump\t// in\n    tag_283:\n        /* \"#utility.yul\":13044:13046   */\n      0x40\n        /* \"#utility.yul\":13039:13042   */\n      dup3\n        /* \"#utility.yul\":13035:13047   */\n      add\n        /* \"#utility.yul\":13028:13047   */\n      swap1\n      pop\n        /* \"#utility.yul\":12687:13053   */\n      swap2\n      swap1\n      pop\n      jump\t// out\n        /* \"#utility.yul\":13059:13478   */\n    tag_88:\n        /* \"#utility.yul\":13225:13229   */\n      0x00\n        /* \"#utility.yul\":13263:13265   */\n      0x20\n        /* \"#utility.yul\":13252:13261   */\n      dup3\n        /* \"#utility.yul\":13248:13266   */\n      add\n        /* \"#utility.yul\":13240:13266   */\n      swap1\n      pop\n        /* \"#utility.yul\":13312:13321   */\n      dup2\n        /* \"#utility.yul\":13306:13310   */\n      dup2\n        /* \"#utility.yul\":13302:13322   */\n      sub\n        /* \"#utility.yul\":13298:13299   */\n      0x00\n        /* \"#utility.yul\":13287:13296   */\n      dup4\n        /* \"#utility.yul\":13283:13300   */\n      add\n        /* \"#utility.yul\":13276:13323   */\n      mstore\n        /* \"#utility.yul\":13340:13471   */\n      tag_285\n        /* \"#utility.yul\":13466:13470   */\n      dup2\n        /* \"#utility.yul\":13340:13471   */\n      tag_144\n      jump\t// in\n    tag_285:\n        /* \"#utility.yul\":13332:13471   */\n      swap1\n      pop\n        /* \"#utility.yul\":13059:13478   */\n      swap2\n      swap1\n      pop\n      jump\t// out\n        /* \"#utility.yul\":13484:13726   */\n    tag_145:\n        /* \"#utility.yul\":13624:13658   */\n      0x596f752061726520747279696e6720746f2073656e64206d6f7265206d6f6e65\n        /* \"#utility.yul\":13620:13621   */\n      0x00\n        /* \"#utility.yul\":13612:13618   */\n      dup3\n        /* \"#utility.yul\":13608:13622   */\n      add\n        /* \"#utility.yul\":13601:13659   */\n      mstore\n        /* \"#utility.yul\":13693:13718   */\n      0x79207468616e20796f752061726520616c6c6f77656421000000000000000000\n        /* \"#utility.yul\":13688:13690   */\n      0x20\n        /* \"#utility.yul\":13680:13686   */\n      dup3\n        /* \"#utility.yul\":13676:13691   */\n      add\n        /* \"#utility.yul\":13669:13719   */\n      mstore\n        /* \"#utility.yul\":13484:13726   */\n      pop\n      jump\t// out\n        /* \"#utility.yul\":13732:14098   */\n    tag_146:\n        /* \"#utility.yul\":13874:13877   */\n      0x00\n        /* \"#utility.yul\":13895:13962   */\n      tag_288\n        /* \"#utility.yul\":13959:13961   */\n      0x37\n        /* \"#utility.yul\":13954:13957   */\n      dup4\n        /* \"#utility.yul\":13895:13962   */\n      tag_135\n      jump\t// in\n    tag_288:\n        /* \"#utility.yul\":13888:13962   */\n      swap2\n      pop\n        /* \"#utility.yul\":13971:14064   */\n      tag_289\n        /* \"#utility.yul\":14060:14063   */\n      dup3\n        /* \"#utility.yul\":13971:14064   */\n      tag_145\n      jump\t// in\n    tag_289:\n        /* \"#utility.yul\":14089:14091   */\n      0x40\n        /* \"#utility.yul\":14084:14087   */\n      dup3\n        /* \"#utility.yul\":14080:14092   */\n      add\n        /* \"#utility.yul\":14073:14092   */\n      swap1\n      pop\n        /* \"#utility.yul\":13732:14098   */\n      swap2\n      swap1\n      pop\n      jump\t// out\n        /* \"#utility.yul\":14104:14523   */\n    tag_91:\n        /* \"#utility.yul\":14270:14274   */\n      0x00\n        /* \"#utility.yul\":14308:14310   */\n      0x20\n        /* \"#utility.yul\":14297:14306   */\n      dup3\n        /* \"#utility.yul\":14293:14311   */\n      add\n        /* \"#utility.yul\":14285:14311   */\n      swap1\n      pop\n        /* \"#utility.yul\":14357:14366   */\n      dup2\n        /* \"#utility.yul\":14351:14355   */\n      dup2\n        /* \"#utility.yul\":14347:14367   */\n      sub\n        /* \"#utility.yul\":14343:14344   */\n      0x00\n        /* \"#utility.yul\":14332:14341   */\n      dup4\n        /* \"#utility.yul\":14328:14345   */\n      add\n        /* \"#utility.yul\":14321:14368   */\n      mstore\n        /* \"#utility.yul\":14385:14516   */\n      tag_291\n        /* \"#utility.yul\":14511:14515   */\n      dup2\n        /* \"#utility.yul\":14385:14516   */\n      tag_146\n      jump\t// in\n    tag_291:\n        /* \"#utility.yul\":14377:14516   */\n      swap1\n      pop\n        /* \"#utility.yul\":14104:14523   */\n      swap2\n      swap1\n      pop\n      jump\t// out\n        /* \"#utility.yul\":14529:14723   */\n    tag_93:\n        /* \"#utility.yul\":14569:14573   */\n      0x00\n        /* \"#utility.yul\":14589:14609   */\n      tag_293\n        /* \"#utility.yul\":14607:14608   */\n      dup3\n        /* \"#utility.yul\":14589:14609   */\n      tag_113\n      jump\t// in\n    tag_293:\n        /* \"#utility.yul\":14584:14609   */\n      swap2\n      pop\n        /* \"#utility.yul\":14623:14643   */\n      tag_294\n        /* \"#utility.yul\":14641:14642   */\n      dup4\n        /* \"#utility.yul\":14623:14643   */\n      tag_113\n      jump\t// in\n    tag_294:\n        /* \"#utility.yul\":14618:14643   */\n      swap3\n      pop\n        /* \"#utility.yul\":14667:14668   */\n      dup3\n        /* \"#utility.yul\":14664:14665   */\n      dup3\n        /* \"#utility.yul\":14660:14669   */\n      sub\n        /* \"#utility.yul\":14652:14669   */\n      swap1\n      pop\n        /* \"#utility.yul\":14691:14692   */\n      dup2\n        /* \"#utility.yul\":14685:14689   */\n      dup2\n        /* \"#utility.yul\":14682:14693   */\n      gt\n        /* \"#utility.yul\":14679:14716   */\n      iszero\n      tag_295\n      jumpi\n        /* \"#utility.yul\":14696:14714   */\n      tag_296\n      tag_142\n      jump\t// in\n    tag_296:\n        /* \"#utility.yul\":14679:14716   */\n    tag_295:\n        /* \"#utility.yul\":14529:14723   */\n      swap3\n      swap2\n      pop\n      pop\n      jump\t// out\n        /* \"#utility.yul\":14729:14876   */\n    tag_147:\n        /* \"#utility.yul\":14830:14841   */\n      0x00\n        /* \"#utility.yul\":14867:14870   */\n      dup2\n        /* \"#utility.yul\":14852:14870   */\n      swap1\n      pop\n        /* \"#utility.yul\":14729:14876   */\n      swap3\n      swap2\n      pop\n      pop\n      jump\t// out\n        /* \"#utility.yul\":14882:15268   */\n    tag_148:\n        /* \"#utility.yul\":14986:14989   */\n      0x00\n        /* \"#utility.yul\":15014:15052   */\n      tag_299\n        /* \"#utility.yul\":15046:15051   */\n      dup3\n        /* \"#utility.yul\":15014:15052   */\n      tag_131\n      jump\t// in\n    tag_299:\n        /* \"#utility.yul\":15068:15156   */\n      tag_300\n        /* \"#utility.yul\":15149:15155   */\n      dup2\n        /* \"#utility.yul\":15144:15147   */\n      dup6\n        /* \"#utility.yul\":15068:15156   */\n      tag_147\n      jump\t// in\n    tag_300:\n        /* \"#utility.yul\":15061:15156   */\n      swap4\n      pop\n        /* \"#utility.yul\":15165:15230   */\n      tag_301\n        /* \"#utility.yul\":15223:15229   */\n      dup2\n        /* \"#utility.yul\":15218:15221   */\n      dup6\n        /* \"#utility.yul\":15211:15215   */\n      0x20\n        /* \"#utility.yul\":15204:15209   */\n      dup7\n        /* \"#utility.yul\":15200:15216   */\n      add\n        /* \"#utility.yul\":15165:15230   */\n      tag_133\n      jump\t// in\n    tag_301:\n        /* \"#utility.yul\":15255:15261   */\n      dup1\n        /* \"#utility.yul\":15250:15253   */\n      dup5\n        /* \"#utility.yul\":15246:15262   */\n      add\n        /* \"#utility.yul\":15239:15262   */\n      swap2\n      pop\n        /* \"#utility.yul\":14990:15268   */\n      pop\n        /* \"#utility.yul\":14882:15268   */\n      swap3\n      swap2\n      pop\n      pop\n      jump\t// out\n        /* \"#utility.yul\":15274:15545   */\n    tag_95:\n        /* \"#utility.yul\":15404:15407   */\n      0x00\n        /* \"#utility.yul\":15426:15519   */\n      tag_303\n        /* \"#utility.yul\":15515:15518   */\n      dup3\n        /* \"#utility.yul\":15506:15512   */\n      dup5\n        /* \"#utility.yul\":15426:15519   */\n      tag_148\n      jump\t// in\n    tag_303:\n        /* \"#utility.yul\":15419:15519   */\n      swap2\n      pop\n        /* \"#utility.yul\":15536:15539   */\n      dup2\n        /* \"#utility.yul\":15529:15539   */\n      swap1\n      pop\n        /* \"#utility.yul\":15274:15545   */\n      swap3\n      swap2\n      pop\n      pop\n      jump\t// out\n        /* \"#utility.yul\":15551:15772   */\n    tag_149:\n        /* \"#utility.yul\":15691:15725   */\n      0x41626f7274696e672c2063616c6c20776173206e6f7420737563636573736675\n        /* \"#utility.yul\":15687:15688   */\n      0x00\n        /* \"#utility.yul\":15679:15685   */\n      dup3\n        /* \"#utility.yul\":15675:15689   */\n      add\n        /* \"#utility.yul\":15668:15726   */\n      mstore\n        /* \"#utility.yul\":15760:15764   */\n      0x6c21000000000000000000000000000000000000000000000000000000000000\n        /* \"#utility.yul\":15755:15757   */\n      0x20\n        /* \"#utility.yul\":15747:15753   */\n      dup3\n        /* \"#utility.yul\":15743:15758   */\n      add\n        /* \"#utility.yul\":15736:15765   */\n      mstore\n        /* \"#utility.yul\":15551:15772   */\n      pop\n      jump\t// out\n        /* \"#utility.yul\":15778:16144   */\n    tag_150:\n        /* \"#utility.yul\":15920:15923   */\n      0x00\n        /* \"#utility.yul\":15941:16008   */\n      tag_306\n        /* \"#utility.yul\":16005:16007   */\n      0x22\n        /* \"#utility.yul\":16000:16003   */\n      dup4\n        /* \"#utility.yul\":15941:16008   */\n      tag_135\n      jump\t// in\n    tag_306:\n        /* \"#utility.yul\":15934:16008   */\n      swap2\n      pop\n        /* \"#utility.yul\":16017:16110   */\n      tag_307\n        /* \"#utility.yul\":16106:16109   */\n      dup3\n        /* \"#utility.yul\":16017:16110   */\n      tag_149\n      jump\t// in\n    tag_307:\n        /* \"#utility.yul\":16135:16137   */\n      0x40\n        /* \"#utility.yul\":16130:16133   */\n      dup3\n        /* \"#utility.yul\":16126:16138   */\n      add\n        /* \"#utility.yul\":16119:16138   */\n      swap1\n      pop\n        /* \"#utility.yul\":15778:16144   */\n      swap2\n      swap1\n      pop\n      jump\t// out\n        /* \"#utility.yul\":16150:16569   */\n    tag_101:\n        /* \"#utility.yul\":16316:16320   */\n      0x00\n        /* \"#utility.yul\":16354:16356   */\n      0x20\n        /* \"#utility.yul\":16343:16352   */\n      dup3\n        /* \"#utility.yul\":16339:16357   */\n      add\n        /* \"#utility.yul\":16331:16357   */\n      swap1\n      pop\n        /* \"#utility.yul\":16403:16412   */\n      dup2\n        /* \"#utility.yul\":16397:16401   */\n      dup2\n        /* \"#utility.yul\":16393:16413   */\n      sub\n        /* \"#utility.yul\":16389:16390   */\n      0x00\n        /* \"#utility.yul\":16378:16387   */\n      dup4\n        /* \"#utility.yul\":16374:16391   */\n      add\n        /* \"#utility.yul\":16367:16414   */\n      mstore\n        /* \"#utility.yul\":16431:16562   */\n      tag_309\n        /* \"#utility.yul\":16557:16561   */\n      dup2\n        /* \"#utility.yul\":16431:16562   */\n      tag_150\n      jump\t// in\n    tag_309:\n        /* \"#utility.yul\":16423:16562   */\n      swap1\n      pop\n        /* \"#utility.yul\":16150:16569   */\n      swap2\n      swap1\n      pop\n      jump\t// out\n\n    auxdata: 0xa26469706673582212205a6c230b7827b03608151cd263eb8065d8f107080f98fab415c036839fad0a4164736f6c634300081a0033\n}\n",
				"bytecode": {
					"linkReferences": {},
					"object": "6080604052348015600e575f80fd5b50335f806101000a81548173ffffffffffffffffffffffffffffffffffffffff021916908373ffffffffffffffffffffffffffffffffffffffff1602179055506113a88061005b5f395ff3fe608060405260043610610089575f3560e01c80633e5beab9116100585780633e5beab91461015c57806358e404b1146101985780638da5cb5b146101c2578063b1f8100d146101ec578063be45fd621461021457610090565b80630633b14a146100945780630bc605ad146100d05780632b8a1c5a1461010c578063310ec4a71461013457610090565b3661009057005b5f80fd5b34801561009f575f80fd5b506100ba60048036038101906100b59190610b4e565b610250565b6040516100c79190610b93565b60405180910390f35b3480156100db575f80fd5b506100f660048036038101906100f19190610b4e565b61026d565b6040516101039190610b93565b60405180910390f35b348015610117575f80fd5b50610132600480360381019061012d9190610bd6565b61028a565b005b34801561013f575f80fd5b5061015a60048036038101906101559190610c47565b61036f565b005b348015610167575f80fd5b50610182600480360381019061017d9190610b4e565b6104f9565b60405161018f9190610c94565b60405180910390f35b3480156101a3575f80fd5b506101ac61050e565b6040516101b99190610c94565b60405180910390f35b3480156101cd575f80fd5b506101d6610513565b6040516101e39190610ccd565b60405180910390f35b3480156101f7575f80fd5b50610212600480360381019061020d9190610d10565b610536565b005b34801561021f575f80fd5b5061023a60048036038101906102359190610e77565b61087a565b6040516102479190610f43565b60405180910390f35b6003602052805f5260405f205f915054906101000a900460ff1681565b6002602052805f5260405f205f915054906101000a900460ff1681565b5f8054906101000a900473ffffffffffffffffffffffffffffffffffffffff1673ffffffffffffffffffffffffffffffffffffffff163373ffffffffffffffffffffffffffffffffffffffff1614610317576040517f08c379a000000000000000000000000000000000000000000000000000000000815260040161030e90610fbd565b60405180910390fd5b8060035f8473ffffffffffffffffffffffffffffffffffffffff1673ffffffffffffffffffffffffffffffffffffffff1681526020019081526020015f205f6101000a81548160ff0219169083151502179055505050565b5f8054906101000a900473ffffffffffffffffffffffffffffffffffffffff1673ffffffffffffffffffffffffffffffffffffffff163373ffffffffffffffffffffffffffffffffffffffff16146103fc576040517f08c379a00000000000000000000000000000000000000000000000000000000081526004016103f390610fbd565b60405180910390fd5b8060015f8473ffffffffffffffffffffffffffffffffffffffff1673ffffffffffffffffffffffffffffffffffffffff1681526020019081526020015f20819055505f8111156104a057600160025f8473ffffffffffffffffffffffffffffffffffffffff1673ffffffffffffffffffffffffffffffffffffffff1681526020019081526020015f205f6101000a81548160ff0219169083151502179055506104f5565b5f60025f8473ffffffffffffffffffffffffffffffffffffffff1673ffffffffffffffffffffffffffffffffffffffff1681526020019081526020015f205f6101000a81548160ff0219169083151502179055505b5050565b6001602052805f5260405f205f915090505481565b600381565b5f8054906101000a900473ffffffffffffffffffffffffffffffffffffffff1681565b60035f3373ffffffffffffffffffffffffffffffffffffffff1673ffffffffffffffffffffffffffffffffffffffff1681526020019081526020015f205f9054906101000a900460ff166105bf576040517f08c379a00000000000000000000000000000000000000000000000000000000081526004016105b69061104b565b60405180910390fd5b5f151560055f8373ffffffffffffffffffffffffffffffffffffffff1673ffffffffffffffffffffffffffffffffffffffff1681526020019081526020015f205f3373ffffffffffffffffffffffffffffffffffffffff1673ffffffffffffffffffffffffffffffffffffffff1681526020019081526020015f205f9054906101000a900460ff16151514610689576040517f08c379a0000000000000000000000000000000000000000000000000000000008152600401610680906110b3565b60405180910390fd5b60045f9054906101000a900473ffffffffffffffffffffffffffffffffffffffff1673ffffffffffffffffffffffffffffffffffffffff168173ffffffffffffffffffffffffffffffffffffffff1614610725578060045f6101000a81548173ffffffffffffffffffffffffffffffffffffffff021916908373ffffffffffffffffffffffffffffffffffffffff1602179055505f6006819055505b600160055f8373ffffffffffffffffffffffffffffffffffffffff1673ffffffffffffffffffffffffffffffffffffffff1681526020019081526020015f205f3373ffffffffffffffffffffffffffffffffffffffff1673ffffffffffffffffffffffffffffffffffffffff1681526020019081526020015f205f6101000a81548160ff02191690831515021790555060065f8154809291906107c7906110fe565b91905055506003600654106108775760045f9054906101000a900473ffffffffffffffffffffffffffffffffffffffff165f806101000a81548173ffffffffffffffffffffffffffffffffffffffff021916908373ffffffffffffffffffffffffffffffffffffffff1602179055505f60045f6101000a81548173ffffffffffffffffffffffffffffffffffffffff021916908373ffffffffffffffffffffffffffffffffffffffff1602179055505b50565b60605f8054906101000a900473ffffffffffffffffffffffffffffffffffffffff1673ffffffffffffffffffffffffffffffffffffffff163373ffffffffffffffffffffffffffffffffffffffff1614610a2b5760025f3373ffffffffffffffffffffffffffffffffffffffff1673ffffffffffffffffffffffffffffffffffffffff1681526020019081526020015f205f9054906101000a900460ff16610957576040517f08c379a000000000000000000000000000000000000000000000000000000000815260040161094e906111b5565b60405180910390fd5b8260015f3373ffffffffffffffffffffffffffffffffffffffff1673ffffffffffffffffffffffffffffffffffffffff1681526020019081526020015f205410156109d7576040517f08c379a00000000000000000000000000000000000000000000000000000000081526004016109ce90611243565b60405180910390fd5b8260015f3373ffffffffffffffffffffffffffffffffffffffff1673ffffffffffffffffffffffffffffffffffffffff1681526020019081526020015f205f828254610a239190611261565b925050819055505b5f808573ffffffffffffffffffffffffffffffffffffffff168585604051610a5391906112ce565b5f6040518083038185875af1925050503d805f8114610a8d576040519150601f19603f3d011682016040523d82523d5f602084013e610a92565b606091505b509150915081610ad7576040517f08c379a0000000000000000000000000000000000000000000000000000000008152600401610ace90611354565b60405180910390fd5b80925050509392505050565b5f604051905090565b5f80fd5b5f80fd5b5f73ffffffffffffffffffffffffffffffffffffffff82169050919050565b5f610b1d82610af4565b9050919050565b610b2d81610b13565b8114610b37575f80fd5b50565b5f81359050610b4881610b24565b92915050565b5f60208284031215610b6357610b62610aec565b5b5f610b7084828501610b3a565b91505092915050565b5f8115159050919050565b610b8d81610b79565b82525050565b5f602082019050610ba65f830184610b84565b92915050565b610bb581610b79565b8114610bbf575f80fd5b50565b5f81359050610bd081610bac565b92915050565b5f8060408385031215610bec57610beb610aec565b5b5f610bf985828601610b3a565b9250506020610c0a85828601610bc2565b9150509250929050565b5f819050919050565b610c2681610c14565b8114610c30575f80fd5b50565b5f81359050610c4181610c1d565b92915050565b5f8060408385031215610c5d57610c5c610aec565b5b5f610c6a85828601610b3a565b9250506020610c7b85828601610c33565b9150509250929050565b610c8e81610c14565b82525050565b5f602082019050610ca75f830184610c85565b92915050565b5f610cb782610af4565b9050919050565b610cc781610cad565b82525050565b5f602082019050610ce05f830184610cbe565b92915050565b610cef81610cad565b8114610cf9575f80fd5b50565b5f81359050610d0a81610ce6565b92915050565b5f60208284031215610d2557610d24610aec565b5b5f610d3284828501610cfc565b91505092915050565b5f80fd5b5f80fd5b5f601f19601f8301169050919050565b7f4e487b71000000000000000000000000000000000000000000000000000000005f52604160045260245ffd5b610d8982610d43565b810181811067ffffffffffffffff82111715610da857610da7610d53565b5b80604052505050565b5f610dba610ae3565b9050610dc68282610d80565b919050565b5f67ffffffffffffffff821115610de557610de4610d53565b5b610dee82610d43565b9050602081019050919050565b828183375f83830152505050565b5f610e1b610e1684610dcb565b610db1565b905082815260208101848484011115610e3757610e36610d3f565b5b610e42848285610dfb565b509392505050565b5f82601f830112610e5e57610e5d610d3b565b5b8135610e6e848260208601610e09565b91505092915050565b5f805f60608486031215610e8e57610e8d610aec565b5b5f610e9b86828701610cfc565b9350506020610eac86828701610c33565b925050604084013567ffffffffffffffff811115610ecd57610ecc610af0565b5b610ed986828701610e4a565b9150509250925092565b5f81519050919050565b5f82825260208201905092915050565b8281835e5f83830152505050565b5f610f1582610ee3565b610f1f8185610eed565b9350610f2f818560208601610efd565b610f3881610d43565b840191505092915050565b5f6020820190508181035f830152610f5b8184610f0b565b905092915050565b5f82825260208201905092915050565b7f596f7520617265206e6f7420746865206f776e657221000000000000000000005f82015250565b5f610fa7601683610f63565b9150610fb282610f73565b602082019050919050565b5f6020820190508181035f830152610fd481610f9b565b9050919050565b7f596f7520617265206e6f74206120677561726469616e206f66207468697320775f8201527f616c6c6574210000000000000000000000000000000000000000000000000000602082015250565b5f611035602683610f63565b915061104082610fdb565b604082019050919050565b5f6020820190508181035f83015261106281611029565b9050919050565b7f596f752061726520616c72656164792061737369676e656421000000000000005f82015250565b5f61109d601983610f63565b91506110a882611069565b602082019050919050565b5f6020820190508181035f8301526110ca81611091565b9050919050565b7f4e487b71000000000000000000000000000000000000000000000000000000005f52601160045260245ffd5b5f61110882610c14565b91507fffffffffffffffffffffffffffffffffffffffffffffffffffffffffffffffff820361113a576111396110d1565b5b600182019050919050565b7f596f7520617265206e6f7420616c6c6f77656420746f2073656e6420616e79745f8201527f68696e672066726f6d207468697320736d61727420636f6e7472616374210000602082015250565b5f61119f603e83610f63565b91506111aa82611145565b604082019050919050565b5f6020820190508181035f8301526111cc81611193565b9050919050565b7f596f752061726520747279696e6720746f2073656e64206d6f7265206d6f6e655f8201527f79207468616e20796f752061726520616c6c6f77656421000000000000000000602082015250565b5f61122d603783610f63565b9150611238826111d3565b604082019050919050565b5f6020820190508181035f83015261125a81611221565b9050919050565b5f61126b82610c14565b915061127683610c14565b925082820390508181111561128e5761128d6110d1565b5b92915050565b5f81905092915050565b5f6112a882610ee3565b6112b28185611294565b93506112c2818560208601610efd565b80840191505092915050565b5f6112d9828461129e565b915081905092915050565b7f41626f7274696e672c2063616c6c20776173206e6f74207375636365737366755f8201527f6c21000000000000000000000000000000000000000000000000000000000000602082015250565b5f61133e602283610f63565b9150611349826112e4565b604082019050919050565b5f6020820190508181035f83015261136b81611332565b905091905056fea26469706673582212205a6c230b7827b03608151cd263eb8065d8f107080f98fab415c036839fad0a4164736f6c634300081a0033",
					"opcodes": "PUSH1 0x80 PUSH1 0x40 MSTORE CALLVALUE DUP1 ISZERO PUSH1 0xE JUMPI PUSH0 DUP1 REVERT JUMPDEST POP CALLER PUSH0 DUP1 PUSH2 0x100 EXP DUP2 SLOAD DUP2 PUSH20 0xFFFFFFFFFFFFFFFFFFFFFFFFFFFFFFFFFFFFFFFF MUL NOT AND SWAP1 DUP4 PUSH20 0xFFFFFFFFFFFFFFFFFFFFFFFFFFFFFFFFFFFFFFFF AND MUL OR SWAP1 SSTORE POP PUSH2 0x13A8 DUP1 PUSH2 0x5B PUSH0 CODECOPY PUSH0 RETURN INVALID PUSH1 0x80 PUSH1 0x40 MSTORE PUSH1 0x4 CALLDATASIZE LT PUSH2 0x89 JUMPI PUSH0 CALLDATALOAD PUSH1 0xE0 SHR DUP1 PUSH4 0x3E5BEAB9 GT PUSH2 0x58 JUMPI DUP1 PUSH4 0x3E5BEAB9 EQ PUSH2 0x15C JUMPI DUP1 PUSH4 0x58E404B1 EQ PUSH2 0x198 JUMPI DUP1 PUSH4 0x8DA5CB5B EQ PUSH2 0x1C2 JUMPI DUP1 PUSH4 0xB1F8100D EQ PUSH2 0x1EC JUMPI DUP1 PUSH4 0xBE45FD62 EQ PUSH2 0x214 JUMPI PUSH2 0x90 JUMP JUMPDEST DUP1 PUSH4 0x633B14A EQ PUSH2 0x94 JUMPI DUP1 PUSH4 0xBC605AD EQ PUSH2 0xD0 JUMPI DUP1 PUSH4 0x2B8A1C5A EQ PUSH2 0x10C JUMPI DUP1 PUSH4 0x310EC4A7 EQ PUSH2 0x134 JUMPI PUSH2 0x90 JUMP JUMPDEST CALLDATASIZE PUSH2 0x90 JUMPI STOP JUMPDEST PUSH0 DUP1 REVERT JUMPDEST CALLVALUE DUP1 ISZERO PUSH2 0x9F JUMPI PUSH0 DUP1 REVERT JUMPDEST POP PUSH2 0xBA PUSH1 0x4 DUP1 CALLDATASIZE SUB DUP2 ADD SWAP1 PUSH2 0xB5 SWAP2 SWAP1 PUSH2 0xB4E JUMP JUMPDEST PUSH2 0x250 JUMP JUMPDEST PUSH1 0x40 MLOAD PUSH2 0xC7 SWAP2 SWAP1 PUSH2 0xB93 JUMP JUMPDEST PUSH1 0x40 MLOAD DUP1 SWAP2 SUB SWAP1 RETURN JUMPDEST CALLVALUE DUP1 ISZERO PUSH2 0xDB JUMPI PUSH0 DUP1 REVERT JUMPDEST POP PUSH2 0xF6 PUSH1 0x4 DUP1 CALLDATASIZE SUB DUP2 ADD SWAP1 PUSH2 0xF1 SWAP2 SWAP1 PUSH2 0xB4E JUMP JUMPDEST PUSH2 0x26D JUMP JUMPDEST PUSH1 0x40 MLOAD PUSH2 0x103 SWAP2 SWAP1 PUSH2 0xB93 JUMP JUMPDEST PUSH1 0x40 MLOAD DUP1 SWAP2 SUB SWAP1 RETURN JUMPDEST CALLVALUE DUP1 ISZERO PUSH2 0x117 JUMPI PUSH0 DUP1 REVERT JUMPDEST POP PUSH2 0x132 PUSH1 0x4 DUP1 CALLDATASIZE SUB DUP2 ADD SWAP1 PUSH2 0x12D SWAP2 SWAP1 PUSH2 0xBD6 JUMP JUMPDEST PUSH2 0x28A JUMP JUMPDEST STOP JUMPDEST CALLVALUE DUP1 ISZERO PUSH2 0x13F JUMPI PUSH0 DUP1 REVERT JUMPDEST POP PUSH2 0x15A PUSH1 0x4 DUP1 CALLDATASIZE SUB DUP2 ADD SWAP1 PUSH2 0x155 SWAP2 SWAP1 PUSH2 0xC47 JUMP JUMPDEST PUSH2 0x36F JUMP JUMPDEST STOP JUMPDEST CALLVALUE DUP1 ISZERO PUSH2 0x167 JUMPI PUSH0 DUP1 REVERT JUMPDEST POP PUSH2 0x182 PUSH1 0x4 DUP1 CALLDATASIZE SUB DUP2 ADD SWAP1 PUSH2 0x17D SWAP2 SWAP1 PUSH2 0xB4E JUMP JUMPDEST PUSH2 0x4F9 JUMP JUMPDEST PUSH1 0x40 MLOAD PUSH2 0x18F SWAP2 SWAP1 PUSH2 0xC94 JUMP JUMPDEST PUSH1 0x40 MLOAD DUP1 SWAP2 SUB SWAP1 RETURN JUMPDEST CALLVALUE DUP1 ISZERO PUSH2 0x1A3 JUMPI PUSH0 DUP1 REVERT JUMPDEST POP PUSH2 0x1AC PUSH2 0x50E JUMP JUMPDEST PUSH1 0x40 MLOAD PUSH2 0x1B9 SWAP2 SWAP1 PUSH2 0xC94 JUMP JUMPDEST PUSH1 0x40 MLOAD DUP1 SWAP2 SUB SWAP1 RETURN JUMPDEST CALLVALUE DUP1 ISZERO PUSH2 0x1CD JUMPI PUSH0 DUP1 REVERT JUMPDEST POP PUSH2 0x1D6 PUSH2 0x513 JUMP JUMPDEST PUSH1 0x40 MLOAD PUSH2 0x1E3 SWAP2 SWAP1 PUSH2 0xCCD JUMP JUMPDEST PUSH1 0x40 MLOAD DUP1 SWAP2 SUB SWAP1 RETURN JUMPDEST CALLVALUE DUP1 ISZERO PUSH2 0x1F7 JUMPI PUSH0 DUP1 REVERT JUMPDEST POP PUSH2 0x212 PUSH1 0x4 DUP1 CALLDATASIZE SUB DUP2 ADD SWAP1 PUSH2 0x20D SWAP2 SWAP1 PUSH2 0xD10 JUMP JUMPDEST PUSH2 0x536 JUMP JUMPDEST STOP JUMPDEST CALLVALUE DUP1 ISZERO PUSH2 0x21F JUMPI PUSH0 DUP1 REVERT JUMPDEST POP PUSH2 0x23A PUSH1 0x4 DUP1 CALLDATASIZE SUB DUP2 ADD SWAP1 PUSH2 0x235 SWAP2 SWAP1 PUSH2 0xE77 JUMP JUMPDEST PUSH2 0x87A JUMP JUMPDEST PUSH1 0x40 MLOAD PUSH2 0x247 SWAP2 SWAP1 PUSH2 0xF43 JUMP JUMPDEST PUSH1 0x40 MLOAD DUP1 SWAP2 SUB SWAP1 RETURN JUMPDEST PUSH1 0x3 PUSH1 0x20 MSTORE DUP1 PUSH0 MSTORE PUSH1 0x40 PUSH0 KECCAK256 PUSH0 SWAP2 POP SLOAD SWAP1 PUSH2 0x100 EXP SWAP1 DIV PUSH1 0xFF AND DUP2 JUMP JUMPDEST PUSH1 0x2 PUSH1 0x20 MSTORE DUP1 PUSH0 MSTORE PUSH1 0x40 PUSH0 KECCAK256 PUSH0 SWAP2 POP SLOAD SWAP1 PUSH2 0x100 EXP SWAP1 DIV PUSH1 0xFF AND DUP2 JUMP JUMPDEST PUSH0 DUP1 SLOAD SWAP1 PUSH2 0x100 EXP SWAP1 DIV PUSH20 0xFFFFFFFFFFFFFFFFFFFFFFFFFFFFFFFFFFFFFFFF AND PUSH20 0xFFFFFFFFFFFFFFFFFFFFFFFFFFFFFFFFFFFFFFFF AND CALLER PUSH20 0xFFFFFFFFFFFFFFFFFFFFFFFFFFFFFFFFFFFFFFFF AND EQ PUSH2 0x317 JUMPI PUSH1 0x40 MLOAD PUSH32 0x8C379A000000000000000000000000000000000000000000000000000000000 DUP2 MSTORE PUSH1 0x4 ADD PUSH2 0x30E SWAP1 PUSH2 0xFBD JUMP JUMPDEST PUSH1 0x40 MLOAD DUP1 SWAP2 SUB SWAP1 REVERT JUMPDEST DUP1 PUSH1 0x3 PUSH0 DUP5 PUSH20 0xFFFFFFFFFFFFFFFFFFFFFFFFFFFFFFFFFFFFFFFF AND PUSH20 0xFFFFFFFFFFFFFFFFFFFFFFFFFFFFFFFFFFFFFFFF AND DUP2 MSTORE PUSH1 0x20 ADD SWAP1 DUP2 MSTORE PUSH1 0x20 ADD PUSH0 KECCAK256 PUSH0 PUSH2 0x100 EXP DUP2 SLOAD DUP2 PUSH1 0xFF MUL NOT AND SWAP1 DUP4 ISZERO ISZERO MUL OR SWAP1 SSTORE POP POP POP JUMP JUMPDEST PUSH0 DUP1 SLOAD SWAP1 PUSH2 0x100 EXP SWAP1 DIV PUSH20 0xFFFFFFFFFFFFFFFFFFFFFFFFFFFFFFFFFFFFFFFF AND PUSH20 0xFFFFFFFFFFFFFFFFFFFFFFFFFFFFFFFFFFFFFFFF AND CALLER PUSH20 0xFFFFFFFFFFFFFFFFFFFFFFFFFFFFFFFFFFFFFFFF AND EQ PUSH2 0x3FC JUMPI PUSH1 0x40 MLOAD PUSH32 0x8C379A000000000000000000000000000000000000000000000000000000000 DUP2 MSTORE PUSH1 0x4 ADD PUSH2 0x3F3 SWAP1 PUSH2 0xFBD JUMP JUMPDEST PUSH1 0x40 MLOAD DUP1 SWAP2 SUB SWAP1 REVERT JUMPDEST DUP1 PUSH1 0x1 PUSH0 DUP5 PUSH20 0xFFFFFFFFFFFFFFFFFFFFFFFFFFFFFFFFFFFFFFFF AND PUSH20 0xFFFFFFFFFFFFFFFFFFFFFFFFFFFFFFFFFFFFFFFF AND DUP2 MSTORE PUSH1 0x20 ADD SWAP1 DUP2 MSTORE PUSH1 0x20 ADD PUSH0 KECCAK256 DUP2 SWAP1 SSTORE POP PUSH0 DUP2 GT ISZERO PUSH2 0x4A0 JUMPI PUSH1 0x1 PUSH1 0x2 PUSH0 DUP5 PUSH20 0xFFFFFFFFFFFFFFFFFFFFFFFFFFFFFFFFFFFFFFFF AND PUSH20 0xFFFFFFFFFFFFFFFFFFFFFFFFFFFFFFFFFFFFFFFF AND DUP2 MSTORE PUSH1 0x20 ADD SWAP1 DUP2 MSTORE PUSH1 0x20 ADD PUSH0 KECCAK256 PUSH0 PUSH2 0x100 EXP DUP2 SLOAD DUP2 PUSH1 0xFF MUL NOT AND SWAP1 DUP4 ISZERO ISZERO MUL OR SWAP1 SSTORE POP PUSH2 0x4F5 JUMP JUMPDEST PUSH0 PUSH1 0x2 PUSH0 DUP5 PUSH20 0xFFFFFFFFFFFFFFFFFFFFFFFFFFFFFFFFFFFFFFFF AND PUSH20 0xFFFFFFFFFFFFFFFFFFFFFFFFFFFFFFFFFFFFFFFF AND DUP2 MSTORE PUSH1 0x20 ADD SWAP1 DUP2 MSTORE PUSH1 0x20 ADD PUSH0 KECCAK256 PUSH0 PUSH2 0x100 EXP DUP2 SLOAD DUP2 PUSH1 0xFF MUL NOT AND SWAP1 DUP4 ISZERO ISZERO MUL OR SWAP1 SSTORE POP JUMPDEST POP POP JUMP JUMPDEST PUSH1 0x1 PUSH1 0x20 MSTORE DUP1 PUSH0 MSTORE PUSH1 0x40 PUSH0 KECCAK256 PUSH0 SWAP2 POP SWAP1 POP SLOAD DUP2 JUMP JUMPDEST PUSH1 0x3 DUP2 JUMP JUMPDEST PUSH0 DUP1 SLOAD SWAP1 PUSH2 0x100 EXP SWAP1 DIV PUSH20 0xFFFFFFFFFFFFFFFFFFFFFFFFFFFFFFFFFFFFFFFF AND DUP2 JUMP JUMPDEST PUSH1 0x3 PUSH0 CALLER PUSH20 0xFFFFFFFFFFFFFFFFFFFFFFFFFFFFFFFFFFFFFFFF AND PUSH20 0xFFFFFFFFFFFFFFFFFFFFFFFFFFFFFFFFFFFFFFFF AND DUP2 MSTORE PUSH1 0x20 ADD SWAP1 DUP2 MSTORE PUSH1 0x20 ADD PUSH0 KECCAK256 PUSH0 SWAP1 SLOAD SWAP1 PUSH2 0x100 EXP SWAP1 DIV PUSH1 0xFF AND PUSH2 0x5BF JUMPI PUSH1 0x40 MLOAD PUSH32 0x8C379A000000000000000000000000000000000000000000000000000000000 DUP2 MSTORE PUSH1 0x4 ADD PUSH2 0x5B6 SWAP1 PUSH2 0x104B JUMP JUMPDEST PUSH1 0x40 MLOAD DUP1 SWAP2 SUB SWAP1 REVERT JUMPDEST PUSH0 ISZERO ISZERO PUSH1 0x5 PUSH0 DUP4 PUSH20 0xFFFFFFFFFFFFFFFFFFFFFFFFFFFFFFFFFFFFFFFF AND PUSH20 0xFFFFFFFFFFFFFFFFFFFFFFFFFFFFFFFFFFFFFFFF AND DUP2 MSTORE PUSH1 0x20 ADD SWAP1 DUP2 MSTORE PUSH1 0x20 ADD PUSH0 KECCAK256 PUSH0 CALLER PUSH20 0xFFFFFFFFFFFFFFFFFFFFFFFFFFFFFFFFFFFFFFFF AND PUSH20 0xFFFFFFFFFFFFFFFFFFFFFFFFFFFFFFFFFFFFFFFF AND DUP2 MSTORE PUSH1 0x20 ADD SWAP1 DUP2 MSTORE PUSH1 0x20 ADD PUSH0 KECCAK256 PUSH0 SWAP1 SLOAD SWAP1 PUSH2 0x100 EXP SWAP1 DIV PUSH1 0xFF AND ISZERO ISZERO EQ PUSH2 0x689 JUMPI PUSH1 0x40 MLOAD PUSH32 0x8C379A000000000000000000000000000000000000000000000000000000000 DUP2 MSTORE PUSH1 0x4 ADD PUSH2 0x680 SWAP1 PUSH2 0x10B3 JUMP JUMPDEST PUSH1 0x40 MLOAD DUP1 SWAP2 SUB SWAP1 REVERT JUMPDEST PUSH1 0x4 PUSH0 SWAP1 SLOAD SWAP1 PUSH2 0x100 EXP SWAP1 DIV PUSH20 0xFFFFFFFFFFFFFFFFFFFFFFFFFFFFFFFFFFFFFFFF AND PUSH20 0xFFFFFFFFFFFFFFFFFFFFFFFFFFFFFFFFFFFFFFFF AND DUP2 PUSH20 0xFFFFFFFFFFFFFFFFFFFFFFFFFFFFFFFFFFFFFFFF AND EQ PUSH2 0x725 JUMPI DUP1 PUSH1 0x4 PUSH0 PUSH2 0x100 EXP DUP2 SLOAD DUP2 PUSH20 0xFFFFFFFFFFFFFFFFFFFFFFFFFFFFFFFFFFFFFFFF MUL NOT AND SWAP1 DUP4 PUSH20 0xFFFFFFFFFFFFFFFFFFFFFFFFFFFFFFFFFFFFFFFF AND MUL OR SWAP1 SSTORE POP PUSH0 PUSH1 0x6 DUP2 SWAP1 SSTORE POP JUMPDEST PUSH1 0x1 PUSH1 0x5 PUSH0 DUP4 PUSH20 0xFFFFFFFFFFFFFFFFFFFFFFFFFFFFFFFFFFFFFFFF AND PUSH20 0xFFFFFFFFFFFFFFFFFFFFFFFFFFFFFFFFFFFFFFFF AND DUP2 MSTORE PUSH1 0x20 ADD SWAP1 DUP2 MSTORE PUSH1 0x20 ADD PUSH0 KECCAK256 PUSH0 CALLER PUSH20 0xFFFFFFFFFFFFFFFFFFFFFFFFFFFFFFFFFFFFFFFF AND PUSH20 0xFFFFFFFFFFFFFFFFFFFFFFFFFFFFFFFFFFFFFFFF AND DUP2 MSTORE PUSH1 0x20 ADD SWAP1 DUP2 MSTORE PUSH1 0x20 ADD PUSH0 KECCAK256 PUSH0 PUSH2 0x100 EXP DUP2 SLOAD DUP2 PUSH1 0xFF MUL NOT AND SWAP1 DUP4 ISZERO ISZERO MUL OR SWAP1 SSTORE POP PUSH1 0x6 PUSH0 DUP2 SLOAD DUP1 SWAP3 SWAP2 SWAP1 PUSH2 0x7C7 SWAP1 PUSH2 0x10FE JUMP JUMPDEST SWAP2 SWAP1 POP SSTORE POP PUSH1 0x3 PUSH1 0x6 SLOAD LT PUSH2 0x877 JUMPI PUSH1 0x4 PUSH0 SWAP1 SLOAD SWAP1 PUSH2 0x100 EXP SWAP1 DIV PUSH20 0xFFFFFFFFFFFFFFFFFFFFFFFFFFFFFFFFFFFFFFFF AND PUSH0 DUP1 PUSH2 0x100 EXP DUP2 SLOAD DUP2 PUSH20 0xFFFFFFFFFFFFFFFFFFFFFFFFFFFFFFFFFFFFFFFF MUL NOT AND SWAP1 DUP4 PUSH20 0xFFFFFFFFFFFFFFFFFFFFFFFFFFFFFFFFFFFFFFFF AND MUL OR SWAP1 SSTORE POP PUSH0 PUSH1 0x4 PUSH0 PUSH2 0x100 EXP DUP2 SLOAD DUP2 PUSH20 0xFFFFFFFFFFFFFFFFFFFFFFFFFFFFFFFFFFFFFFFF MUL NOT AND SWAP1 DUP4 PUSH20 0xFFFFFFFFFFFFFFFFFFFFFFFFFFFFFFFFFFFFFFFF AND MUL OR SWAP1 SSTORE POP JUMPDEST POP JUMP JUMPDEST PUSH1 0x60 PUSH0 DUP1 SLOAD SWAP1 PUSH2 0x100 EXP SWAP1 DIV PUSH20 0xFFFFFFFFFFFFFFFFFFFFFFFFFFFFFFFFFFFFFFFF AND PUSH20 0xFFFFFFFFFFFFFFFFFFFFFFFFFFFFFFFFFFFFFFFF AND CALLER PUSH20 0xFFFFFFFFFFFFFFFFFFFFFFFFFFFFFFFFFFFFFFFF AND EQ PUSH2 0xA2B JUMPI PUSH1 0x2 PUSH0 CALLER PUSH20 0xFFFFFFFFFFFFFFFFFFFFFFFFFFFFFFFFFFFFFFFF AND PUSH20 0xFFFFFFFFFFFFFFFFFFFFFFFFFFFFFFFFFFFFFFFF AND DUP2 MSTORE PUSH1 0x20 ADD SWAP1 DUP2 MSTORE PUSH1 0x20 ADD PUSH0 KECCAK256 PUSH0 SWAP1 SLOAD SWAP1 PUSH2 0x100 EXP SWAP1 DIV PUSH1 0xFF AND PUSH2 0x957 JUMPI PUSH1 0x40 MLOAD PUSH32 0x8C379A000000000000000000000000000000000000000000000000000000000 DUP2 MSTORE PUSH1 0x4 ADD PUSH2 0x94E SWAP1 PUSH2 0x11B5 JUMP JUMPDEST PUSH1 0x40 MLOAD DUP1 SWAP2 SUB SWAP1 REVERT JUMPDEST DUP3 PUSH1 0x1 PUSH0 CALLER PUSH20 0xFFFFFFFFFFFFFFFFFFFFFFFFFFFFFFFFFFFFFFFF AND PUSH20 0xFFFFFFFFFFFFFFFFFFFFFFFFFFFFFFFFFFFFFFFF AND DUP2 MSTORE PUSH1 0x20 ADD SWAP1 DUP2 MSTORE PUSH1 0x20 ADD PUSH0 KECCAK256 SLOAD LT ISZERO PUSH2 0x9D7 JUMPI PUSH1 0x40 MLOAD PUSH32 0x8C379A000000000000000000000000000000000000000000000000000000000 DUP2 MSTORE PUSH1 0x4 ADD PUSH2 0x9CE SWAP1 PUSH2 0x1243 JUMP JUMPDEST PUSH1 0x40 MLOAD DUP1 SWAP2 SUB SWAP1 REVERT JUMPDEST DUP3 PUSH1 0x1 PUSH0 CALLER PUSH20 0xFFFFFFFFFFFFFFFFFFFFFFFFFFFFFFFFFFFFFFFF AND PUSH20 0xFFFFFFFFFFFFFFFFFFFFFFFFFFFFFFFFFFFFFFFF AND DUP2 MSTORE PUSH1 0x20 ADD SWAP1 DUP2 MSTORE PUSH1 0x20 ADD PUSH0 KECCAK256 PUSH0 DUP3 DUP3 SLOAD PUSH2 0xA23 SWAP2 SWAP1 PUSH2 0x1261 JUMP JUMPDEST SWAP3 POP POP DUP2 SWAP1 SSTORE POP JUMPDEST PUSH0 DUP1 DUP6 PUSH20 0xFFFFFFFFFFFFFFFFFFFFFFFFFFFFFFFFFFFFFFFF AND DUP6 DUP6 PUSH1 0x40 MLOAD PUSH2 0xA53 SWAP2 SWAP1 PUSH2 0x12CE JUMP JUMPDEST PUSH0 PUSH1 0x40 MLOAD DUP1 DUP4 SUB DUP2 DUP6 DUP8 GAS CALL SWAP3 POP POP POP RETURNDATASIZE DUP1 PUSH0 DUP2 EQ PUSH2 0xA8D JUMPI PUSH1 0x40 MLOAD SWAP2 POP PUSH1 0x1F NOT PUSH1 0x3F RETURNDATASIZE ADD AND DUP3 ADD PUSH1 0x40 MSTORE RETURNDATASIZE DUP3 MSTORE RETURNDATASIZE PUSH0 PUSH1 0x20 DUP5 ADD RETURNDATACOPY PUSH2 0xA92 JUMP JUMPDEST PUSH1 0x60 SWAP2 POP JUMPDEST POP SWAP2 POP SWAP2 POP DUP2 PUSH2 0xAD7 JUMPI PUSH1 0x40 MLOAD PUSH32 0x8C379A000000000000000000000000000000000000000000000000000000000 DUP2 MSTORE PUSH1 0x4 ADD PUSH2 0xACE SWAP1 PUSH2 0x1354 JUMP JUMPDEST PUSH1 0x40 MLOAD DUP1 SWAP2 SUB SWAP1 REVERT JUMPDEST DUP1 SWAP3 POP POP POP SWAP4 SWAP3 POP POP POP JUMP JUMPDEST PUSH0 PUSH1 0x40 MLOAD SWAP1 POP SWAP1 JUMP JUMPDEST PUSH0 DUP1 REVERT JUMPDEST PUSH0 DUP1 REVERT JUMPDEST PUSH0 PUSH20 0xFFFFFFFFFFFFFFFFFFFFFFFFFFFFFFFFFFFFFFFF DUP3 AND SWAP1 POP SWAP2 SWAP1 POP JUMP JUMPDEST PUSH0 PUSH2 0xB1D DUP3 PUSH2 0xAF4 JUMP JUMPDEST SWAP1 POP SWAP2 SWAP1 POP JUMP JUMPDEST PUSH2 0xB2D DUP2 PUSH2 0xB13 JUMP JUMPDEST DUP2 EQ PUSH2 0xB37 JUMPI PUSH0 DUP1 REVERT JUMPDEST POP JUMP JUMPDEST PUSH0 DUP2 CALLDATALOAD SWAP1 POP PUSH2 0xB48 DUP2 PUSH2 0xB24 JUMP JUMPDEST SWAP3 SWAP2 POP POP JUMP JUMPDEST PUSH0 PUSH1 0x20 DUP3 DUP5 SUB SLT ISZERO PUSH2 0xB63 JUMPI PUSH2 0xB62 PUSH2 0xAEC JUMP JUMPDEST JUMPDEST PUSH0 PUSH2 0xB70 DUP5 DUP3 DUP6 ADD PUSH2 0xB3A JUMP JUMPDEST SWAP2 POP POP SWAP3 SWAP2 POP POP JUMP JUMPDEST PUSH0 DUP2 ISZERO ISZERO SWAP1 POP SWAP2 SWAP1 POP JUMP JUMPDEST PUSH2 0xB8D DUP2 PUSH2 0xB79 JUMP JUMPDEST DUP3 MSTORE POP POP JUMP JUMPDEST PUSH0 PUSH1 0x20 DUP3 ADD SWAP1 POP PUSH2 0xBA6 PUSH0 DUP4 ADD DUP5 PUSH2 0xB84 JUMP JUMPDEST SWAP3 SWAP2 POP POP JUMP JUMPDEST PUSH2 0xBB5 DUP2 PUSH2 0xB79 JUMP JUMPDEST DUP2 EQ PUSH2 0xBBF JUMPI PUSH0 DUP1 REVERT JUMPDEST POP JUMP JUMPDEST PUSH0 DUP2 CALLDATALOAD SWAP1 POP PUSH2 0xBD0 DUP2 PUSH2 0xBAC JUMP JUMPDEST SWAP3 SWAP2 POP POP JUMP JUMPDEST PUSH0 DUP1 PUSH1 0x40 DUP4 DUP6 SUB SLT ISZERO PUSH2 0xBEC JUMPI PUSH2 0xBEB PUSH2 0xAEC JUMP JUMPDEST JUMPDEST PUSH0 PUSH2 0xBF9 DUP6 DUP3 DUP7 ADD PUSH2 0xB3A JUMP JUMPDEST SWAP3 POP POP PUSH1 0x20 PUSH2 0xC0A DUP6 DUP3 DUP7 ADD PUSH2 0xBC2 JUMP JUMPDEST SWAP2 POP POP SWAP3 POP SWAP3 SWAP1 POP JUMP JUMPDEST PUSH0 DUP2 SWAP1 POP SWAP2 SWAP1 POP JUMP JUMPDEST PUSH2 0xC26 DUP2 PUSH2 0xC14 JUMP JUMPDEST DUP2 EQ PUSH2 0xC30 JUMPI PUSH0 DUP1 REVERT JUMPDEST POP JUMP JUMPDEST PUSH0 DUP2 CALLDATALOAD SWAP1 POP PUSH2 0xC41 DUP2 PUSH2 0xC1D JUMP JUMPDEST SWAP3 SWAP2 POP POP JUMP JUMPDEST PUSH0 DUP1 PUSH1 0x40 DUP4 DUP6 SUB SLT ISZERO PUSH2 0xC5D JUMPI PUSH2 0xC5C PUSH2 0xAEC JUMP JUMPDEST JUMPDEST PUSH0 PUSH2 0xC6A DUP6 DUP3 DUP7 ADD PUSH2 0xB3A JUMP JUMPDEST SWAP3 POP POP PUSH1 0x20 PUSH2 0xC7B DUP6 DUP3 DUP7 ADD PUSH2 0xC33 JUMP JUMPDEST SWAP2 POP POP SWAP3 POP SWAP3 SWAP1 POP JUMP JUMPDEST PUSH2 0xC8E DUP2 PUSH2 0xC14 JUMP JUMPDEST DUP3 MSTORE POP POP JUMP JUMPDEST PUSH0 PUSH1 0x20 DUP3 ADD SWAP1 POP PUSH2 0xCA7 PUSH0 DUP4 ADD DUP5 PUSH2 0xC85 JUMP JUMPDEST SWAP3 SWAP2 POP POP JUMP JUMPDEST PUSH0 PUSH2 0xCB7 DUP3 PUSH2 0xAF4 JUMP JUMPDEST SWAP1 POP SWAP2 SWAP1 POP JUMP JUMPDEST PUSH2 0xCC7 DUP2 PUSH2 0xCAD JUMP JUMPDEST DUP3 MSTORE POP POP JUMP JUMPDEST PUSH0 PUSH1 0x20 DUP3 ADD SWAP1 POP PUSH2 0xCE0 PUSH0 DUP4 ADD DUP5 PUSH2 0xCBE JUMP JUMPDEST SWAP3 SWAP2 POP POP JUMP JUMPDEST PUSH2 0xCEF DUP2 PUSH2 0xCAD JUMP JUMPDEST DUP2 EQ PUSH2 0xCF9 JUMPI PUSH0 DUP1 REVERT JUMPDEST POP JUMP JUMPDEST PUSH0 DUP2 CALLDATALOAD SWAP1 POP PUSH2 0xD0A DUP2 PUSH2 0xCE6 JUMP JUMPDEST SWAP3 SWAP2 POP POP JUMP JUMPDEST PUSH0 PUSH1 0x20 DUP3 DUP5 SUB SLT ISZERO PUSH2 0xD25 JUMPI PUSH2 0xD24 PUSH2 0xAEC JUMP JUMPDEST JUMPDEST PUSH0 PUSH2 0xD32 DUP5 DUP3 DUP6 ADD PUSH2 0xCFC JUMP JUMPDEST SWAP2 POP POP SWAP3 SWAP2 POP POP JUMP JUMPDEST PUSH0 DUP1 REVERT JUMPDEST PUSH0 DUP1 REVERT JUMPDEST PUSH0 PUSH1 0x1F NOT PUSH1 0x1F DUP4 ADD AND SWAP1 POP SWAP2 SWAP1 POP JUMP JUMPDEST PUSH32 0x4E487B7100000000000000000000000000000000000000000000000000000000 PUSH0 MSTORE PUSH1 0x41 PUSH1 0x4 MSTORE PUSH1 0x24 PUSH0 REVERT JUMPDEST PUSH2 0xD89 DUP3 PUSH2 0xD43 JUMP JUMPDEST DUP2 ADD DUP2 DUP2 LT PUSH8 0xFFFFFFFFFFFFFFFF DUP3 GT OR ISZERO PUSH2 0xDA8 JUMPI PUSH2 0xDA7 PUSH2 0xD53 JUMP JUMPDEST JUMPDEST DUP1 PUSH1 0x40 MSTORE POP POP POP JUMP JUMPDEST PUSH0 PUSH2 0xDBA PUSH2 0xAE3 JUMP JUMPDEST SWAP1 POP PUSH2 0xDC6 DUP3 DUP3 PUSH2 0xD80 JUMP JUMPDEST SWAP2 SWAP1 POP JUMP JUMPDEST PUSH0 PUSH8 0xFFFFFFFFFFFFFFFF DUP3 GT ISZERO PUSH2 0xDE5 JUMPI PUSH2 0xDE4 PUSH2 0xD53 JUMP JUMPDEST JUMPDEST PUSH2 0xDEE DUP3 PUSH2 0xD43 JUMP JUMPDEST SWAP1 POP PUSH1 0x20 DUP2 ADD SWAP1 POP SWAP2 SWAP1 POP JUMP JUMPDEST DUP3 DUP2 DUP4 CALLDATACOPY PUSH0 DUP4 DUP4 ADD MSTORE POP POP POP JUMP JUMPDEST PUSH0 PUSH2 0xE1B PUSH2 0xE16 DUP5 PUSH2 0xDCB JUMP JUMPDEST PUSH2 0xDB1 JUMP JUMPDEST SWAP1 POP DUP3 DUP2 MSTORE PUSH1 0x20 DUP2 ADD DUP5 DUP5 DUP5 ADD GT ISZERO PUSH2 0xE37 JUMPI PUSH2 0xE36 PUSH2 0xD3F JUMP JUMPDEST JUMPDEST PUSH2 0xE42 DUP5 DUP3 DUP6 PUSH2 0xDFB JUMP JUMPDEST POP SWAP4 SWAP3 POP POP POP JUMP JUMPDEST PUSH0 DUP3 PUSH1 0x1F DUP4 ADD SLT PUSH2 0xE5E JUMPI PUSH2 0xE5D PUSH2 0xD3B JUMP JUMPDEST JUMPDEST DUP2 CALLDATALOAD PUSH2 0xE6E DUP5 DUP3 PUSH1 0x20 DUP7 ADD PUSH2 0xE09 JUMP JUMPDEST SWAP2 POP POP SWAP3 SWAP2 POP POP JUMP JUMPDEST PUSH0 DUP1 PUSH0 PUSH1 0x60 DUP5 DUP7 SUB SLT ISZERO PUSH2 0xE8E JUMPI PUSH2 0xE8D PUSH2 0xAEC JUMP JUMPDEST JUMPDEST PUSH0 PUSH2 0xE9B DUP7 DUP3 DUP8 ADD PUSH2 0xCFC JUMP JUMPDEST SWAP4 POP POP PUSH1 0x20 PUSH2 0xEAC DUP7 DUP3 DUP8 ADD PUSH2 0xC33 JUMP JUMPDEST SWAP3 POP POP PUSH1 0x40 DUP5 ADD CALLDATALOAD PUSH8 0xFFFFFFFFFFFFFFFF DUP2 GT ISZERO PUSH2 0xECD JUMPI PUSH2 0xECC PUSH2 0xAF0 JUMP JUMPDEST JUMPDEST PUSH2 0xED9 DUP7 DUP3 DUP8 ADD PUSH2 0xE4A JUMP JUMPDEST SWAP2 POP POP SWAP3 POP SWAP3 POP SWAP3 JUMP JUMPDEST PUSH0 DUP2 MLOAD SWAP1 POP SWAP2 SWAP1 POP JUMP JUMPDEST PUSH0 DUP3 DUP3 MSTORE PUSH1 0x20 DUP3 ADD SWAP1 POP SWAP3 SWAP2 POP POP JUMP JUMPDEST DUP3 DUP2 DUP4 MCOPY PUSH0 DUP4 DUP4 ADD MSTORE POP POP POP JUMP JUMPDEST PUSH0 PUSH2 0xF15 DUP3 PUSH2 0xEE3 JUMP JUMPDEST PUSH2 0xF1F DUP2 DUP6 PUSH2 0xEED JUMP JUMPDEST SWAP4 POP PUSH2 0xF2F DUP2 DUP6 PUSH1 0x20 DUP7 ADD PUSH2 0xEFD JUMP JUMPDEST PUSH2 0xF38 DUP2 PUSH2 0xD43 JUMP JUMPDEST DUP5 ADD SWAP2 POP POP SWAP3 SWAP2 POP POP JUMP JUMPDEST PUSH0 PUSH1 0x20 DUP3 ADD SWAP1 POP DUP2 DUP2 SUB PUSH0 DUP4 ADD MSTORE PUSH2 0xF5B DUP2 DUP5 PUSH2 0xF0B JUMP JUMPDEST SWAP1 POP SWAP3 SWAP2 POP POP JUMP JUMPDEST PUSH0 DUP3 DUP3 MSTORE PUSH1 0x20 DUP3 ADD SWAP1 POP SWAP3 SWAP2 POP POP JUMP JUMPDEST PUSH32 0x596F7520617265206E6F7420746865206F776E65722100000000000000000000 PUSH0 DUP3 ADD MSTORE POP JUMP JUMPDEST PUSH0 PUSH2 0xFA7 PUSH1 0x16 DUP4 PUSH2 0xF63 JUMP JUMPDEST SWAP2 POP PUSH2 0xFB2 DUP3 PUSH2 0xF73 JUMP JUMPDEST PUSH1 0x20 DUP3 ADD SWAP1 POP SWAP2 SWAP1 POP JUMP JUMPDEST PUSH0 PUSH1 0x20 DUP3 ADD SWAP1 POP DUP2 DUP2 SUB PUSH0 DUP4 ADD MSTORE PUSH2 0xFD4 DUP2 PUSH2 0xF9B JUMP JUMPDEST SWAP1 POP SWAP2 SWAP1 POP JUMP JUMPDEST PUSH32 0x596F7520617265206E6F74206120677561726469616E206F6620746869732077 PUSH0 DUP3 ADD MSTORE PUSH32 0x616C6C6574210000000000000000000000000000000000000000000000000000 PUSH1 0x20 DUP3 ADD MSTORE POP JUMP JUMPDEST PUSH0 PUSH2 0x1035 PUSH1 0x26 DUP4 PUSH2 0xF63 JUMP JUMPDEST SWAP2 POP PUSH2 0x1040 DUP3 PUSH2 0xFDB JUMP JUMPDEST PUSH1 0x40 DUP3 ADD SWAP1 POP SWAP2 SWAP1 POP JUMP JUMPDEST PUSH0 PUSH1 0x20 DUP3 ADD SWAP1 POP DUP2 DUP2 SUB PUSH0 DUP4 ADD MSTORE PUSH2 0x1062 DUP2 PUSH2 0x1029 JUMP JUMPDEST SWAP1 POP SWAP2 SWAP1 POP JUMP JUMPDEST PUSH32 0x596F752061726520616C72656164792061737369676E65642100000000000000 PUSH0 DUP3 ADD MSTORE POP JUMP JUMPDEST PUSH0 PUSH2 0x109D PUSH1 0x19 DUP4 PUSH2 0xF63 JUMP JUMPDEST SWAP2 POP PUSH2 0x10A8 DUP3 PUSH2 0x1069 JUMP JUMPDEST PUSH1 0x20 DUP3 ADD SWAP1 POP SWAP2 SWAP1 POP JUMP JUMPDEST PUSH0 PUSH1 0x20 DUP3 ADD SWAP1 POP DUP2 DUP2 SUB PUSH0 DUP4 ADD MSTORE PUSH2 0x10CA DUP2 PUSH2 0x1091 JUMP JUMPDEST SWAP1 POP SWAP2 SWAP1 POP JUMP JUMPDEST PUSH32 0x4E487B7100000000000000000000000000000000000000000000000000000000 PUSH0 MSTORE PUSH1 0x11 PUSH1 0x4 MSTORE PUSH1 0x24 PUSH0 REVERT JUMPDEST PUSH0 PUSH2 0x1108 DUP3 PUSH2 0xC14 JUMP JUMPDEST SWAP2 POP PUSH32 0xFFFFFFFFFFFFFFFFFFFFFFFFFFFFFFFFFFFFFFFFFFFFFFFFFFFFFFFFFFFFFFFF DUP3 SUB PUSH2 0x113A JUMPI PUSH2 0x1139 PUSH2 0x10D1 JUMP JUMPDEST JUMPDEST PUSH1 0x1 DUP3 ADD SWAP1 POP SWAP2 SWAP1 POP JUMP JUMPDEST PUSH32 0x596F7520617265206E6F7420616C6C6F77656420746F2073656E6420616E7974 PUSH0 DUP3 ADD MSTORE PUSH32 0x68696E672066726F6D207468697320736D61727420636F6E7472616374210000 PUSH1 0x20 DUP3 ADD MSTORE POP JUMP JUMPDEST PUSH0 PUSH2 0x119F PUSH1 0x3E DUP4 PUSH2 0xF63 JUMP JUMPDEST SWAP2 POP PUSH2 0x11AA DUP3 PUSH2 0x1145 JUMP JUMPDEST PUSH1 0x40 DUP3 ADD SWAP1 POP SWAP2 SWAP1 POP JUMP JUMPDEST PUSH0 PUSH1 0x20 DUP3 ADD SWAP1 POP DUP2 DUP2 SUB PUSH0 DUP4 ADD MSTORE PUSH2 0x11CC DUP2 PUSH2 0x1193 JUMP JUMPDEST SWAP1 POP SWAP2 SWAP1 POP JUMP JUMPDEST PUSH32 0x596F752061726520747279696E6720746F2073656E64206D6F7265206D6F6E65 PUSH0 DUP3 ADD MSTORE PUSH32 0x79207468616E20796F752061726520616C6C6F77656421000000000000000000 PUSH1 0x20 DUP3 ADD MSTORE POP JUMP JUMPDEST PUSH0 PUSH2 0x122D PUSH1 0x37 DUP4 PUSH2 0xF63 JUMP JUMPDEST SWAP2 POP PUSH2 0x1238 DUP3 PUSH2 0x11D3 JUMP JUMPDEST PUSH1 0x40 DUP3 ADD SWAP1 POP SWAP2 SWAP1 POP JUMP JUMPDEST PUSH0 PUSH1 0x20 DUP3 ADD SWAP1 POP DUP2 DUP2 SUB PUSH0 DUP4 ADD MSTORE PUSH2 0x125A DUP2 PUSH2 0x1221 JUMP JUMPDEST SWAP1 POP SWAP2 SWAP1 POP JUMP JUMPDEST PUSH0 PUSH2 0x126B DUP3 PUSH2 0xC14 JUMP JUMPDEST SWAP2 POP PUSH2 0x1276 DUP4 PUSH2 0xC14 JUMP JUMPDEST SWAP3 POP DUP3 DUP3 SUB SWAP1 POP DUP2 DUP2 GT ISZERO PUSH2 0x128E JUMPI PUSH2 0x128D PUSH2 0x10D1 JUMP JUMPDEST JUMPDEST SWAP3 SWAP2 POP POP JUMP JUMPDEST PUSH0 DUP2 SWAP1 POP SWAP3 SWAP2 POP POP JUMP JUMPDEST PUSH0 PUSH2 0x12A8 DUP3 PUSH2 0xEE3 JUMP JUMPDEST PUSH2 0x12B2 DUP2 DUP6 PUSH2 0x1294 JUMP JUMPDEST SWAP4 POP PUSH2 0x12C2 DUP2 DUP6 PUSH1 0x20 DUP7 ADD PUSH2 0xEFD JUMP JUMPDEST DUP1 DUP5 ADD SWAP2 POP POP SWAP3 SWAP2 POP POP JUMP JUMPDEST PUSH0 PUSH2 0x12D9 DUP3 DUP5 PUSH2 0x129E JUMP JUMPDEST SWAP2 POP DUP2 SWAP1 POP SWAP3 SWAP2 POP POP JUMP JUMPDEST PUSH32 0x41626F7274696E672C2063616C6C20776173206E6F7420737563636573736675 PUSH0 DUP3 ADD MSTORE PUSH32 0x6C21000000000000000000000000000000000000000000000000000000000000 PUSH1 0x20 DUP3 ADD MSTORE POP JUMP JUMPDEST PUSH0 PUSH2 0x133E PUSH1 0x22 DUP4 PUSH2 0xF63 JUMP JUMPDEST SWAP2 POP PUSH2 0x1349 DUP3 PUSH2 0x12E4 JUMP JUMPDEST PUSH1 0x40 DUP3 ADD SWAP1 POP SWAP2 SWAP1 POP JUMP JUMPDEST PUSH0 PUSH1 0x20 DUP3 ADD SWAP1 POP DUP2 DUP2 SUB PUSH0 DUP4 ADD MSTORE PUSH2 0x136B DUP2 PUSH2 0x1332 JUMP JUMPDEST SWAP1 POP SWAP2 SWAP1 POP JUMP INVALID LOG2 PUSH5 0x6970667358 0x22 SLT KECCAK256 GAS PUSH13 0x230B7827B03608151CD263EB80 PUSH6 0xD8F107080F98 STATICCALL 0xB4 ISZERO 0xC0 CALLDATASIZE DUP4 SWAP16 0xAD EXP COINBASE PUSH5 0x736F6C6343 STOP ADDMOD BYTE STOP CALLER "
				},
				"gasEstimates": {
					"creation": {
						"codeDepositCost": "1006400",
						"executionCost": "25310",
						"totalCost": "1031710"
					},
					"external": {
						"allowance(address)": "2802",
						"confirmationFromGuardiansForReset()": "347",
						"guardians(address)": "2834",
						"isAllowedToSend(address)": "2856",
						"owner()": "2549",
						"proposeNewOwner(address)": "138131",
						"setAllowance(address,uint256)": "49445",
						"setGuardian(address,bool)": "27191",
						"transfer(address,uint256,bytes)": "infinite"
					}
				},
				"methodIdentifiers": {
					"allowance(address)": "3e5beab9",
					"confirmationFromGuardiansForReset()": "58e404b1",
					"guardians(address)": "0633b14a",
					"isAllowedToSend(address)": "0bc605ad",
					"owner()": "8da5cb5b",
					"proposeNewOwner(address)": "b1f8100d",
					"setAllowance(address,uint256)": "310ec4a7",
					"setGuardian(address,bool)": "2b8a1c5a",
					"transfer(address,uint256,bytes)": "be45fd62"
				}
			},
			"storageLayout": {
				"storage": [
					{
						"astId": 20,
						"contract": "contracts/026_SmartContractWallet.sol:SmartContractWallet",
						"label": "owner",
						"offset": 0,
						"slot": "0",
						"type": "t_address_payable"
					},
					{
						"astId": 24,
						"contract": "contracts/026_SmartContractWallet.sol:SmartContractWallet",
						"label": "allowance",
						"offset": 0,
						"slot": "1",
						"type": "t_mapping(t_address,t_uint256)"
					},
					{
						"astId": 28,
						"contract": "contracts/026_SmartContractWallet.sol:SmartContractWallet",
						"label": "isAllowedToSend",
						"offset": 0,
						"slot": "2",
						"type": "t_mapping(t_address,t_bool)"
					},
					{
						"astId": 32,
						"contract": "contracts/026_SmartContractWallet.sol:SmartContractWallet",
						"label": "guardians",
						"offset": 0,
						"slot": "3",
						"type": "t_mapping(t_address,t_bool)"
					},
					{
						"astId": 34,
						"contract": "contracts/026_SmartContractWallet.sol:SmartContractWallet",
						"label": "nextowner",
						"offset": 0,
						"slot": "4",
						"type": "t_address_payable"
					},
					{
						"astId": 40,
						"contract": "contracts/026_SmartContractWallet.sol:SmartContractWallet",
						"label": "nextOwnerGuardianAssignedBool",
						"offset": 0,
						"slot": "5",
						"type": "t_mapping(t_address,t_mapping(t_address,t_bool))"
					},
					{
						"astId": 42,
						"contract": "contracts/026_SmartContractWallet.sol:SmartContractWallet",
						"label": "quardiansResetCount",
						"offset": 0,
						"slot": "6",
						"type": "t_uint256"
					}
				],
				"types": {
					"t_address": {
						"encoding": "inplace",
						"label": "address",
						"numberOfBytes": "20"
					},
					"t_address_payable": {
						"encoding": "inplace",
						"label": "address payable",
						"numberOfBytes": "20"
					},
					"t_bool": {
						"encoding": "inplace",
						"label": "bool",
						"numberOfBytes": "1"
					},
					"t_mapping(t_address,t_bool)": {
						"encoding": "mapping",
						"key": "t_address",
						"label": "mapping(address => bool)",
						"numberOfBytes": "32",
						"value": "t_bool"
					},
					"t_mapping(t_address,t_mapping(t_address,t_bool))": {
						"encoding": "mapping",
						"key": "t_address",
						"label": "mapping(address => mapping(address => bool))",
						"numberOfBytes": "32",
						"value": "t_mapping(t_address,t_bool)"
					},
					"t_mapping(t_address,t_uint256)": {
						"encoding": "mapping",
						"key": "t_address",
						"label": "mapping(address => uint256)",
						"numberOfBytes": "32",
						"value": "t_uint256"
					},
					"t_uint256": {
						"encoding": "inplace",
						"label": "uint256",
						"numberOfBytes": "32"
					}
				}
			},
			"userdoc": {
				"kind": "user",
				"methods": {},
				"version": 1
			}
		}
	}
}