{
	"contracts/019_ExampleStruct.sol": {
		"Wallet": {
			"abi": [
				{
					"inputs": [],
					"name": "payContract",
					"outputs": [],
					"stateMutability": "payable",
					"type": "function"
				},
				{
					"inputs": [],
					"name": "payment",
					"outputs": [
						{
							"internalType": "contract PaymentReceived",
							"name": "",
							"type": "address"
						}
					],
					"stateMutability": "view",
					"type": "function"
				}
			],
			"devdoc": {
				"kind": "dev",
				"methods": {},
				"version": 1
			},
			"evm": {
				"assembly": "    /* \"contracts/019_ExampleStruct.sol\":109:300  contract Wallet {... */\n  mstore(0x40, 0x80)\n  callvalue\n  dup1\n  iszero\n  tag_1\n  jumpi\n  0x00\n  dup1\n  revert\ntag_1:\n  pop\n  dataSize(sub_0)\n  dup1\n  dataOffset(sub_0)\n  0x00\n  codecopy\n  0x00\n  return\nstop\n\nsub_0: assembly {\n        /* \"contracts/019_ExampleStruct.sol\":109:300  contract Wallet {... */\n      mstore(0x40, 0x80)\n      jumpi(tag_1, lt(calldatasize, 0x04))\n      shr(0xe0, calldataload(0x00))\n      dup1\n      0x42f6487a\n      eq\n      tag_2\n      jumpi\n      dup1\n      0xecb0b862\n      eq\n      tag_3\n      jumpi\n    tag_1:\n      0x00\n      dup1\n      revert\n        /* \"contracts/019_ExampleStruct.sol\":131:161  PaymentReceived public payment */\n    tag_2:\n      callvalue\n      dup1\n      iszero\n      tag_4\n      jumpi\n      0x00\n      dup1\n      revert\n    tag_4:\n      pop\n      tag_5\n      tag_6\n      jump\t// in\n    tag_5:\n      mload(0x40)\n      tag_7\n      swap2\n      swap1\n      tag_8\n      jump\t// in\n    tag_7:\n      mload(0x40)\n      dup1\n      swap2\n      sub\n      swap1\n      return\n        /* \"contracts/019_ExampleStruct.sol\":168:298  function payContract() public payable {... */\n    tag_3:\n      tag_9\n      tag_10\n      jump\t// in\n    tag_9:\n      stop\n        /* \"contracts/019_ExampleStruct.sol\":131:161  PaymentReceived public payment */\n    tag_6:\n      0x00\n      dup1\n      sload\n      swap1\n      0x0100\n      exp\n      swap1\n      div\n      0xffffffffffffffffffffffffffffffffffffffff\n      and\n      dup2\n      jump\t// out\n        /* \"contracts/019_ExampleStruct.sol\":168:298  function payContract() public payable {... */\n    tag_10:\n        /* \"contracts/019_ExampleStruct.sol\":246:256  msg.sender */\n      caller\n        /* \"contracts/019_ExampleStruct.sol\":258:267  msg.value */\n      callvalue\n        /* \"contracts/019_ExampleStruct.sol\":226:268  new PaymentReceived(msg.sender, msg.value) */\n      mload(0x40)\n      tag_12\n      swap1\n      tag_13\n      jump\t// in\n    tag_12:\n      tag_14\n      swap3\n      swap2\n      swap1\n      tag_15\n      jump\t// in\n    tag_14:\n      mload(0x40)\n      dup1\n      swap2\n      sub\n      swap1\n      0x00\n      create\n      dup1\n      iszero\n      dup1\n      iszero\n      tag_16\n      jumpi\n      returndatasize\n      0x00\n      dup1\n      returndatacopy\n      revert(0x00, returndatasize)\n    tag_16:\n      pop\n        /* \"contracts/019_ExampleStruct.sol\":216:223  payment */\n      0x00\n      dup1\n        /* \"contracts/019_ExampleStruct.sol\":216:268  payment = new PaymentReceived(msg.sender, msg.value) */\n      0x0100\n      exp\n      dup2\n      sload\n      dup2\n      0xffffffffffffffffffffffffffffffffffffffff\n      mul\n      not\n      and\n      swap1\n      dup4\n      0xffffffffffffffffffffffffffffffffffffffff\n      and\n      mul\n      or\n      swap1\n      sstore\n      pop\n        /* \"contracts/019_ExampleStruct.sol\":168:298  function payContract() public payable {... */\n      jump\t// out\n    tag_13:\n      dataSize(sub_0)\n      dup1\n      dataOffset(sub_0)\n      dup4\n      codecopy\n      add\n      swap1\n      jump\t// out\n        /* \"#utility.yul\":7:133   */\n    tag_17:\n        /* \"#utility.yul\":44:51   */\n      0x00\n        /* \"#utility.yul\":84:126   */\n      0xffffffffffffffffffffffffffffffffffffffff\n        /* \"#utility.yul\":77:82   */\n      dup3\n        /* \"#utility.yul\":73:127   */\n      and\n        /* \"#utility.yul\":62:127   */\n      swap1\n      pop\n        /* \"#utility.yul\":7:133   */\n      swap2\n      swap1\n      pop\n      jump\t// out\n        /* \"#utility.yul\":139:199   */\n    tag_18:\n        /* \"#utility.yul\":167:170   */\n      0x00\n        /* \"#utility.yul\":188:193   */\n      dup2\n        /* \"#utility.yul\":181:193   */\n      swap1\n      pop\n        /* \"#utility.yul\":139:199   */\n      swap2\n      swap1\n      pop\n      jump\t// out\n        /* \"#utility.yul\":205:347   */\n    tag_19:\n        /* \"#utility.yul\":255:264   */\n      0x00\n        /* \"#utility.yul\":288:341   */\n      tag_31\n        /* \"#utility.yul\":306:340   */\n      tag_32\n        /* \"#utility.yul\":315:339   */\n      tag_33\n        /* \"#utility.yul\":333:338   */\n      dup5\n        /* \"#utility.yul\":315:339   */\n      tag_17\n      jump\t// in\n    tag_33:\n        /* \"#utility.yul\":306:340   */\n      tag_18\n      jump\t// in\n    tag_32:\n        /* \"#utility.yul\":288:341   */\n      tag_17\n      jump\t// in\n    tag_31:\n        /* \"#utility.yul\":275:341   */\n      swap1\n      pop\n        /* \"#utility.yul\":205:347   */\n      swap2\n      swap1\n      pop\n      jump\t// out\n        /* \"#utility.yul\":353:479   */\n    tag_20:\n        /* \"#utility.yul\":403:412   */\n      0x00\n        /* \"#utility.yul\":436:473   */\n      tag_35\n        /* \"#utility.yul\":467:472   */\n      dup3\n        /* \"#utility.yul\":436:473   */\n      tag_19\n      jump\t// in\n    tag_35:\n        /* \"#utility.yul\":423:473   */\n      swap1\n      pop\n        /* \"#utility.yul\":353:479   */\n      swap2\n      swap1\n      pop\n      jump\t// out\n        /* \"#utility.yul\":485:633   */\n    tag_21:\n        /* \"#utility.yul\":557:566   */\n      0x00\n        /* \"#utility.yul\":590:627   */\n      tag_37\n        /* \"#utility.yul\":621:626   */\n      dup3\n        /* \"#utility.yul\":590:627   */\n      tag_20\n      jump\t// in\n    tag_37:\n        /* \"#utility.yul\":577:627   */\n      swap1\n      pop\n        /* \"#utility.yul\":485:633   */\n      swap2\n      swap1\n      pop\n      jump\t// out\n        /* \"#utility.yul\":639:814   */\n    tag_22:\n        /* \"#utility.yul\":748:807   */\n      tag_39\n        /* \"#utility.yul\":801:806   */\n      dup2\n        /* \"#utility.yul\":748:807   */\n      tag_21\n      jump\t// in\n    tag_39:\n        /* \"#utility.yul\":743:746   */\n      dup3\n        /* \"#utility.yul\":736:808   */\n      mstore\n        /* \"#utility.yul\":639:814   */\n      pop\n      pop\n      jump\t// out\n        /* \"#utility.yul\":820:1086   */\n    tag_8:\n        /* \"#utility.yul\":935:939   */\n      0x00\n        /* \"#utility.yul\":973:975   */\n      0x20\n        /* \"#utility.yul\":962:971   */\n      dup3\n        /* \"#utility.yul\":958:976   */\n      add\n        /* \"#utility.yul\":950:976   */\n      swap1\n      pop\n        /* \"#utility.yul\":986:1079   */\n      tag_41\n        /* \"#utility.yul\":1076:1077   */\n      0x00\n        /* \"#utility.yul\":1065:1074   */\n      dup4\n        /* \"#utility.yul\":1061:1078   */\n      add\n        /* \"#utility.yul\":1052:1058   */\n      dup5\n        /* \"#utility.yul\":986:1079   */\n      tag_22\n      jump\t// in\n    tag_41:\n        /* \"#utility.yul\":820:1086   */\n      swap3\n      swap2\n      pop\n      pop\n      jump\t// out\n        /* \"#utility.yul\":1092:1188   */\n    tag_23:\n        /* \"#utility.yul\":1129:1136   */\n      0x00\n        /* \"#utility.yul\":1158:1182   */\n      tag_43\n        /* \"#utility.yul\":1176:1181   */\n      dup3\n        /* \"#utility.yul\":1158:1182   */\n      tag_17\n      jump\t// in\n    tag_43:\n        /* \"#utility.yul\":1147:1182   */\n      swap1\n      pop\n        /* \"#utility.yul\":1092:1188   */\n      swap2\n      swap1\n      pop\n      jump\t// out\n        /* \"#utility.yul\":1194:1312   */\n    tag_24:\n        /* \"#utility.yul\":1281:1305   */\n      tag_45\n        /* \"#utility.yul\":1299:1304   */\n      dup2\n        /* \"#utility.yul\":1281:1305   */\n      tag_23\n      jump\t// in\n    tag_45:\n        /* \"#utility.yul\":1276:1279   */\n      dup3\n        /* \"#utility.yul\":1269:1306   */\n      mstore\n        /* \"#utility.yul\":1194:1312   */\n      pop\n      pop\n      jump\t// out\n        /* \"#utility.yul\":1318:1395   */\n    tag_25:\n        /* \"#utility.yul\":1355:1362   */\n      0x00\n        /* \"#utility.yul\":1384:1389   */\n      dup2\n        /* \"#utility.yul\":1373:1389   */\n      swap1\n      pop\n        /* \"#utility.yul\":1318:1395   */\n      swap2\n      swap1\n      pop\n      jump\t// out\n        /* \"#utility.yul\":1401:1519   */\n    tag_26:\n        /* \"#utility.yul\":1488:1512   */\n      tag_48\n        /* \"#utility.yul\":1506:1511   */\n      dup2\n        /* \"#utility.yul\":1488:1512   */\n      tag_25\n      jump\t// in\n    tag_48:\n        /* \"#utility.yul\":1483:1486   */\n      dup3\n        /* \"#utility.yul\":1476:1513   */\n      mstore\n        /* \"#utility.yul\":1401:1519   */\n      pop\n      pop\n      jump\t// out\n        /* \"#utility.yul\":1525:1857   */\n    tag_15:\n        /* \"#utility.yul\":1646:1650   */\n      0x00\n        /* \"#utility.yul\":1684:1686   */\n      0x40\n        /* \"#utility.yul\":1673:1682   */\n      dup3\n        /* \"#utility.yul\":1669:1687   */\n      add\n        /* \"#utility.yul\":1661:1687   */\n      swap1\n      pop\n        /* \"#utility.yul\":1697:1768   */\n      tag_50\n        /* \"#utility.yul\":1765:1766   */\n      0x00\n        /* \"#utility.yul\":1754:1763   */\n      dup4\n        /* \"#utility.yul\":1750:1767   */\n      add\n        /* \"#utility.yul\":1741:1747   */\n      dup6\n        /* \"#utility.yul\":1697:1768   */\n      tag_24\n      jump\t// in\n    tag_50:\n        /* \"#utility.yul\":1778:1850   */\n      tag_51\n        /* \"#utility.yul\":1846:1848   */\n      0x20\n        /* \"#utility.yul\":1835:1844   */\n      dup4\n        /* \"#utility.yul\":1831:1849   */\n      add\n        /* \"#utility.yul\":1822:1828   */\n      dup5\n        /* \"#utility.yul\":1778:1850   */\n      tag_26\n      jump\t// in\n    tag_51:\n        /* \"#utility.yul\":1525:1857   */\n      swap4\n      swap3\n      pop\n      pop\n      pop\n      jump\t// out\n    stop\n\n    sub_0: assembly {\n            /* \"contracts/019_ExampleStruct.sol\":302:487  contract PaymentReceived {... */\n          mstore(0x40, 0x80)\n            /* \"contracts/019_ExampleStruct.sol\":386:485  constructor(address _from, uint256 _amount) {... */\n          callvalue\n          dup1\n          iszero\n          tag_1\n          jumpi\n          0x00\n          dup1\n          revert\n        tag_1:\n          pop\n          mload(0x40)\n          sub(codesize, bytecodeSize)\n          dup1\n          bytecodeSize\n          dup4\n          codecopy\n          dup2\n          dup2\n          add\n          0x40\n          mstore\n          dup2\n          add\n          swap1\n          tag_2\n          swap2\n          swap1\n          tag_3\n          jump\t// in\n        tag_2:\n            /* \"contracts/019_ExampleStruct.sol\":447:452  _from */\n          dup2\n            /* \"contracts/019_ExampleStruct.sol\":440:444  from */\n          0x00\n          dup1\n            /* \"contracts/019_ExampleStruct.sol\":440:452  from = _from */\n          0x0100\n          exp\n          dup2\n          sload\n          dup2\n          0xffffffffffffffffffffffffffffffffffffffff\n          mul\n          not\n          and\n          swap1\n          dup4\n          0xffffffffffffffffffffffffffffffffffffffff\n          and\n          mul\n          or\n          swap1\n          sstore\n          pop\n            /* \"contracts/019_ExampleStruct.sol\":471:478  _amount */\n          dup1\n            /* \"contracts/019_ExampleStruct.sol\":462:468  amount */\n          0x01\n            /* \"contracts/019_ExampleStruct.sol\":462:478  amount = _amount */\n          dup2\n          swap1\n          sstore\n          pop\n            /* \"contracts/019_ExampleStruct.sol\":386:485  constructor(address _from, uint256 _amount) {... */\n          pop\n          pop\n            /* \"contracts/019_ExampleStruct.sol\":302:487  contract PaymentReceived {... */\n          jump(tag_6)\n            /* \"#utility.yul\":88:205   */\n        tag_8:\n            /* \"#utility.yul\":197:198   */\n          0x00\n            /* \"#utility.yul\":194:195   */\n          dup1\n            /* \"#utility.yul\":187:199   */\n          revert\n            /* \"#utility.yul\":334:460   */\n        tag_10:\n            /* \"#utility.yul\":371:378   */\n          0x00\n            /* \"#utility.yul\":411:453   */\n          0xffffffffffffffffffffffffffffffffffffffff\n            /* \"#utility.yul\":404:409   */\n          dup3\n            /* \"#utility.yul\":400:454   */\n          and\n            /* \"#utility.yul\":389:454   */\n          swap1\n          pop\n            /* \"#utility.yul\":334:460   */\n          swap2\n          swap1\n          pop\n          jump\t// out\n            /* \"#utility.yul\":466:562   */\n        tag_11:\n            /* \"#utility.yul\":503:510   */\n          0x00\n            /* \"#utility.yul\":532:556   */\n          tag_23\n            /* \"#utility.yul\":550:555   */\n          dup3\n            /* \"#utility.yul\":532:556   */\n          tag_10\n          jump\t// in\n        tag_23:\n            /* \"#utility.yul\":521:556   */\n          swap1\n          pop\n            /* \"#utility.yul\":466:562   */\n          swap2\n          swap1\n          pop\n          jump\t// out\n            /* \"#utility.yul\":568:690   */\n        tag_12:\n            /* \"#utility.yul\":641:665   */\n          tag_25\n            /* \"#utility.yul\":659:664   */\n          dup2\n            /* \"#utility.yul\":641:665   */\n          tag_11\n          jump\t// in\n        tag_25:\n            /* \"#utility.yul\":634:639   */\n          dup2\n            /* \"#utility.yul\":631:666   */\n          eq\n            /* \"#utility.yul\":621:684   */\n          tag_26\n          jumpi\n            /* \"#utility.yul\":680:681   */\n          0x00\n            /* \"#utility.yul\":677:678   */\n          dup1\n            /* \"#utility.yul\":670:682   */\n          revert\n            /* \"#utility.yul\":621:684   */\n        tag_26:\n            /* \"#utility.yul\":568:690   */\n          pop\n          jump\t// out\n            /* \"#utility.yul\":696:839   */\n        tag_13:\n            /* \"#utility.yul\":753:758   */\n          0x00\n            /* \"#utility.yul\":784:790   */\n          dup2\n            /* \"#utility.yul\":778:791   */\n          mload\n            /* \"#utility.yul\":769:791   */\n          swap1\n          pop\n            /* \"#utility.yul\":800:833   */\n          tag_28\n            /* \"#utility.yul\":827:832   */\n          dup2\n            /* \"#utility.yul\":800:833   */\n          tag_12\n          jump\t// in\n        tag_28:\n            /* \"#utility.yul\":696:839   */\n          swap3\n          swap2\n          pop\n          pop\n          jump\t// out\n            /* \"#utility.yul\":845:922   */\n        tag_14:\n            /* \"#utility.yul\":882:889   */\n          0x00\n            /* \"#utility.yul\":911:916   */\n          dup2\n            /* \"#utility.yul\":900:916   */\n          swap1\n          pop\n            /* \"#utility.yul\":845:922   */\n          swap2\n          swap1\n          pop\n          jump\t// out\n            /* \"#utility.yul\":928:1050   */\n        tag_15:\n            /* \"#utility.yul\":1001:1025   */\n          tag_31\n            /* \"#utility.yul\":1019:1024   */\n          dup2\n            /* \"#utility.yul\":1001:1025   */\n          tag_14\n          jump\t// in\n        tag_31:\n            /* \"#utility.yul\":994:999   */\n          dup2\n            /* \"#utility.yul\":991:1026   */\n          eq\n            /* \"#utility.yul\":981:1044   */\n          tag_32\n          jumpi\n            /* \"#utility.yul\":1040:1041   */\n          0x00\n            /* \"#utility.yul\":1037:1038   */\n          dup1\n            /* \"#utility.yul\":1030:1042   */\n          revert\n            /* \"#utility.yul\":981:1044   */\n        tag_32:\n            /* \"#utility.yul\":928:1050   */\n          pop\n          jump\t// out\n            /* \"#utility.yul\":1056:1199   */\n        tag_16:\n            /* \"#utility.yul\":1113:1118   */\n          0x00\n            /* \"#utility.yul\":1144:1150   */\n          dup2\n            /* \"#utility.yul\":1138:1151   */\n          mload\n            /* \"#utility.yul\":1129:1151   */\n          swap1\n          pop\n            /* \"#utility.yul\":1160:1193   */\n          tag_34\n            /* \"#utility.yul\":1187:1192   */\n          dup2\n            /* \"#utility.yul\":1160:1193   */\n          tag_15\n          jump\t// in\n        tag_34:\n            /* \"#utility.yul\":1056:1199   */\n          swap3\n          swap2\n          pop\n          pop\n          jump\t// out\n            /* \"#utility.yul\":1205:1712   */\n        tag_3:\n            /* \"#utility.yul\":1284:1290   */\n          0x00\n            /* \"#utility.yul\":1292:1298   */\n          dup1\n            /* \"#utility.yul\":1341:1343   */\n          0x40\n            /* \"#utility.yul\":1329:1338   */\n          dup4\n            /* \"#utility.yul\":1320:1327   */\n          dup6\n            /* \"#utility.yul\":1316:1339   */\n          sub\n            /* \"#utility.yul\":1312:1344   */\n          slt\n            /* \"#utility.yul\":1309:1428   */\n          iszero\n          tag_36\n          jumpi\n            /* \"#utility.yul\":1347:1426   */\n          tag_37\n          tag_8\n          jump\t// in\n        tag_37:\n            /* \"#utility.yul\":1309:1428   */\n        tag_36:\n            /* \"#utility.yul\":1467:1468   */\n          0x00\n            /* \"#utility.yul\":1492:1556   */\n          tag_38\n            /* \"#utility.yul\":1548:1555   */\n          dup6\n            /* \"#utility.yul\":1539:1545   */\n          dup3\n            /* \"#utility.yul\":1528:1537   */\n          dup7\n            /* \"#utility.yul\":1524:1546   */\n          add\n            /* \"#utility.yul\":1492:1556   */\n          tag_13\n          jump\t// in\n        tag_38:\n            /* \"#utility.yul\":1482:1556   */\n          swap3\n          pop\n            /* \"#utility.yul\":1438:1566   */\n          pop\n            /* \"#utility.yul\":1605:1607   */\n          0x20\n            /* \"#utility.yul\":1631:1695   */\n          tag_39\n            /* \"#utility.yul\":1687:1694   */\n          dup6\n            /* \"#utility.yul\":1678:1684   */\n          dup3\n            /* \"#utility.yul\":1667:1676   */\n          dup7\n            /* \"#utility.yul\":1663:1685   */\n          add\n            /* \"#utility.yul\":1631:1695   */\n          tag_16\n          jump\t// in\n        tag_39:\n            /* \"#utility.yul\":1621:1695   */\n          swap2\n          pop\n            /* \"#utility.yul\":1576:1705   */\n          pop\n            /* \"#utility.yul\":1205:1712   */\n          swap3\n          pop\n          swap3\n          swap1\n          pop\n          jump\t// out\n            /* \"contracts/019_ExampleStruct.sol\":302:487  contract PaymentReceived {... */\n        tag_6:\n          dataSize(sub_0)\n          dup1\n          dataOffset(sub_0)\n          0x00\n          codecopy\n          0x00\n          return\n        stop\n\n        sub_0: assembly {\n                /* \"contracts/019_ExampleStruct.sol\":302:487  contract PaymentReceived {... */\n              mstore(0x40, 0x80)\n              callvalue\n              dup1\n              iszero\n              tag_1\n              jumpi\n              0x00\n              dup1\n              revert\n            tag_1:\n              pop\n              jumpi(tag_2, lt(calldatasize, 0x04))\n              shr(0xe0, calldataload(0x00))\n              dup1\n              0xaa8c217c\n              eq\n              tag_3\n              jumpi\n              dup1\n              0xd5ce3389\n              eq\n              tag_4\n              jumpi\n            tag_2:\n              0x00\n              dup1\n              revert\n                /* \"contracts/019_ExampleStruct.sol\":358:379  uint256 public amount */\n            tag_3:\n              tag_5\n              tag_6\n              jump\t// in\n            tag_5:\n              mload(0x40)\n              tag_7\n              swap2\n              swap1\n              tag_8\n              jump\t// in\n            tag_7:\n              mload(0x40)\n              dup1\n              swap2\n              sub\n              swap1\n              return\n                /* \"contracts/019_ExampleStruct.sol\":333:352  address public from */\n            tag_4:\n              tag_9\n              tag_10\n              jump\t// in\n            tag_9:\n              mload(0x40)\n              tag_11\n              swap2\n              swap1\n              tag_12\n              jump\t// in\n            tag_11:\n              mload(0x40)\n              dup1\n              swap2\n              sub\n              swap1\n              return\n                /* \"contracts/019_ExampleStruct.sol\":358:379  uint256 public amount */\n            tag_6:\n              sload(0x01)\n              dup2\n              jump\t// out\n                /* \"contracts/019_ExampleStruct.sol\":333:352  address public from */\n            tag_10:\n              0x00\n              dup1\n              sload\n              swap1\n              0x0100\n              exp\n              swap1\n              div\n              0xffffffffffffffffffffffffffffffffffffffff\n              and\n              dup2\n              jump\t// out\n                /* \"#utility.yul\":7:84   */\n            tag_13:\n                /* \"#utility.yul\":44:51   */\n              0x00\n                /* \"#utility.yul\":73:78   */\n              dup2\n                /* \"#utility.yul\":62:78   */\n              swap1\n              pop\n                /* \"#utility.yul\":7:84   */\n              swap2\n              swap1\n              pop\n              jump\t// out\n                /* \"#utility.yul\":90:208   */\n            tag_14:\n                /* \"#utility.yul\":177:201   */\n              tag_21\n                /* \"#utility.yul\":195:200   */\n              dup2\n                /* \"#utility.yul\":177:201   */\n              tag_13\n              jump\t// in\n            tag_21:\n                /* \"#utility.yul\":172:175   */\n              dup3\n                /* \"#utility.yul\":165:202   */\n              mstore\n                /* \"#utility.yul\":90:208   */\n              pop\n              pop\n              jump\t// out\n                /* \"#utility.yul\":214:436   */\n            tag_8:\n                /* \"#utility.yul\":307:311   */\n              0x00\n                /* \"#utility.yul\":345:347   */\n              0x20\n                /* \"#utility.yul\":334:343   */\n              dup3\n                /* \"#utility.yul\":330:348   */\n              add\n                /* \"#utility.yul\":322:348   */\n              swap1\n              pop\n                /* \"#utility.yul\":358:429   */\n              tag_23\n                /* \"#utility.yul\":426:427   */\n              0x00\n                /* \"#utility.yul\":415:424   */\n              dup4\n                /* \"#utility.yul\":411:428   */\n              add\n                /* \"#utility.yul\":402:408   */\n              dup5\n                /* \"#utility.yul\":358:429   */\n              tag_14\n              jump\t// in\n            tag_23:\n                /* \"#utility.yul\":214:436   */\n              swap3\n              swap2\n              pop\n              pop\n              jump\t// out\n                /* \"#utility.yul\":442:568   */\n            tag_15:\n                /* \"#utility.yul\":479:486   */\n              0x00\n                /* \"#utility.yul\":519:561   */\n              0xffffffffffffffffffffffffffffffffffffffff\n                /* \"#utility.yul\":512:517   */\n              dup3\n                /* \"#utility.yul\":508:562   */\n              and\n                /* \"#utility.yul\":497:562   */\n              swap1\n              pop\n                /* \"#utility.yul\":442:568   */\n              swap2\n              swap1\n              pop\n              jump\t// out\n                /* \"#utility.yul\":574:670   */\n            tag_16:\n                /* \"#utility.yul\":611:618   */\n              0x00\n                /* \"#utility.yul\":640:664   */\n              tag_26\n                /* \"#utility.yul\":658:663   */\n              dup3\n                /* \"#utility.yul\":640:664   */\n              tag_15\n              jump\t// in\n            tag_26:\n                /* \"#utility.yul\":629:664   */\n              swap1\n              pop\n                /* \"#utility.yul\":574:670   */\n              swap2\n              swap1\n              pop\n              jump\t// out\n                /* \"#utility.yul\":676:794   */\n            tag_17:\n                /* \"#utility.yul\":763:787   */\n              tag_28\n                /* \"#utility.yul\":781:786   */\n              dup2\n                /* \"#utility.yul\":763:787   */\n              tag_16\n              jump\t// in\n            tag_28:\n                /* \"#utility.yul\":758:761   */\n              dup3\n                /* \"#utility.yul\":751:788   */\n              mstore\n                /* \"#utility.yul\":676:794   */\n              pop\n              pop\n              jump\t// out\n                /* \"#utility.yul\":800:1022   */\n            tag_12:\n                /* \"#utility.yul\":893:897   */\n              0x00\n                /* \"#utility.yul\":931:933   */\n              0x20\n                /* \"#utility.yul\":920:929   */\n              dup3\n                /* \"#utility.yul\":916:934   */\n              add\n                /* \"#utility.yul\":908:934   */\n              swap1\n              pop\n                /* \"#utility.yul\":944:1015   */\n              tag_30\n                /* \"#utility.yul\":1012:1013   */\n              0x00\n                /* \"#utility.yul\":1001:1010   */\n              dup4\n                /* \"#utility.yul\":997:1014   */\n              add\n                /* \"#utility.yul\":988:994   */\n              dup5\n                /* \"#utility.yul\":944:1015   */\n              tag_17\n              jump\t// in\n            tag_30:\n                /* \"#utility.yul\":800:1022   */\n              swap3\n              swap2\n              pop\n              pop\n              jump\t// out\n\n            auxdata: 0xa2646970667358221220c79ba0b95ecea9aa54fc9c8fd52254995f341cfcbec9bdd5c9016eca6b3ab9a164736f6c634300081a0033\n        }\n    }\n\n    auxdata: 0xa2646970667358221220ced8856c0d4de94b27111577eccd8fee1f928b13bf204ea9fe8a7c84be26e6c664736f6c634300081a0033\n}\n",
				"bytecode": {
					"linkReferences": {},
					"object": "6080604052348015600e575f80fd5b506104e18061001c5f395ff3fe608060405260043610610028575f3560e01c806342f6487a1461002c578063ecb0b86214610056575b5f80fd5b348015610037575f80fd5b50610040610060565b60405161004d919061017d565b60405180910390f35b61005e610083565b005b5f8054906101000a900473ffffffffffffffffffffffffffffffffffffffff1681565b3334604051610091906100f6565b61009c9291906101ce565b604051809103905ff0801580156100b5573d5f803e3d5ffd5b505f806101000a81548173ffffffffffffffffffffffffffffffffffffffff021916908373ffffffffffffffffffffffffffffffffffffffff160217905550565b6102b6806101f683390190565b5f73ffffffffffffffffffffffffffffffffffffffff82169050919050565b5f819050919050565b5f61014561014061013b84610103565b610122565b610103565b9050919050565b5f6101568261012b565b9050919050565b5f6101678261014c565b9050919050565b6101778161015d565b82525050565b5f6020820190506101905f83018461016e565b92915050565b5f6101a082610103565b9050919050565b6101b081610196565b82525050565b5f819050919050565b6101c8816101b6565b82525050565b5f6040820190506101e15f8301856101a7565b6101ee60208301846101bf565b939250505056fe608060405234801561000f575f80fd5b506040516102b63803806102b68339818101604052810190610031919061010f565b815f806101000a81548173ffffffffffffffffffffffffffffffffffffffff021916908373ffffffffffffffffffffffffffffffffffffffff16021790555080600181905550505061014d565b5f80fd5b5f73ffffffffffffffffffffffffffffffffffffffff82169050919050565b5f6100ab82610082565b9050919050565b6100bb816100a1565b81146100c5575f80fd5b50565b5f815190506100d6816100b2565b92915050565b5f819050919050565b6100ee816100dc565b81146100f8575f80fd5b50565b5f81519050610109816100e5565b92915050565b5f80604083850312156101255761012461007e565b5b5f610132858286016100c8565b9250506020610143858286016100fb565b9150509250929050565b61015c8061015a5f395ff3fe608060405234801561000f575f80fd5b5060043610610034575f3560e01c8063aa8c217c14610038578063d5ce338914610056575b5f80fd5b610040610074565b60405161004d91906100b5565b60405180910390f35b61005e61007a565b60405161006b919061010d565b60405180910390f35b60015481565b5f8054906101000a900473ffffffffffffffffffffffffffffffffffffffff1681565b5f819050919050565b6100af8161009d565b82525050565b5f6020820190506100c85f8301846100a6565b92915050565b5f73ffffffffffffffffffffffffffffffffffffffff82169050919050565b5f6100f7826100ce565b9050919050565b610107816100ed565b82525050565b5f6020820190506101205f8301846100fe565b9291505056fea2646970667358221220c79ba0b95ecea9aa54fc9c8fd52254995f341cfcbec9bdd5c9016eca6b3ab9a164736f6c634300081a0033a2646970667358221220ced8856c0d4de94b27111577eccd8fee1f928b13bf204ea9fe8a7c84be26e6c664736f6c634300081a0033",
					"opcodes": "PUSH1 0x80 PUSH1 0x40 MSTORE CALLVALUE DUP1 ISZERO PUSH1 0xE JUMPI PUSH0 DUP1 REVERT JUMPDEST POP PUSH2 0x4E1 DUP1 PUSH2 0x1C PUSH0 CODECOPY PUSH0 RETURN INVALID PUSH1 0x80 PUSH1 0x40 MSTORE PUSH1 0x4 CALLDATASIZE LT PUSH2 0x28 JUMPI PUSH0 CALLDATALOAD PUSH1 0xE0 SHR DUP1 PUSH4 0x42F6487A EQ PUSH2 0x2C JUMPI DUP1 PUSH4 0xECB0B862 EQ PUSH2 0x56 JUMPI JUMPDEST PUSH0 DUP1 REVERT JUMPDEST CALLVALUE DUP1 ISZERO PUSH2 0x37 JUMPI PUSH0 DUP1 REVERT JUMPDEST POP PUSH2 0x40 PUSH2 0x60 JUMP JUMPDEST PUSH1 0x40 MLOAD PUSH2 0x4D SWAP2 SWAP1 PUSH2 0x17D JUMP JUMPDEST PUSH1 0x40 MLOAD DUP1 SWAP2 SUB SWAP1 RETURN JUMPDEST PUSH2 0x5E PUSH2 0x83 JUMP JUMPDEST STOP JUMPDEST PUSH0 DUP1 SLOAD SWAP1 PUSH2 0x100 EXP SWAP1 DIV PUSH20 0xFFFFFFFFFFFFFFFFFFFFFFFFFFFFFFFFFFFFFFFF AND DUP2 JUMP JUMPDEST CALLER CALLVALUE PUSH1 0x40 MLOAD PUSH2 0x91 SWAP1 PUSH2 0xF6 JUMP JUMPDEST PUSH2 0x9C SWAP3 SWAP2 SWAP1 PUSH2 0x1CE JUMP JUMPDEST PUSH1 0x40 MLOAD DUP1 SWAP2 SUB SWAP1 PUSH0 CREATE DUP1 ISZERO DUP1 ISZERO PUSH2 0xB5 JUMPI RETURNDATASIZE PUSH0 DUP1 RETURNDATACOPY RETURNDATASIZE PUSH0 REVERT JUMPDEST POP PUSH0 DUP1 PUSH2 0x100 EXP DUP2 SLOAD DUP2 PUSH20 0xFFFFFFFFFFFFFFFFFFFFFFFFFFFFFFFFFFFFFFFF MUL NOT AND SWAP1 DUP4 PUSH20 0xFFFFFFFFFFFFFFFFFFFFFFFFFFFFFFFFFFFFFFFF AND MUL OR SWAP1 SSTORE POP JUMP JUMPDEST PUSH2 0x2B6 DUP1 PUSH2 0x1F6 DUP4 CODECOPY ADD SWAP1 JUMP JUMPDEST PUSH0 PUSH20 0xFFFFFFFFFFFFFFFFFFFFFFFFFFFFFFFFFFFFFFFF DUP3 AND SWAP1 POP SWAP2 SWAP1 POP JUMP JUMPDEST PUSH0 DUP2 SWAP1 POP SWAP2 SWAP1 POP JUMP JUMPDEST PUSH0 PUSH2 0x145 PUSH2 0x140 PUSH2 0x13B DUP5 PUSH2 0x103 JUMP JUMPDEST PUSH2 0x122 JUMP JUMPDEST PUSH2 0x103 JUMP JUMPDEST SWAP1 POP SWAP2 SWAP1 POP JUMP JUMPDEST PUSH0 PUSH2 0x156 DUP3 PUSH2 0x12B JUMP JUMPDEST SWAP1 POP SWAP2 SWAP1 POP JUMP JUMPDEST PUSH0 PUSH2 0x167 DUP3 PUSH2 0x14C JUMP JUMPDEST SWAP1 POP SWAP2 SWAP1 POP JUMP JUMPDEST PUSH2 0x177 DUP2 PUSH2 0x15D JUMP JUMPDEST DUP3 MSTORE POP POP JUMP JUMPDEST PUSH0 PUSH1 0x20 DUP3 ADD SWAP1 POP PUSH2 0x190 PUSH0 DUP4 ADD DUP5 PUSH2 0x16E JUMP JUMPDEST SWAP3 SWAP2 POP POP JUMP JUMPDEST PUSH0 PUSH2 0x1A0 DUP3 PUSH2 0x103 JUMP JUMPDEST SWAP1 POP SWAP2 SWAP1 POP JUMP JUMPDEST PUSH2 0x1B0 DUP2 PUSH2 0x196 JUMP JUMPDEST DUP3 MSTORE POP POP JUMP JUMPDEST PUSH0 DUP2 SWAP1 POP SWAP2 SWAP1 POP JUMP JUMPDEST PUSH2 0x1C8 DUP2 PUSH2 0x1B6 JUMP JUMPDEST DUP3 MSTORE POP POP JUMP JUMPDEST PUSH0 PUSH1 0x40 DUP3 ADD SWAP1 POP PUSH2 0x1E1 PUSH0 DUP4 ADD DUP6 PUSH2 0x1A7 JUMP JUMPDEST PUSH2 0x1EE PUSH1 0x20 DUP4 ADD DUP5 PUSH2 0x1BF JUMP JUMPDEST SWAP4 SWAP3 POP POP POP JUMP INVALID PUSH1 0x80 PUSH1 0x40 MSTORE CALLVALUE DUP1 ISZERO PUSH2 0xF JUMPI PUSH0 DUP1 REVERT JUMPDEST POP PUSH1 0x40 MLOAD PUSH2 0x2B6 CODESIZE SUB DUP1 PUSH2 0x2B6 DUP4 CODECOPY DUP2 DUP2 ADD PUSH1 0x40 MSTORE DUP2 ADD SWAP1 PUSH2 0x31 SWAP2 SWAP1 PUSH2 0x10F JUMP JUMPDEST DUP2 PUSH0 DUP1 PUSH2 0x100 EXP DUP2 SLOAD DUP2 PUSH20 0xFFFFFFFFFFFFFFFFFFFFFFFFFFFFFFFFFFFFFFFF MUL NOT AND SWAP1 DUP4 PUSH20 0xFFFFFFFFFFFFFFFFFFFFFFFFFFFFFFFFFFFFFFFF AND MUL OR SWAP1 SSTORE POP DUP1 PUSH1 0x1 DUP2 SWAP1 SSTORE POP POP POP PUSH2 0x14D JUMP JUMPDEST PUSH0 DUP1 REVERT JUMPDEST PUSH0 PUSH20 0xFFFFFFFFFFFFFFFFFFFFFFFFFFFFFFFFFFFFFFFF DUP3 AND SWAP1 POP SWAP2 SWAP1 POP JUMP JUMPDEST PUSH0 PUSH2 0xAB DUP3 PUSH2 0x82 JUMP JUMPDEST SWAP1 POP SWAP2 SWAP1 POP JUMP JUMPDEST PUSH2 0xBB DUP2 PUSH2 0xA1 JUMP JUMPDEST DUP2 EQ PUSH2 0xC5 JUMPI PUSH0 DUP1 REVERT JUMPDEST POP JUMP JUMPDEST PUSH0 DUP2 MLOAD SWAP1 POP PUSH2 0xD6 DUP2 PUSH2 0xB2 JUMP JUMPDEST SWAP3 SWAP2 POP POP JUMP JUMPDEST PUSH0 DUP2 SWAP1 POP SWAP2 SWAP1 POP JUMP JUMPDEST PUSH2 0xEE DUP2 PUSH2 0xDC JUMP JUMPDEST DUP2 EQ PUSH2 0xF8 JUMPI PUSH0 DUP1 REVERT JUMPDEST POP JUMP JUMPDEST PUSH0 DUP2 MLOAD SWAP1 POP PUSH2 0x109 DUP2 PUSH2 0xE5 JUMP JUMPDEST SWAP3 SWAP2 POP POP JUMP JUMPDEST PUSH0 DUP1 PUSH1 0x40 DUP4 DUP6 SUB SLT ISZERO PUSH2 0x125 JUMPI PUSH2 0x124 PUSH2 0x7E JUMP JUMPDEST JUMPDEST PUSH0 PUSH2 0x132 DUP6 DUP3 DUP7 ADD PUSH2 0xC8 JUMP JUMPDEST SWAP3 POP POP PUSH1 0x20 PUSH2 0x143 DUP6 DUP3 DUP7 ADD PUSH2 0xFB JUMP JUMPDEST SWAP2 POP POP SWAP3 POP SWAP3 SWAP1 POP JUMP JUMPDEST PUSH2 0x15C DUP1 PUSH2 0x15A PUSH0 CODECOPY PUSH0 RETURN INVALID PUSH1 0x80 PUSH1 0x40 MSTORE CALLVALUE DUP1 ISZERO PUSH2 0xF JUMPI PUSH0 DUP1 REVERT JUMPDEST POP PUSH1 0x4 CALLDATASIZE LT PUSH2 0x34 JUMPI PUSH0 CALLDATALOAD PUSH1 0xE0 SHR DUP1 PUSH4 0xAA8C217C EQ PUSH2 0x38 JUMPI DUP1 PUSH4 0xD5CE3389 EQ PUSH2 0x56 JUMPI JUMPDEST PUSH0 DUP1 REVERT JUMPDEST PUSH2 0x40 PUSH2 0x74 JUMP JUMPDEST PUSH1 0x40 MLOAD PUSH2 0x4D SWAP2 SWAP1 PUSH2 0xB5 JUMP JUMPDEST PUSH1 0x40 MLOAD DUP1 SWAP2 SUB SWAP1 RETURN JUMPDEST PUSH2 0x5E PUSH2 0x7A JUMP JUMPDEST PUSH1 0x40 MLOAD PUSH2 0x6B SWAP2 SWAP1 PUSH2 0x10D JUMP JUMPDEST PUSH1 0x40 MLOAD DUP1 SWAP2 SUB SWAP1 RETURN JUMPDEST PUSH1 0x1 SLOAD DUP2 JUMP JUMPDEST PUSH0 DUP1 SLOAD SWAP1 PUSH2 0x100 EXP SWAP1 DIV PUSH20 0xFFFFFFFFFFFFFFFFFFFFFFFFFFFFFFFFFFFFFFFF AND DUP2 JUMP JUMPDEST PUSH0 DUP2 SWAP1 POP SWAP2 SWAP1 POP JUMP JUMPDEST PUSH2 0xAF DUP2 PUSH2 0x9D JUMP JUMPDEST DUP3 MSTORE POP POP JUMP JUMPDEST PUSH0 PUSH1 0x20 DUP3 ADD SWAP1 POP PUSH2 0xC8 PUSH0 DUP4 ADD DUP5 PUSH2 0xA6 JUMP JUMPDEST SWAP3 SWAP2 POP POP JUMP JUMPDEST PUSH0 PUSH20 0xFFFFFFFFFFFFFFFFFFFFFFFFFFFFFFFFFFFFFFFF DUP3 AND SWAP1 POP SWAP2 SWAP1 POP JUMP JUMPDEST PUSH0 PUSH2 0xF7 DUP3 PUSH2 0xCE JUMP JUMPDEST SWAP1 POP SWAP2 SWAP1 POP JUMP JUMPDEST PUSH2 0x107 DUP2 PUSH2 0xED JUMP JUMPDEST DUP3 MSTORE POP POP JUMP JUMPDEST PUSH0 PUSH1 0x20 DUP3 ADD SWAP1 POP PUSH2 0x120 PUSH0 DUP4 ADD DUP5 PUSH2 0xFE JUMP JUMPDEST SWAP3 SWAP2 POP POP JUMP INVALID LOG2 PUSH5 0x6970667358 0x22 SLT KECCAK256 0xC7 SWAP12 LOG0 0xB9 MCOPY 0xCE 0xA9 0xAA SLOAD 0xFC SWAP13 DUP16 0xD5 0x22 SLOAD SWAP10 PUSH0 CALLVALUE SHR 0xFC 0xBE 0xC9 0xBD 0xD5 0xC9 ADD PUSH15 0xCA6B3AB9A164736F6C634300081A00 CALLER LOG2 PUSH5 0x6970667358 0x22 SLT KECCAK256 0xCE 0xD8 DUP6 PUSH13 0xD4DE94B27111577ECCD8FEE1F SWAP3 DUP12 SGT 0xBF KECCAK256 0x4E 0xA9 INVALID DUP11 PUSH29 0x84BE26E6C664736F6C634300081A003300000000000000000000000000 "
				},
				"gasEstimates": {
					"creation": {
						"codeDepositCost": "249800",
						"executionCost": "292",
						"totalCost": "250092"
					},
					"external": {
						"payContract()": "infinite",
						"payment()": "infinite"
					}
				},
				"methodIdentifiers": {
					"payContract()": "ecb0b862",
					"payment()": "42f6487a"
				}
			},
			"storageLayout": {
				"storage": [
					{
						"astId": 4,
						"contract": "contracts/019_ExampleStruct.sol:Wallet",
						"label": "payment",
						"offset": 0,
						"slot": "0",
						"type": "t_contract(PaymentReceived)41"
					}
				],
				"types": {
					"t_contract(PaymentReceived)41": {
						"encoding": "inplace",
						"label": "contract PaymentReceived",
						"numberOfBytes": "20"
					}
				}
			},
			"userdoc": {
				"kind": "user",
				"methods": {},
				"version": 1
			}
		}
	}
}