{
	"data": {
		"bytecode": {
			"linkReferences": {},
			"object": "6080604052348015600e575f80fd5b506108128061001c5f395ff3fe60806040526004361061003e575f3560e01c806316c05aa21461004257806327e235e31461004c57806355e14fe61461008a578063f274c897146100c6575b5f80fd5b61004a6100ee565b005b348015610057575f80fd5b50610072600480360381019061006d9190610554565b610254565b60405161008193929190610597565b60405180910390f35b348015610095575f80fd5b506100b060048036038101906100ab91906105f6565b610279565b6040516100bd9190610670565b60405180910390f35b3480156100d1575f80fd5b506100ec60048036038101906100e791906106c4565b6102f5565b005b345f803373ffffffffffffffffffffffffffffffffffffffff1673ffffffffffffffffffffffffffffffffffffffff1681526020019081526020015f205f015f82825461013b919061072f565b925050819055505f6040518060400160405280348152602001428152509050805f803373ffffffffffffffffffffffffffffffffffffffff1673ffffffffffffffffffffffffffffffffffffffff1681526020019081526020015f206002015f805f3373ffffffffffffffffffffffffffffffffffffffff1673ffffffffffffffffffffffffffffffffffffffff1681526020019081526020015f206001015481526020019081526020015f205f820151815f0155602082015181600101559050505f803373ffffffffffffffffffffffffffffffffffffffff1673ffffffffffffffffffffffffffffffffffffffff1681526020019081526020015f206001015f81548092919061024c90610762565b919050555050565b5f602052805f5260405f205f91509050805f0154908060010154908060030154905083565b6102816104de565b5f808473ffffffffffffffffffffffffffffffffffffffff1673ffffffffffffffffffffffffffffffffffffffff1681526020019081526020015f206002015f8381526020019081526020015f206040518060400160405290815f8201548152602001600182015481525050905092915050565b805f803373ffffffffffffffffffffffffffffffffffffffff1673ffffffffffffffffffffffffffffffffffffffff1681526020019081526020015f205f015f82825461034291906107a9565b925050819055505f6040518060400160405280838152602001428152509050805f803373ffffffffffffffffffffffffffffffffffffffff1673ffffffffffffffffffffffffffffffffffffffff1681526020019081526020015f206004015f805f3373ffffffffffffffffffffffffffffffffffffffff1673ffffffffffffffffffffffffffffffffffffffff1681526020019081526020015f206003015481526020019081526020015f205f820151815f0155602082015181600101559050505f803373ffffffffffffffffffffffffffffffffffffffff1673ffffffffffffffffffffffffffffffffffffffff1681526020019081526020015f206003015f81548092919061045390610762565b91905055505f803373ffffffffffffffffffffffffffffffffffffffff1673ffffffffffffffffffffffffffffffffffffffff1681526020019081526020015f20508273ffffffffffffffffffffffffffffffffffffffff166108fc8390811502906040515f60405180830381858888f193505050501580156104d8573d5f803e3d5ffd5b50505050565b60405180604001604052805f81526020015f81525090565b5f80fd5b5f73ffffffffffffffffffffffffffffffffffffffff82169050919050565b5f610523826104fa565b9050919050565b61053381610519565b811461053d575f80fd5b50565b5f8135905061054e8161052a565b92915050565b5f60208284031215610569576105686104f6565b5b5f61057684828501610540565b91505092915050565b5f819050919050565b6105918161057f565b82525050565b5f6060820190506105aa5f830186610588565b6105b76020830185610588565b6105c46040830184610588565b949350505050565b6105d58161057f565b81146105df575f80fd5b50565b5f813590506105f0816105cc565b92915050565b5f806040838503121561060c5761060b6104f6565b5b5f61061985828601610540565b925050602061062a858286016105e2565b9150509250929050565b61063d8161057f565b82525050565b604082015f8201516106575f850182610634565b50602082015161066a6020850182610634565b50505050565b5f6040820190506106835f830184610643565b92915050565b5f610693826104fa565b9050919050565b6106a381610689565b81146106ad575f80fd5b50565b5f813590506106be8161069a565b92915050565b5f80604083850312156106da576106d96104f6565b5b5f6106e7858286016106b0565b92505060206106f8858286016105e2565b9150509250929050565b7f4e487b71000000000000000000000000000000000000000000000000000000005f52601160045260245ffd5b5f6107398261057f565b91506107448361057f565b925082820190508082111561075c5761075b610702565b5b92915050565b5f61076c8261057f565b91507fffffffffffffffffffffffffffffffffffffffffffffffffffffffffffffffff820361079e5761079d610702565b5b600182019050919050565b5f6107b38261057f565b91506107be8361057f565b92508282039050818111156107d6576107d5610702565b5b9291505056fea26469706673582212206b130d296d1c7f3bb27e56ce077e46d6ee7619d600c1443af59646f5e96a070364736f6c634300081a0033",
			"opcodes": "PUSH1 0x80 PUSH1 0x40 MSTORE CALLVALUE DUP1 ISZERO PUSH1 0xE JUMPI PUSH0 DUP1 REVERT JUMPDEST POP PUSH2 0x812 DUP1 PUSH2 0x1C PUSH0 CODECOPY PUSH0 RETURN INVALID PUSH1 0x80 PUSH1 0x40 MSTORE PUSH1 0x4 CALLDATASIZE LT PUSH2 0x3E JUMPI PUSH0 CALLDATALOAD PUSH1 0xE0 SHR DUP1 PUSH4 0x16C05AA2 EQ PUSH2 0x42 JUMPI DUP1 PUSH4 0x27E235E3 EQ PUSH2 0x4C JUMPI DUP1 PUSH4 0x55E14FE6 EQ PUSH2 0x8A JUMPI DUP1 PUSH4 0xF274C897 EQ PUSH2 0xC6 JUMPI JUMPDEST PUSH0 DUP1 REVERT JUMPDEST PUSH2 0x4A PUSH2 0xEE JUMP JUMPDEST STOP JUMPDEST CALLVALUE DUP1 ISZERO PUSH2 0x57 JUMPI PUSH0 DUP1 REVERT JUMPDEST POP PUSH2 0x72 PUSH1 0x4 DUP1 CALLDATASIZE SUB DUP2 ADD SWAP1 PUSH2 0x6D SWAP2 SWAP1 PUSH2 0x554 JUMP JUMPDEST PUSH2 0x254 JUMP JUMPDEST PUSH1 0x40 MLOAD PUSH2 0x81 SWAP4 SWAP3 SWAP2 SWAP1 PUSH2 0x597 JUMP JUMPDEST PUSH1 0x40 MLOAD DUP1 SWAP2 SUB SWAP1 RETURN JUMPDEST CALLVALUE DUP1 ISZERO PUSH2 0x95 JUMPI PUSH0 DUP1 REVERT JUMPDEST POP PUSH2 0xB0 PUSH1 0x4 DUP1 CALLDATASIZE SUB DUP2 ADD SWAP1 PUSH2 0xAB SWAP2 SWAP1 PUSH2 0x5F6 JUMP JUMPDEST PUSH2 0x279 JUMP JUMPDEST PUSH1 0x40 MLOAD PUSH2 0xBD SWAP2 SWAP1 PUSH2 0x670 JUMP JUMPDEST PUSH1 0x40 MLOAD DUP1 SWAP2 SUB SWAP1 RETURN JUMPDEST CALLVALUE DUP1 ISZERO PUSH2 0xD1 JUMPI PUSH0 DUP1 REVERT JUMPDEST POP PUSH2 0xEC PUSH1 0x4 DUP1 CALLDATASIZE SUB DUP2 ADD SWAP1 PUSH2 0xE7 SWAP2 SWAP1 PUSH2 0x6C4 JUMP JUMPDEST PUSH2 0x2F5 JUMP JUMPDEST STOP JUMPDEST CALLVALUE PUSH0 DUP1 CALLER PUSH20 0xFFFFFFFFFFFFFFFFFFFFFFFFFFFFFFFFFFFFFFFF AND PUSH20 0xFFFFFFFFFFFFFFFFFFFFFFFFFFFFFFFFFFFFFFFF AND DUP2 MSTORE PUSH1 0x20 ADD SWAP1 DUP2 MSTORE PUSH1 0x20 ADD PUSH0 KECCAK256 PUSH0 ADD PUSH0 DUP3 DUP3 SLOAD PUSH2 0x13B SWAP2 SWAP1 PUSH2 0x72F JUMP JUMPDEST SWAP3 POP POP DUP2 SWAP1 SSTORE POP PUSH0 PUSH1 0x40 MLOAD DUP1 PUSH1 0x40 ADD PUSH1 0x40 MSTORE DUP1 CALLVALUE DUP2 MSTORE PUSH1 0x20 ADD TIMESTAMP DUP2 MSTORE POP SWAP1 POP DUP1 PUSH0 DUP1 CALLER PUSH20 0xFFFFFFFFFFFFFFFFFFFFFFFFFFFFFFFFFFFFFFFF AND PUSH20 0xFFFFFFFFFFFFFFFFFFFFFFFFFFFFFFFFFFFFFFFF AND DUP2 MSTORE PUSH1 0x20 ADD SWAP1 DUP2 MSTORE PUSH1 0x20 ADD PUSH0 KECCAK256 PUSH1 0x2 ADD PUSH0 DUP1 PUSH0 CALLER PUSH20 0xFFFFFFFFFFFFFFFFFFFFFFFFFFFFFFFFFFFFFFFF AND PUSH20 0xFFFFFFFFFFFFFFFFFFFFFFFFFFFFFFFFFFFFFFFF AND DUP2 MSTORE PUSH1 0x20 ADD SWAP1 DUP2 MSTORE PUSH1 0x20 ADD PUSH0 KECCAK256 PUSH1 0x1 ADD SLOAD DUP2 MSTORE PUSH1 0x20 ADD SWAP1 DUP2 MSTORE PUSH1 0x20 ADD PUSH0 KECCAK256 PUSH0 DUP3 ADD MLOAD DUP2 PUSH0 ADD SSTORE PUSH1 0x20 DUP3 ADD MLOAD DUP2 PUSH1 0x1 ADD SSTORE SWAP1 POP POP PUSH0 DUP1 CALLER PUSH20 0xFFFFFFFFFFFFFFFFFFFFFFFFFFFFFFFFFFFFFFFF AND PUSH20 0xFFFFFFFFFFFFFFFFFFFFFFFFFFFFFFFFFFFFFFFF AND DUP2 MSTORE PUSH1 0x20 ADD SWAP1 DUP2 MSTORE PUSH1 0x20 ADD PUSH0 KECCAK256 PUSH1 0x1 ADD PUSH0 DUP2 SLOAD DUP1 SWAP3 SWAP2 SWAP1 PUSH2 0x24C SWAP1 PUSH2 0x762 JUMP JUMPDEST SWAP2 SWAP1 POP SSTORE POP POP JUMP JUMPDEST PUSH0 PUSH1 0x20 MSTORE DUP1 PUSH0 MSTORE PUSH1 0x40 PUSH0 KECCAK256 PUSH0 SWAP2 POP SWAP1 POP DUP1 PUSH0 ADD SLOAD SWAP1 DUP1 PUSH1 0x1 ADD SLOAD SWAP1 DUP1 PUSH1 0x3 ADD SLOAD SWAP1 POP DUP4 JUMP JUMPDEST PUSH2 0x281 PUSH2 0x4DE JUMP JUMPDEST PUSH0 DUP1 DUP5 PUSH20 0xFFFFFFFFFFFFFFFFFFFFFFFFFFFFFFFFFFFFFFFF AND PUSH20 0xFFFFFFFFFFFFFFFFFFFFFFFFFFFFFFFFFFFFFFFF AND DUP2 MSTORE PUSH1 0x20 ADD SWAP1 DUP2 MSTORE PUSH1 0x20 ADD PUSH0 KECCAK256 PUSH1 0x2 ADD PUSH0 DUP4 DUP2 MSTORE PUSH1 0x20 ADD SWAP1 DUP2 MSTORE PUSH1 0x20 ADD PUSH0 KECCAK256 PUSH1 0x40 MLOAD DUP1 PUSH1 0x40 ADD PUSH1 0x40 MSTORE SWAP1 DUP2 PUSH0 DUP3 ADD SLOAD DUP2 MSTORE PUSH1 0x20 ADD PUSH1 0x1 DUP3 ADD SLOAD DUP2 MSTORE POP POP SWAP1 POP SWAP3 SWAP2 POP POP JUMP JUMPDEST DUP1 PUSH0 DUP1 CALLER PUSH20 0xFFFFFFFFFFFFFFFFFFFFFFFFFFFFFFFFFFFFFFFF AND PUSH20 0xFFFFFFFFFFFFFFFFFFFFFFFFFFFFFFFFFFFFFFFF AND DUP2 MSTORE PUSH1 0x20 ADD SWAP1 DUP2 MSTORE PUSH1 0x20 ADD PUSH0 KECCAK256 PUSH0 ADD PUSH0 DUP3 DUP3 SLOAD PUSH2 0x342 SWAP2 SWAP1 PUSH2 0x7A9 JUMP JUMPDEST SWAP3 POP POP DUP2 SWAP1 SSTORE POP PUSH0 PUSH1 0x40 MLOAD DUP1 PUSH1 0x40 ADD PUSH1 0x40 MSTORE DUP1 DUP4 DUP2 MSTORE PUSH1 0x20 ADD TIMESTAMP DUP2 MSTORE POP SWAP1 POP DUP1 PUSH0 DUP1 CALLER PUSH20 0xFFFFFFFFFFFFFFFFFFFFFFFFFFFFFFFFFFFFFFFF AND PUSH20 0xFFFFFFFFFFFFFFFFFFFFFFFFFFFFFFFFFFFFFFFF AND DUP2 MSTORE PUSH1 0x20 ADD SWAP1 DUP2 MSTORE PUSH1 0x20 ADD PUSH0 KECCAK256 PUSH1 0x4 ADD PUSH0 DUP1 PUSH0 CALLER PUSH20 0xFFFFFFFFFFFFFFFFFFFFFFFFFFFFFFFFFFFFFFFF AND PUSH20 0xFFFFFFFFFFFFFFFFFFFFFFFFFFFFFFFFFFFFFFFF AND DUP2 MSTORE PUSH1 0x20 ADD SWAP1 DUP2 MSTORE PUSH1 0x20 ADD PUSH0 KECCAK256 PUSH1 0x3 ADD SLOAD DUP2 MSTORE PUSH1 0x20 ADD SWAP1 DUP2 MSTORE PUSH1 0x20 ADD PUSH0 KECCAK256 PUSH0 DUP3 ADD MLOAD DUP2 PUSH0 ADD SSTORE PUSH1 0x20 DUP3 ADD MLOAD DUP2 PUSH1 0x1 ADD SSTORE SWAP1 POP POP PUSH0 DUP1 CALLER PUSH20 0xFFFFFFFFFFFFFFFFFFFFFFFFFFFFFFFFFFFFFFFF AND PUSH20 0xFFFFFFFFFFFFFFFFFFFFFFFFFFFFFFFFFFFFFFFF AND DUP2 MSTORE PUSH1 0x20 ADD SWAP1 DUP2 MSTORE PUSH1 0x20 ADD PUSH0 KECCAK256 PUSH1 0x3 ADD PUSH0 DUP2 SLOAD DUP1 SWAP3 SWAP2 SWAP1 PUSH2 0x453 SWAP1 PUSH2 0x762 JUMP JUMPDEST SWAP2 SWAP1 POP SSTORE POP PUSH0 DUP1 CALLER PUSH20 0xFFFFFFFFFFFFFFFFFFFFFFFFFFFFFFFFFFFFFFFF AND PUSH20 0xFFFFFFFFFFFFFFFFFFFFFFFFFFFFFFFFFFFFFFFF AND DUP2 MSTORE PUSH1 0x20 ADD SWAP1 DUP2 MSTORE PUSH1 0x20 ADD PUSH0 KECCAK256 POP DUP3 PUSH20 0xFFFFFFFFFFFFFFFFFFFFFFFFFFFFFFFFFFFFFFFF AND PUSH2 0x8FC DUP4 SWAP1 DUP2 ISZERO MUL SWAP1 PUSH1 0x40 MLOAD PUSH0 PUSH1 0x40 MLOAD DUP1 DUP4 SUB DUP2 DUP6 DUP9 DUP9 CALL SWAP4 POP POP POP POP ISZERO DUP1 ISZERO PUSH2 0x4D8 JUMPI RETURNDATASIZE PUSH0 DUP1 RETURNDATACOPY RETURNDATASIZE PUSH0 REVERT JUMPDEST POP POP POP POP JUMP JUMPDEST PUSH1 0x40 MLOAD DUP1 PUSH1 0x40 ADD PUSH1 0x40 MSTORE DUP1 PUSH0 DUP2 MSTORE PUSH1 0x20 ADD PUSH0 DUP2 MSTORE POP SWAP1 JUMP JUMPDEST PUSH0 DUP1 REVERT JUMPDEST PUSH0 PUSH20 0xFFFFFFFFFFFFFFFFFFFFFFFFFFFFFFFFFFFFFFFF DUP3 AND SWAP1 POP SWAP2 SWAP1 POP JUMP JUMPDEST PUSH0 PUSH2 0x523 DUP3 PUSH2 0x4FA JUMP JUMPDEST SWAP1 POP SWAP2 SWAP1 POP JUMP JUMPDEST PUSH2 0x533 DUP2 PUSH2 0x519 JUMP JUMPDEST DUP2 EQ PUSH2 0x53D JUMPI PUSH0 DUP1 REVERT JUMPDEST POP JUMP JUMPDEST PUSH0 DUP2 CALLDATALOAD SWAP1 POP PUSH2 0x54E DUP2 PUSH2 0x52A JUMP JUMPDEST SWAP3 SWAP2 POP POP JUMP JUMPDEST PUSH0 PUSH1 0x20 DUP3 DUP5 SUB SLT ISZERO PUSH2 0x569 JUMPI PUSH2 0x568 PUSH2 0x4F6 JUMP JUMPDEST JUMPDEST PUSH0 PUSH2 0x576 DUP5 DUP3 DUP6 ADD PUSH2 0x540 JUMP JUMPDEST SWAP2 POP POP SWAP3 SWAP2 POP POP JUMP JUMPDEST PUSH0 DUP2 SWAP1 POP SWAP2 SWAP1 POP JUMP JUMPDEST PUSH2 0x591 DUP2 PUSH2 0x57F JUMP JUMPDEST DUP3 MSTORE POP POP JUMP JUMPDEST PUSH0 PUSH1 0x60 DUP3 ADD SWAP1 POP PUSH2 0x5AA PUSH0 DUP4 ADD DUP7 PUSH2 0x588 JUMP JUMPDEST PUSH2 0x5B7 PUSH1 0x20 DUP4 ADD DUP6 PUSH2 0x588 JUMP JUMPDEST PUSH2 0x5C4 PUSH1 0x40 DUP4 ADD DUP5 PUSH2 0x588 JUMP JUMPDEST SWAP5 SWAP4 POP POP POP POP JUMP JUMPDEST PUSH2 0x5D5 DUP2 PUSH2 0x57F JUMP JUMPDEST DUP2 EQ PUSH2 0x5DF JUMPI PUSH0 DUP1 REVERT JUMPDEST POP JUMP JUMPDEST PUSH0 DUP2 CALLDATALOAD SWAP1 POP PUSH2 0x5F0 DUP2 PUSH2 0x5CC JUMP JUMPDEST SWAP3 SWAP2 POP POP JUMP JUMPDEST PUSH0 DUP1 PUSH1 0x40 DUP4 DUP6 SUB SLT ISZERO PUSH2 0x60C JUMPI PUSH2 0x60B PUSH2 0x4F6 JUMP JUMPDEST JUMPDEST PUSH0 PUSH2 0x619 DUP6 DUP3 DUP7 ADD PUSH2 0x540 JUMP JUMPDEST SWAP3 POP POP PUSH1 0x20 PUSH2 0x62A DUP6 DUP3 DUP7 ADD PUSH2 0x5E2 JUMP JUMPDEST SWAP2 POP POP SWAP3 POP SWAP3 SWAP1 POP JUMP JUMPDEST PUSH2 0x63D DUP2 PUSH2 0x57F JUMP JUMPDEST DUP3 MSTORE POP POP JUMP JUMPDEST PUSH1 0x40 DUP3 ADD PUSH0 DUP3 ADD MLOAD PUSH2 0x657 PUSH0 DUP6 ADD DUP3 PUSH2 0x634 JUMP JUMPDEST POP PUSH1 0x20 DUP3 ADD MLOAD PUSH2 0x66A PUSH1 0x20 DUP6 ADD DUP3 PUSH2 0x634 JUMP JUMPDEST POP POP POP POP JUMP JUMPDEST PUSH0 PUSH1 0x40 DUP3 ADD SWAP1 POP PUSH2 0x683 PUSH0 DUP4 ADD DUP5 PUSH2 0x643 JUMP JUMPDEST SWAP3 SWAP2 POP POP JUMP JUMPDEST PUSH0 PUSH2 0x693 DUP3 PUSH2 0x4FA JUMP JUMPDEST SWAP1 POP SWAP2 SWAP1 POP JUMP JUMPDEST PUSH2 0x6A3 DUP2 PUSH2 0x689 JUMP JUMPDEST DUP2 EQ PUSH2 0x6AD JUMPI PUSH0 DUP1 REVERT JUMPDEST POP JUMP JUMPDEST PUSH0 DUP2 CALLDATALOAD SWAP1 POP PUSH2 0x6BE DUP2 PUSH2 0x69A JUMP JUMPDEST SWAP3 SWAP2 POP POP JUMP JUMPDEST PUSH0 DUP1 PUSH1 0x40 DUP4 DUP6 SUB SLT ISZERO PUSH2 0x6DA JUMPI PUSH2 0x6D9 PUSH2 0x4F6 JUMP JUMPDEST JUMPDEST PUSH0 PUSH2 0x6E7 DUP6 DUP3 DUP7 ADD PUSH2 0x6B0 JUMP JUMPDEST SWAP3 POP POP PUSH1 0x20 PUSH2 0x6F8 DUP6 DUP3 DUP7 ADD PUSH2 0x5E2 JUMP JUMPDEST SWAP2 POP POP SWAP3 POP SWAP3 SWAP1 POP JUMP JUMPDEST PUSH32 0x4E487B7100000000000000000000000000000000000000000000000000000000 PUSH0 MSTORE PUSH1 0x11 PUSH1 0x4 MSTORE PUSH1 0x24 PUSH0 REVERT JUMPDEST PUSH0 PUSH2 0x739 DUP3 PUSH2 0x57F JUMP JUMPDEST SWAP2 POP PUSH2 0x744 DUP4 PUSH2 0x57F JUMP JUMPDEST SWAP3 POP DUP3 DUP3 ADD SWAP1 POP DUP1 DUP3 GT ISZERO PUSH2 0x75C JUMPI PUSH2 0x75B PUSH2 0x702 JUMP JUMPDEST JUMPDEST SWAP3 SWAP2 POP POP JUMP JUMPDEST PUSH0 PUSH2 0x76C DUP3 PUSH2 0x57F JUMP JUMPDEST SWAP2 POP PUSH32 0xFFFFFFFFFFFFFFFFFFFFFFFFFFFFFFFFFFFFFFFFFFFFFFFFFFFFFFFFFFFFFFFF DUP3 SUB PUSH2 0x79E JUMPI PUSH2 0x79D PUSH2 0x702 JUMP JUMPDEST JUMPDEST PUSH1 0x1 DUP3 ADD SWAP1 POP SWAP2 SWAP1 POP JUMP JUMPDEST PUSH0 PUSH2 0x7B3 DUP3 PUSH2 0x57F JUMP JUMPDEST SWAP2 POP PUSH2 0x7BE DUP4 PUSH2 0x57F JUMP JUMPDEST SWAP3 POP DUP3 DUP3 SUB SWAP1 POP DUP2 DUP2 GT ISZERO PUSH2 0x7D6 JUMPI PUSH2 0x7D5 PUSH2 0x702 JUMP JUMPDEST JUMPDEST SWAP3 SWAP2 POP POP JUMP INVALID LOG2 PUSH5 0x6970667358 0x22 SLT KECCAK256 PUSH12 0x130D296D1C7F3BB27E56CE07 PUSH31 0x46D6EE7619D600C1443AF59646F5E96A070364736F6C634300081A00330000 "
		},
		"gasEstimates": {
			"creation": {
				"codeDepositCost": "413200",
				"executionCost": "447",
				"totalCost": "413647"
			},
			"external": {
				"balances(address)": "infinite",
				"depositMoney()": "infinite",
				"getDepositNum(address,uint256)": "infinite",
				"withdrawMoney(address,uint256)": "infinite"
			}
		},
		"methodIdentifiers": {
			"balances(address)": "27e235e3",
			"depositMoney()": "16c05aa2",
			"getDepositNum(address,uint256)": "55e14fe6",
			"withdrawMoney(address,uint256)": "f274c897"
		}
	},
	"abi": [
		{
			"inputs": [
				{
					"internalType": "address",
					"name": "",
					"type": "address"
				}
			],
			"name": "balances",
			"outputs": [
				{
					"internalType": "uint256",
					"name": "totalBalance",
					"type": "uint256"
				},
				{
					"internalType": "uint256",
					"name": "numDeposits",
					"type": "uint256"
				},
				{
					"internalType": "uint256",
					"name": "numWithdrawals",
					"type": "uint256"
				}
			],
			"stateMutability": "view",
			"type": "function"
		},
		{
			"inputs": [],
			"name": "depositMoney",
			"outputs": [],
			"stateMutability": "payable",
			"type": "function"
		},
		{
			"inputs": [
				{
					"internalType": "address",
					"name": "_from",
					"type": "address"
				},
				{
					"internalType": "uint256",
					"name": "_numDeposit",
					"type": "uint256"
				}
			],
			"name": "getDepositNum",
			"outputs": [
				{
					"components": [
						{
							"internalType": "uint256",
							"name": "amount",
							"type": "uint256"
						},
						{
							"internalType": "uint256",
							"name": "timestamp",
							"type": "uint256"
						}
					],
					"internalType": "struct MappingStructExample.Transaction",
					"name": "",
					"type": "tuple"
				}
			],
			"stateMutability": "view",
			"type": "function"
		},
		{
			"inputs": [
				{
					"internalType": "address payable",
					"name": "_to",
					"type": "address"
				},
				{
					"internalType": "uint256",
					"name": "_amount",
					"type": "uint256"
				}
			],
			"name": "withdrawMoney",
			"outputs": [],
			"stateMutability": "nonpayable",
			"type": "function"
		}
	]
}